{
  "address": "0x5FbDB2315678afecb367f032d93F642f64180aa3",
  "abi": [
    {
      "inputs": [
        {
          "internalType": "uint256",
          "name": "percentCut",
          "type": "uint256"
        }
      ],
      "stateMutability": "nonpayable",
      "type": "constructor"
    },
    {
      "inputs": [],
      "name": "CrowdFunder__ErrorWithdrawing",
      "type": "error"
    },
    {
      "inputs": [],
      "name": "CrowdFunder__OnlyOwnerCanCallThis",
      "type": "error"
    },
    {
      "inputs": [],
      "name": "CrowdFunder__ThisWalletAlreadyHasACause",
      "type": "error"
    },
    {
      "anonymous": false,
      "inputs": [
        {
          "indexed": true,
          "internalType": "address",
          "name": "causeAddress",
          "type": "address"
        }
      ],
      "name": "CauseCreated",
      "type": "event"
    },
    {
      "anonymous": false,
      "inputs": [
        {
          "indexed": true,
          "internalType": "uint256",
          "name": "amount",
          "type": "uint256"
        }
      ],
      "name": "DonationReceived",
      "type": "event"
    },
    {
      "anonymous": false,
      "inputs": [
        {
          "indexed": true,
          "internalType": "uint256",
          "name": "amount",
          "type": "uint256"
        }
      ],
      "name": "WithdrawalMade",
      "type": "event"
    },
    {
      "stateMutability": "payable",
      "type": "fallback"
    },
    {
      "inputs": [
        {
          "internalType": "address",
          "name": "",
          "type": "address"
        }
      ],
      "name": "causeToId",
      "outputs": [
        {
          "internalType": "uint256",
          "name": "",
          "type": "uint256"
        }
      ],
      "stateMutability": "view",
      "type": "function"
    },
    {
      "inputs": [
        {
          "internalType": "address",
          "name": "causeToCheck",
          "type": "address"
        }
      ],
      "name": "confirmCause",
      "outputs": [
        {
          "internalType": "bool",
          "name": "",
          "type": "bool"
        }
      ],
      "stateMutability": "view",
      "type": "function"
    },
    {
      "inputs": [
        {
          "internalType": "string",
          "name": "causeName",
          "type": "string"
        },
        {
          "internalType": "uint256",
          "name": "goal",
          "type": "uint256"
        }
      ],
      "name": "createCause",
      "outputs": [
        {
          "internalType": "address",
          "name": "",
          "type": "address"
        }
      ],
      "stateMutability": "nonpayable",
      "type": "function"
    },
    {
      "inputs": [
        {
          "internalType": "address",
          "name": "owner",
          "type": "address"
        }
      ],
      "name": "getCauseAddressByOwnerWallet",
      "outputs": [
        {
          "internalType": "address",
          "name": "",
          "type": "address"
        }
      ],
      "stateMutability": "view",
      "type": "function"
    },
    {
      "inputs": [
        {
          "internalType": "uint256",
          "name": "causeId",
          "type": "uint256"
        }
      ],
      "name": "getCauseById",
      "outputs": [
        {
          "internalType": "address",
          "name": "",
          "type": "address"
        }
      ],
      "stateMutability": "view",
      "type": "function"
    },
    {
      "inputs": [
        {
          "internalType": "address",
          "name": "causeAddress",
          "type": "address"
        }
      ],
      "name": "getCauseIdByCauseAddress",
      "outputs": [
        {
          "internalType": "uint256",
          "name": "",
          "type": "uint256"
        }
      ],
      "stateMutability": "view",
      "type": "function"
    },
    {
      "inputs": [
        {
          "internalType": "address",
          "name": "owner",
          "type": "address"
        }
      ],
      "name": "getCauseIdByOwnerAddress",
      "outputs": [
        {
          "internalType": "uint256",
          "name": "",
          "type": "uint256"
        }
      ],
      "stateMutability": "view",
      "type": "function"
    },
    {
      "inputs": [],
      "name": "getContractBalance",
      "outputs": [
        {
          "internalType": "uint256",
          "name": "",
          "type": "uint256"
        }
      ],
      "stateMutability": "view",
      "type": "function"
    },
    {
      "inputs": [],
      "name": "getContractOwner",
      "outputs": [
        {
          "internalType": "address",
          "name": "",
          "type": "address"
        }
      ],
      "stateMutability": "view",
      "type": "function"
    },
    {
      "inputs": [],
      "name": "getLatestCauseAddress",
      "outputs": [
        {
          "internalType": "address",
          "name": "",
          "type": "address"
        }
      ],
      "stateMutability": "view",
      "type": "function"
    },
    {
      "inputs": [],
      "name": "getMyCauseId",
      "outputs": [
        {
          "internalType": "uint256",
          "name": "",
          "type": "uint256"
        }
      ],
      "stateMutability": "view",
      "type": "function"
    },
    {
      "inputs": [],
      "name": "getPercentCut",
      "outputs": [
        {
          "internalType": "uint256",
          "name": "",
          "type": "uint256"
        }
      ],
      "stateMutability": "view",
      "type": "function"
    },
    {
      "inputs": [
        {
          "internalType": "address",
          "name": "",
          "type": "address"
        }
      ],
      "name": "hasCause",
      "outputs": [
        {
          "internalType": "uint256",
          "name": "",
          "type": "uint256"
        }
      ],
      "stateMutability": "view",
      "type": "function"
    },
    {
      "inputs": [],
      "name": "i_crowdFunderOwner",
      "outputs": [
        {
          "internalType": "address payable",
          "name": "",
          "type": "address"
        }
      ],
      "stateMutability": "view",
      "type": "function"
    },
    {
      "inputs": [],
      "name": "i_percentCut",
      "outputs": [
        {
          "internalType": "uint256",
          "name": "",
          "type": "uint256"
        }
      ],
      "stateMutability": "view",
      "type": "function"
    },
    {
      "inputs": [
        {
          "internalType": "uint256",
          "name": "causeId",
          "type": "uint256"
        }
      ],
      "name": "lock",
      "outputs": [],
      "stateMutability": "nonpayable",
      "type": "function"
    },
    {
      "inputs": [
        {
          "internalType": "uint256",
          "name": "",
          "type": "uint256"
        }
      ],
      "name": "s_causes",
      "outputs": [
        {
          "internalType": "contract Cause",
          "name": "",
          "type": "address"
        }
      ],
      "stateMutability": "view",
      "type": "function"
    },
    {
      "inputs": [],
      "name": "s_nextCauseId",
      "outputs": [
        {
          "internalType": "uint256",
          "name": "",
          "type": "uint256"
        }
      ],
      "stateMutability": "view",
      "type": "function"
    },
    {
      "inputs": [],
      "name": "sponsorSite",
      "outputs": [],
      "stateMutability": "payable",
      "type": "function"
    },
    {
      "inputs": [
        {
          "internalType": "uint256",
          "name": "causeId",
          "type": "uint256"
        }
      ],
      "name": "unlock",
      "outputs": [],
      "stateMutability": "nonpayable",
      "type": "function"
    },
    {
      "inputs": [
        {
          "internalType": "address",
          "name": "",
          "type": "address"
        }
      ],
      "name": "walletToCauseOwned",
      "outputs": [
        {
          "internalType": "address",
          "name": "",
          "type": "address"
        }
      ],
      "stateMutability": "view",
      "type": "function"
    },
    {
      "inputs": [],
      "name": "withdraw",
      "outputs": [],
      "stateMutability": "payable",
      "type": "function"
    },
    {
      "stateMutability": "payable",
      "type": "receive"
    }
  ],
  "transactionHash": "0xc1a2f863cfb7788b92f8673f40de431352e38bfa63a084084b53f2305f1def42",
  "args": [
    "300"
  ],
  "numDeployments": 1,
  "solcInputHash": "ae9afec4a6ccbd9a10a76620964163ce",
  "bytecode": "0x60c06040523480156200001157600080fd5b5060405162003eea38038062003eea83398181016040528101906200003791906200009c565b3373ffffffffffffffffffffffffffffffffffffffff1660808173ffffffffffffffffffffffffffffffffffffffff1660601b815250508060a08181525050600160038190555050620000f7565b6000815190506200009681620000dd565b92915050565b600060208284031215620000b557620000b4620000d8565b5b6000620000c58482850162000085565b91505092915050565b6000819050919050565b600080fd5b620000e881620000ce565b8114620000f457600080fd5b50565b60805160601c60a051613da06200014a6000396000818161089001528181610b170152610bbd0152600081816107680152818161086a015281816108ff01528181610a9d0152610eed0152613da06000f3fe608060405260043610620001575760003560e01c80636c7c3a5d11620000bb578063a9ccb0fe1162000079578063a9ccb0fe146200050d578063acc001431462000551578063dd467064146200055d578063e812500b146200058b578063e8d95fec14620005cf578063f824ec541462000613576200018c565b80636c7c3a5d14620004095780636f9fb98a1462000439578063785d9c031462000469578063820165051462000499578063930e4c8b14620004c9576200018c565b8063442890d51162000115578063442890d514620002af5780634a0cf0fb14620002df57806351340f4f146200030f578063580ca24c14620003535780636198e339146200039757806364650eff14620003c5576200018c565b8063179171e214620001bb57806330adbc7414620001ff57806337c12206146200022f5780633c0d12c6146200025f5780633ccfd60b14620002a3576200018c565b366200018c57347f9874a7967abbb8701e946ae29391c091f59962f042ba4b5d99b1ed7f2e2e3e5560405160405180910390a2005b347f9874a7967abbb8701e946ae29391c091f59962f042ba4b5d99b1ed7f2e2e3e5560405160405180910390a2005b348015620001c857600080fd5b50620001e76004803603810190620001e191906200118b565b62000657565b604051620001f69190620013c3565b60405180910390f35b3480156200020c57600080fd5b5062000217620006a5565b604051620002269190620013c3565b60405180910390f35b3480156200023c57600080fd5b5062000247620006ab565b604051620002569190620012eb565b60405180910390f35b3480156200026c57600080fd5b506200028b60048036038101906200028591906200118b565b62000709565b6040516200029a919062001325565b60405180910390f35b620002ad62000766565b005b348015620002bc57600080fd5b50620002c762000866565b604051620002d69190620012eb565b60405180910390f35b348015620002ec57600080fd5b50620002f76200088e565b604051620003069190620013c3565b60405180910390f35b3480156200031c57600080fd5b506200033b60048036038101906200033591906200118b565b620008b2565b6040516200034a9190620012eb565b60405180910390f35b3480156200036057600080fd5b506200037f60048036038101906200037991906200118b565b620008e5565b6040516200038e9190620013c3565b60405180910390f35b348015620003a457600080fd5b50620003c36004803603810190620003bd919062001223565b620008fd565b005b348015620003d257600080fd5b50620003f16004803603810190620003eb919062001223565b62000a3d565b604051620004009190620012eb565b60405180910390f35b3480156200041657600080fd5b506200042162000a9b565b60405162000430919062001308565b60405180910390f35b3480156200044657600080fd5b506200045162000abf565b604051620004609190620013c3565b60405180910390f35b3480156200047657600080fd5b506200048162000ac7565b604051620004909190620013c3565b60405180910390f35b348015620004a657600080fd5b50620004b162000b13565b604051620004c09190620013c3565b60405180910390f35b348015620004d657600080fd5b50620004f56004803603810190620004ef9190620011bd565b62000b3b565b604051620005049190620012eb565b60405180910390f35b3480156200051a57600080fd5b506200053960048036038101906200053391906200118b565b62000e4f565b604051620005489190620012eb565b60405180910390f35b6200055b62000ebc565b005b3480156200056a57600080fd5b5062000589600480360381019062000583919062001223565b62000eeb565b005b3480156200059857600080fd5b50620005b76004803603810190620005b1919062001223565b6200102b565b604051620005c6919062001342565b60405180910390f35b348015620005dc57600080fd5b50620005fb6004803603810190620005f591906200118b565b6200106b565b6040516200060a9190620013c3565b60405180910390f35b3480156200062057600080fd5b506200063f60048036038101906200063991906200118b565b620010b9565b6040516200064e9190620013c3565b60405180910390f35b600080600260008473ffffffffffffffffffffffffffffffffffffffff1673ffffffffffffffffffffffffffffffffffffffff16815260200190815260200160002054905080915050919050565b60035481565b60008060046002600354620006c19190620014b8565b81548110620006d557620006d462001637565b5b9060005260206000200160009054906101000a900473ffffffffffffffffffffffffffffffffffffffff1690508091505090565b600080600260008473ffffffffffffffffffffffffffffffffffffffff1673ffffffffffffffffffffffffffffffffffffffff16815260200190815260200160002054146200075c576001905062000761565b600090505b919050565b7f000000000000000000000000000000000000000000000000000000000000000073ffffffffffffffffffffffffffffffffffffffff163373ffffffffffffffffffffffffffffffffffffffff1614620007ec576040517f4f227fdb00000000000000000000000000000000000000000000000000000000815260040160405180910390fd5b600047905060003373ffffffffffffffffffffffffffffffffffffffff166108fc839081150290604051600060405180830381858888f1935050505090508062000862576040517fb60ef3b700000000000000000000000000000000000000000000000000000000815260040160405180910390fd5b5050565b60007f0000000000000000000000000000000000000000000000000000000000000000905090565b7f000000000000000000000000000000000000000000000000000000000000000081565b60006020528060005260406000206000915054906101000a900473ffffffffffffffffffffffffffffffffffffffff1681565b60016020528060005260406000206000915090505481565b7f000000000000000000000000000000000000000000000000000000000000000073ffffffffffffffffffffffffffffffffffffffff163373ffffffffffffffffffffffffffffffffffffffff161462000983576040517f4f227fdb00000000000000000000000000000000000000000000000000000000815260040160405180910390fd5b60006004600183620009969190620014b8565b81548110620009aa57620009a962001637565b5b9060005260206000200160009054906101000a900473ffffffffffffffffffffffffffffffffffffffff1690508073ffffffffffffffffffffffffffffffffffffffff1663a69df4b56040518163ffffffff1660e01b8152600401600060405180830381600087803b15801562000a2057600080fd5b505af115801562000a35573d6000803e3d6000fd5b505050505050565b600080600460018462000a519190620014b8565b8154811062000a655762000a6462001637565b5b9060005260206000200160009054906101000a900473ffffffffffffffffffffffffffffffffffffffff16905080915050919050565b7f000000000000000000000000000000000000000000000000000000000000000081565b600047905090565b600080600160003373ffffffffffffffffffffffffffffffffffffffff1673ffffffffffffffffffffffffffffffffffffffff1681526020019081526020016000205490508091505090565b60007f0000000000000000000000000000000000000000000000000000000000000000905090565b600080600160003373ffffffffffffffffffffffffffffffffffffffff1673ffffffffffffffffffffffffffffffffffffffff168152602001908152602001600020541462000bb6576040517f66a7ac8000000000000000000000000000000000000000000000000000000000815260040160405180910390fd5b60008383337f000000000000000000000000000000000000000000000000000000000000000060035460405162000bed90620010d1565b62000bfd9594939291906200135f565b604051809103906000f08015801562000c1a573d6000803e3d6000fd5b5090508073ffffffffffffffffffffffffffffffffffffffff1663a69df4b56040518163ffffffff1660e01b8152600401600060405180830381600087803b15801562000c6657600080fd5b505af115801562000c7b573d6000803e3d6000fd5b505050506004819080600181540180825580915050600190039060005260206000200160009091909190916101000a81548173ffffffffffffffffffffffffffffffffffffffff021916908373ffffffffffffffffffffffffffffffffffffffff160217905550806000803373ffffffffffffffffffffffffffffffffffffffff1673ffffffffffffffffffffffffffffffffffffffff16815260200190815260200160002060006101000a81548173ffffffffffffffffffffffffffffffffffffffff021916908373ffffffffffffffffffffffffffffffffffffffff160217905550600354600160003373ffffffffffffffffffffffffffffffffffffffff1673ffffffffffffffffffffffffffffffffffffffff16815260200190815260200160002081905550600354600260008373ffffffffffffffffffffffffffffffffffffffff1673ffffffffffffffffffffffffffffffffffffffff16815260200190815260200160002081905550600160035462000dfc91906200145b565b6003819055508073ffffffffffffffffffffffffffffffffffffffff167f8d41e52c133717d879952d81e8b37582cb51f582d4cb7850e2db6d012141a11c60405160405180910390a28091505092915050565b6000806000808473ffffffffffffffffffffffffffffffffffffffff1673ffffffffffffffffffffffffffffffffffffffff16815260200190815260200160002060009054906101000a900473ffffffffffffffffffffffffffffffffffffffff16905080915050919050565b347f9874a7967abbb8701e946ae29391c091f59962f042ba4b5d99b1ed7f2e2e3e5560405160405180910390a2565b7f000000000000000000000000000000000000000000000000000000000000000073ffffffffffffffffffffffffffffffffffffffff163373ffffffffffffffffffffffffffffffffffffffff161462000f71576040517f4f227fdb00000000000000000000000000000000000000000000000000000000815260040160405180910390fd5b6000600460018362000f849190620014b8565b8154811062000f985762000f9762001637565b5b9060005260206000200160009054906101000a900473ffffffffffffffffffffffffffffffffffffffff1690508073ffffffffffffffffffffffffffffffffffffffff1663f83d08ba6040518163ffffffff1660e01b8152600401600060405180830381600087803b1580156200100e57600080fd5b505af115801562001023573d6000803e3d6000fd5b505050505050565b600481815481106200103c57600080fd5b906000526020600020016000915054906101000a900473ffffffffffffffffffffffffffffffffffffffff1681565b600080600160008473ffffffffffffffffffffffffffffffffffffffff1673ffffffffffffffffffffffffffffffffffffffff16815260200190815260200160002054905080915050919050565b60026020528060005260406000206000915090505481565b61267c80620016ef83390190565b6000620010f6620010f08462001409565b620013e0565b9050828152602081018484840111156200111557620011146200169a565b5b620011228482856200158d565b509392505050565b6000813590506200113b81620016ba565b92915050565b600082601f83011262001159576200115862001695565b5b81356200116b848260208601620010df565b91505092915050565b6000813590506200118581620016d4565b92915050565b600060208284031215620011a457620011a3620016a4565b5b6000620011b4848285016200112a565b91505092915050565b60008060408385031215620011d757620011d6620016a4565b5b600083013567ffffffffffffffff811115620011f857620011f76200169f565b5b620012068582860162001141565b9250506020620012198582860162001174565b9150509250929050565b6000602082840312156200123c576200123b620016a4565b5b60006200124c8482850162001174565b91505092915050565b620012608162001507565b82525050565b6200127181620014f3565b82525050565b62001282816200151b565b82525050565b620012938162001551565b82525050565b6000620012a6826200143f565b620012b281856200144a565b9350620012c48185602086016200159c565b620012cf81620016a9565b840191505092915050565b620012e58162001547565b82525050565b600060208201905062001302600083018462001266565b92915050565b60006020820190506200131f600083018462001255565b92915050565b60006020820190506200133c600083018462001277565b92915050565b600060208201905062001359600083018462001288565b92915050565b600060a08201905081810360008301526200137b818862001299565b90506200138c6020830187620012da565b6200139b604083018662001255565b620013aa6060830185620012da565b620013b96080830184620012da565b9695505050505050565b6000602082019050620013da6000830184620012da565b92915050565b6000620013ec620013ff565b9050620013fa8282620015d2565b919050565b6000604051905090565b600067ffffffffffffffff82111562001427576200142662001666565b5b6200143282620016a9565b9050602081019050919050565b600081519050919050565b600082825260208201905092915050565b6000620014688262001547565b9150620014758362001547565b9250827fffffffffffffffffffffffffffffffffffffffffffffffffffffffffffffffff03821115620014ad57620014ac62001608565b5b828201905092915050565b6000620014c58262001547565b9150620014d28362001547565b925082821015620014e857620014e762001608565b5b828203905092915050565b6000620015008262001527565b9050919050565b6000620015148262001527565b9050919050565b60008115159050919050565b600073ffffffffffffffffffffffffffffffffffffffff82169050919050565b6000819050919050565b60006200155e8262001565565b9050919050565b6000620015728262001579565b9050919050565b6000620015868262001527565b9050919050565b82818337600083830152505050565b60005b83811015620015bc5780820151818401526020810190506200159f565b83811115620015cc576000848401525b50505050565b620015dd82620016a9565b810181811067ffffffffffffffff82111715620015ff57620015fe62001666565b5b80604052505050565b7f4e487b7100000000000000000000000000000000000000000000000000000000600052601160045260246000fd5b7f4e487b7100000000000000000000000000000000000000000000000000000000600052603260045260246000fd5b7f4e487b7100000000000000000000000000000000000000000000000000000000600052604160045260246000fd5b600080fd5b600080fd5b600080fd5b600080fd5b6000601f19601f8301169050919050565b620016c581620014f3565b8114620016d157600080fd5b50565b620016df8162001547565b8114620016eb57600080fd5b5056fe60e06040523480156200001157600080fd5b506040516200267c3803806200267c833981810160405281019062000037919062000285565b33600260006101000a81548173ffffffffffffffffffffffffffffffffffffffff021916908373ffffffffffffffffffffffffffffffffffffffff16021790555084600390805190602001906200009092919062000129565b5082600160046101000a81548173ffffffffffffffffffffffffffffffffffffffff021916908373ffffffffffffffffffffffffffffffffffffffff160217905550836080818152505060018060016101000a81548160ff0219169083151502179055508160a081815250508060c0818152505060018060026101000a81548160ff021916908315150217905550505050505062000522565b8280546200013790620003ff565b90600052602060002090601f0160209004810192826200015b5760008555620001a7565b82601f106200017657805160ff1916838001178555620001a7565b82800160010185558215620001a7579182015b82811115620001a657825182559160200191906001019062000189565b5b509050620001b69190620001ba565b5090565b5b80821115620001d5576000816000905550600101620001bb565b5090565b6000620001f0620001ea8462000355565b6200032c565b9050828152602081018484840111156200020f576200020e620004ce565b5b6200021c848285620003c9565b509392505050565b6000815190506200023581620004ee565b92915050565b600082601f830112620002535762000252620004c9565b5b815162000265848260208601620001d9565b91505092915050565b6000815190506200027f8162000508565b92915050565b600080600080600060a08688031215620002a457620002a3620004d8565b5b600086015167ffffffffffffffff811115620002c557620002c4620004d3565b5b620002d3888289016200023b565b9550506020620002e6888289016200026e565b9450506040620002f98882890162000224565b93505060606200030c888289016200026e565b92505060806200031f888289016200026e565b9150509295509295909350565b6000620003386200034b565b905062000346828262000435565b919050565b6000604051905090565b600067ffffffffffffffff8211156200037357620003726200049a565b5b6200037e82620004dd565b9050602081019050919050565b600062000398826200039f565b9050919050565b600073ffffffffffffffffffffffffffffffffffffffff82169050919050565b6000819050919050565b60005b83811015620003e9578082015181840152602081019050620003cc565b83811115620003f9576000848401525b50505050565b600060028204905060018216806200041857607f821691505b602082108114156200042f576200042e6200046b565b5b50919050565b6200044082620004dd565b810181811067ffffffffffffffff821117156200046257620004616200049a565b5b80604052505050565b7f4e487b7100000000000000000000000000000000000000000000000000000000600052602260045260246000fd5b7f4e487b7100000000000000000000000000000000000000000000000000000000600052604160045260246000fd5b600080fd5b600080fd5b600080fd5b600080fd5b6000601f19601f8301169050919050565b620004f9816200038b565b81146200050557600080fd5b50565b6200051381620003bf565b81146200051f57600080fd5b50565b60805160a05160c05161210e6200056e6000396000610941015260008181610d4e0152610f1701526000818161089301528181611085015281816111ee0152611432015261210e6000f3fe6080604052600436106101e75760003560e01c8063748ce70a11610102578063c622bb2011610095578063dfcf7a8c11610064578063dfcf7a8c14610677578063ed88c68e146106a2578063f03232a3146106ac578063f83d08ba146106d7576101f6565b8063c622bb2014610602578063ca973f071461062d578063d4f2a4d514610637578063d9d258131461064e576101f6565b8063a69df4b5116100d1578063a69df4b51461056a578063af1aa9f914610581578063b97a7d24146105ac578063c38804a5146105d7576101f6565b8063748ce70a146104ac578063787e3257146104d757806380e1204f14610502578063a67e30cb1461053f576101f6565b8063365fd9821161017a578063583b189611610149578063583b1896146103ee5780635edd2267146104195780635eed3dcb14610444578063643b287014610481576101f6565b8063365fd9821461035657806339d7e8a4146103815780633ccfd60b146103ac5780634a0cf0fb146103c3576101f6565b80632af4c31e116101b65780632af4c31e146102ac5780632d3297b6146102d55780632e6626e714610300578063306addc41461032b576101f6565b80630294d01114610200578063092dcb4c1461022b5780630cfc2fc51461025657806327ad7a5d14610281576101f6565b366101f6576101f46106ee565b005b6101fe6106ee565b005b34801561020c57600080fd5b5061021561093f565b6040516102229190611cfc565b60405180910390f35b34801561023757600080fd5b50610240610963565b60405161024d9190611c9d565b60405180910390f35b34801561026257600080fd5b5061026b61097a565b6040516102789190611c9d565b60405180910390f35b34801561028d57600080fd5b5061029661098d565b6040516102a39190611c9d565b60405180910390f35b3480156102b857600080fd5b506102d360048036038101906102ce9190611ad0565b6109a4565b005b3480156102e157600080fd5b506102ea610af9565b6040516102f79190611cfc565b60405180910390f35b34801561030c57600080fd5b50610315610b02565b6040516103229190611cb8565b60405180910390f35b34801561033757600080fd5b50610340610b94565b60405161034d9190611cb8565b60405180910390f35b34801561036257600080fd5b5061036b610c22565b6040516103789190611cfc565b60405180910390f35b34801561038d57600080fd5b50610396610c6e565b6040516103a39190611cfc565b60405180910390f35b3480156103b857600080fd5b506103c1610c74565b005b3480156103cf57600080fd5b506103d8610f15565b6040516103e59190611cfc565b60405180910390f35b3480156103fa57600080fd5b50610403610f39565b6040516104109190611c9d565b60405180910390f35b34801561042557600080fd5b5061042e610f50565b60405161043b9190611cb8565b60405180910390f35b34801561045057600080fd5b5061046b60048036038101906104669190611b46565b610fde565b6040516104789190611c59565b60405180910390f35b34801561048d57600080fd5b5061049661101d565b6040516104a39190611c59565b60405180910390f35b3480156104b857600080fd5b506104c1611043565b6040516104ce9190611c9d565b60405180910390f35b3480156104e357600080fd5b506104ec611058565b6040516104f99190611c9d565b60405180910390f35b34801561050e57600080fd5b5061052960048036038101906105249190611aa3565b61106b565b6040516105369190611cfc565b60405180910390f35b34801561054b57600080fd5b50610554611083565b6040516105619190611cfc565b60405180910390f35b34801561057657600080fd5b5061057f6110a7565b005b34801561058d57600080fd5b506105966111d7565b6040516105a39190611c9d565b60405180910390f35b3480156105b857600080fd5b506105c16111ea565b6040516105ce9190611cfc565b60405180910390f35b3480156105e357600080fd5b506105ec611212565b6040516105f99190611c59565b60405180910390f35b34801561060e57600080fd5b50610617611238565b6040516106249190611c59565b60405180910390f35b610635611262565b005b34801561064357600080fd5b5061064c6114fd565b005b34801561065a57600080fd5b5061067560048036038101906106709190611afd565b61165e565b005b34801561068357600080fd5b5061068c61177e565b6040516106999190611c9d565b60405180910390f35b6106aa6106ee565b005b3480156106b857600080fd5b506106c161178f565b6040516106ce9190611cb8565b60405180910390f35b3480156106e357600080fd5b506106ec611821565b005b600160009054906101000a900460ff1615610735576040517f7d6ebcc700000000000000000000000000000000000000000000000000000000815260040160405180910390fd5b60018054906101000a900460ff16610779576040517f9f6f715500000000000000000000000000000000000000000000000000000000815260040160405180910390fd5b600160029054906101000a900460ff16156107c0576040517fbabe63b900000000000000000000000000000000000000000000000000000000815260040160405180910390fd5b346000808282546107d19190611d9e565b925050819055506006339080600181540180825580915050600190039060005260206000200160009091909190916101000a81548173ffffffffffffffffffffffffffffffffffffffff021916908373ffffffffffffffffffffffffffffffffffffffff16021790555034600560003373ffffffffffffffffffffffffffffffffffffffff1673ffffffffffffffffffffffffffffffffffffffff168152602001908152602001600020600082825461088a9190611d9e565b925050819055507f0000000000000000000000000000000000000000000000000000000000000000600054106108ef5760018060006101000a81548160ff02191690831515021790555060006001806101000a81548160ff0219169083151502179055505b3373ffffffffffffffffffffffffffffffffffffffff167faa13962bc79c7a0bc42cb8169b1705f0a6b55cc404ffb8a589d771ca78675978346040516109359190611cfc565b60405180910390a2565b7f000000000000000000000000000000000000000000000000000000000000000081565b6000600160009054906101000a900460ff16905090565b600160039054906101000a900460ff1681565b6000600160039054906101000a900460ff16905090565b600160049054906101000a900473ffffffffffffffffffffffffffffffffffffffff1673ffffffffffffffffffffffffffffffffffffffff163373ffffffffffffffffffffffffffffffffffffffff1614610a2b576040517f18f09efd00000000000000000000000000000000000000000000000000000000815260040160405180910390fd5b600160029054906101000a900460ff1615610a72576040517fbabe63b900000000000000000000000000000000000000000000000000000000815260040160405180910390fd5b80600160046101000a81548173ffffffffffffffffffffffffffffffffffffffff021916908373ffffffffffffffffffffffffffffffffffffffff1602179055508073ffffffffffffffffffffffffffffffffffffffff167f595ee9ffef04d4d652b768860c56905a48f5ab79124bb3b2279df1885536991d60405160405180910390a250565b60008054905090565b606060048054610b1190611f4f565b80601f0160208091040260200160405190810160405280929190818152602001828054610b3d90611f4f565b8015610b8a5780601f10610b5f57610100808354040283529160200191610b8a565b820191906000526020600020905b815481529060010190602001808311610b6d57829003601f168201915b5050505050905090565b60048054610ba190611f4f565b80601f0160208091040260200160405190810160405280929190818152602001828054610bcd90611f4f565b8015610c1a5780601f10610bef57610100808354040283529160200191610c1a565b820191906000526020600020905b815481529060010190602001808311610bfd57829003601f168201915b505050505081565b600080600560003373ffffffffffffffffffffffffffffffffffffffff1673ffffffffffffffffffffffffffffffffffffffff1681526020019081526020016000205490508091505090565b60005481565b600160049054906101000a900473ffffffffffffffffffffffffffffffffffffffff1673ffffffffffffffffffffffffffffffffffffffff163373ffffffffffffffffffffffffffffffffffffffff1614610cfb576040517f18f09efd00000000000000000000000000000000000000000000000000000000815260040160405180910390fd5b600160029054906101000a900460ff1615610d42576040517fbabe63b900000000000000000000000000000000000000000000000000000000815260040160405180910390fd5b600047905060006127107f000000000000000000000000000000000000000000000000000000000000000083610d789190611e25565b610d829190611df4565b90506000600260009054906101000a900473ffffffffffffffffffffffffffffffffffffffff1673ffffffffffffffffffffffffffffffffffffffff166108fc839081150290604051600060405180830381858888f19350505050905080610e16576040517f7824242700000000000000000000000000000000000000000000000000000000815260040160405180910390fd5b60003373ffffffffffffffffffffffffffffffffffffffff166108fc479081150290604051600060405180830381858888f19350505050905080610e86576040517f7824242700000000000000000000000000000000000000000000000000000000815260040160405180910390fd5b60006001806101000a81548160ff0219169083151502179055506000808190555060018060036101000a81548160ff0219169083151502179055503373ffffffffffffffffffffffffffffffffffffffff167fbc158bb64f05d6383aea69bbb0b20c1bbf4b7a18f63359c5649b7c39e29d388485604051610f079190611cfc565b60405180910390a250505050565b7f000000000000000000000000000000000000000000000000000000000000000081565b6000600160029054906101000a900460ff16905090565b60038054610f5d90611f4f565b80601f0160208091040260200160405190810160405280929190818152602001828054610f8990611f4f565b8015610fd65780601f10610fab57610100808354040283529160200191610fd6565b820191906000526020600020905b815481529060010190602001808311610fb957829003601f168201915b505050505081565b60068181548110610fee57600080fd5b906000526020600020016000915054906101000a900473ffffffffffffffffffffffffffffffffffffffff1681565b600160049054906101000a900473ffffffffffffffffffffffffffffffffffffffff1681565b600060018054906101000a900460ff16905090565b600160029054906101000a900460ff1681565b60056020528060005260406000206000915090505481565b7f000000000000000000000000000000000000000000000000000000000000000081565b600260009054906101000a900473ffffffffffffffffffffffffffffffffffffffff1673ffffffffffffffffffffffffffffffffffffffff163373ffffffffffffffffffffffffffffffffffffffff161461112e576040517f33e2a8ec00000000000000000000000000000000000000000000000000000000815260040160405180910390fd5b600160029054906101000a900460ff16611174576040517f9b6b472200000000000000000000000000000000000000000000000000000000815260040160405180910390fd5b6000600160026101000a81548160ff0219169083151502179055507fda3943f07eff121b37cf91d4288e4e85a5078bee9b6e9159a955bedb96836948600160029054906101000a900460ff166040516111cd9190611c9d565b60405180910390a1565b600160009054906101000a900460ff1681565b60007f0000000000000000000000000000000000000000000000000000000000000000905090565b600260009054906101000a900473ffffffffffffffffffffffffffffffffffffffff1681565b6000600160049054906101000a900473ffffffffffffffffffffffffffffffffffffffff16905090565b600160039054906101000a900460ff16156112a9576040517fbdf238b400000000000000000000000000000000000000000000000000000000815260040160405180910390fd5b6000600560003373ffffffffffffffffffffffffffffffffffffffff1673ffffffffffffffffffffffffffffffffffffffff168152602001908152602001600020541415611323576040517f203c9ab100000000000000000000000000000000000000000000000000000000815260040160405180910390fd5b6000600560003373ffffffffffffffffffffffffffffffffffffffff1673ffffffffffffffffffffffffffffffffffffffff16815260200190815260200160002054905060003373ffffffffffffffffffffffffffffffffffffffff166108fc839081150290604051600060405180830381858888f193505050509050806113d7576040517f7824242700000000000000000000000000000000000000000000000000000000815260040160405180910390fd5b6000600560003373ffffffffffffffffffffffffffffffffffffffff1673ffffffffffffffffffffffffffffffffffffffff168152602001908152602001600020819055508160005461142a9190611e7f565b6000819055507f000000000000000000000000000000000000000000000000000000000000000060005410156114c0576000600160006101000a81548160ff021916908315150217905550600160039054906101000a900460ff1615801561149f5750600160029054906101000a900460ff16155b156114bf5760018060016101000a81548160ff0219169083151502179055505b5b7fd7dee2702d63ad89917b6a4da9981c90c4d24f8c2bdfd64c604ecae57d8d065133836040516114f1929190611c74565b60405180910390a15050565b600160049054906101000a900473ffffffffffffffffffffffffffffffffffffffff1673ffffffffffffffffffffffffffffffffffffffff163373ffffffffffffffffffffffffffffffffffffffff1614611584576040517f18f09efd00000000000000000000000000000000000000000000000000000000815260040160405180910390fd5b60018054906101000a900460ff16156115b65760006001806101000a81548160ff021916908315150217905550611618565b600160039054906101000a900460ff16156115fd576040517fb5608ae600000000000000000000000000000000000000000000000000000000815260040160405180910390fd5b60018060016101000a81548160ff0219169083151502179055505b7f6f5be26fb94646fadcdf16147ddd35138ad497ce000f92f12eadbaa19497c53360018054906101000a900460ff166040516116549190611c9d565b60405180910390a1565b600160049054906101000a900473ffffffffffffffffffffffffffffffffffffffff1673ffffffffffffffffffffffffffffffffffffffff163373ffffffffffffffffffffffffffffffffffffffff16146116e5576040517f18f09efd00000000000000000000000000000000000000000000000000000000815260040160405180910390fd5b600160029054906101000a900460ff161561172c576040517fbabe63b900000000000000000000000000000000000000000000000000000000815260040160405180910390fd5b8060049080519060200190611742929190611951565b507f0c9c2f86218c506a4f5a61d8550880041379a6c31155086325a859e19bfeaaf860046040516117739190611cda565b60405180910390a150565b60018054906101000a900460ff1681565b60606003805461179e90611f4f565b80601f01602080910402602001604051908101604052809291908181526020018280546117ca90611f4f565b80156118175780601f106117ec57610100808354040283529160200191611817565b820191906000526020600020905b8154815290600101906020018083116117fa57829003601f168201915b5050505050905090565b600260009054906101000a900473ffffffffffffffffffffffffffffffffffffffff1673ffffffffffffffffffffffffffffffffffffffff163373ffffffffffffffffffffffffffffffffffffffff16146118a8576040517f33e2a8ec00000000000000000000000000000000000000000000000000000000815260040160405180910390fd5b600160029054906101000a900460ff16156118ef576040517fe1c205bf00000000000000000000000000000000000000000000000000000000815260040160405180910390fd5b60018060026101000a81548160ff0219169083151502179055507fc20b8fc722655092cdbc0c19a12ad36bbf5f5e7da7c30409ecefea3880d8e8cc600160029054906101000a900460ff166040516119479190611c9d565b60405180910390a1565b82805461195d90611f4f565b90600052602060002090601f01602090048101928261197f57600085556119c6565b82601f1061199857805160ff19168380011785556119c6565b828001600101855582156119c6579182015b828111156119c55782518255916020019190600101906119aa565b5b5090506119d391906119d7565b5090565b5b808211156119f05760008160009055506001016119d8565b5090565b6000611a07611a0284611d3c565b611d17565b905082815260208101848484011115611a2357611a22612073565b5b611a2e848285611f0d565b509392505050565b600081359050611a4581612093565b92915050565b600081359050611a5a816120aa565b92915050565b600082601f830112611a7557611a7461206e565b5b8135611a858482602086016119f4565b91505092915050565b600081359050611a9d816120c1565b92915050565b600060208284031215611ab957611ab861207d565b5b6000611ac784828501611a36565b91505092915050565b600060208284031215611ae657611ae561207d565b5b6000611af484828501611a4b565b91505092915050565b600060208284031215611b1357611b1261207d565b5b600082013567ffffffffffffffff811115611b3157611b30612078565b5b611b3d84828501611a60565b91505092915050565b600060208284031215611b5c57611b5b61207d565b5b6000611b6a84828501611a8e565b91505092915050565b611b7c81611eb3565b82525050565b611b8b81611ed7565b82525050565b6000611b9c82611d82565b611ba68185611d8d565b9350611bb6818560208601611f1c565b611bbf81612082565b840191505092915050565b60008154611bd781611f4f565b611be18186611d8d565b94506001821660008114611bfc5760018114611c0e57611c41565b60ff1983168652602086019350611c41565b611c1785611d6d565b60005b83811015611c3957815481890152600182019150602081019050611c1a565b808801955050505b50505092915050565b611c5381611f03565b82525050565b6000602082019050611c6e6000830184611b73565b92915050565b6000604082019050611c896000830185611b73565b611c966020830184611c4a565b9392505050565b6000602082019050611cb26000830184611b82565b92915050565b60006020820190508181036000830152611cd28184611b91565b905092915050565b60006020820190508181036000830152611cf48184611bca565b905092915050565b6000602082019050611d116000830184611c4a565b92915050565b6000611d21611d32565b9050611d2d8282611f81565b919050565b6000604051905090565b600067ffffffffffffffff821115611d5757611d5661203f565b5b611d6082612082565b9050602081019050919050565b60008190508160005260206000209050919050565b600081519050919050565b600082825260208201905092915050565b6000611da982611f03565b9150611db483611f03565b9250827fffffffffffffffffffffffffffffffffffffffffffffffffffffffffffffffff03821115611de957611de8611fb2565b5b828201905092915050565b6000611dff82611f03565b9150611e0a83611f03565b925082611e1a57611e19611fe1565b5b828204905092915050565b6000611e3082611f03565b9150611e3b83611f03565b9250817fffffffffffffffffffffffffffffffffffffffffffffffffffffffffffffffff0483118215151615611e7457611e73611fb2565b5b828202905092915050565b6000611e8a82611f03565b9150611e9583611f03565b925082821015611ea857611ea7611fb2565b5b828203905092915050565b6000611ebe82611ee3565b9050919050565b6000611ed082611ee3565b9050919050565b60008115159050919050565b600073ffffffffffffffffffffffffffffffffffffffff82169050919050565b6000819050919050565b82818337600083830152505050565b60005b83811015611f3a578082015181840152602081019050611f1f565b83811115611f49576000848401525b50505050565b60006002820490506001821680611f6757607f821691505b60208210811415611f7b57611f7a612010565b5b50919050565b611f8a82612082565b810181811067ffffffffffffffff82111715611fa957611fa861203f565b5b80604052505050565b7f4e487b7100000000000000000000000000000000000000000000000000000000600052601160045260246000fd5b7f4e487b7100000000000000000000000000000000000000000000000000000000600052601260045260246000fd5b7f4e487b7100000000000000000000000000000000000000000000000000000000600052602260045260246000fd5b7f4e487b7100000000000000000000000000000000000000000000000000000000600052604160045260246000fd5b600080fd5b600080fd5b600080fd5b600080fd5b6000601f19601f8301169050919050565b61209c81611eb3565b81146120a757600080fd5b50565b6120b381611ec5565b81146120be57600080fd5b50565b6120ca81611f03565b81146120d557600080fd5b5056fea26469706673582212201a0d138c80f43be9ee24c5085c15b592a942bf1d9e138f2b4f5b323b05dca7f064736f6c63430008070033a2646970667358221220b65dbc03b3ed332d9827163222f04491b795c5de639070dbfd5455f0f244b04164736f6c63430008070033",
  "devdoc": {
    "kind": "dev",
    "methods": {},
    "version": 1
  },
  "userdoc": {
    "kind": "user",
    "methods": {},
    "version": 1
  },
  "storageLayout": {
    "storage": [
      {
        "astId": 626,
        "contract": "contracts/CrowdFunder.sol:CrowdFunder",
        "label": "walletToCauseOwned",
        "offset": 0,
        "slot": "0",
        "type": "t_mapping(t_address,t_address)"
      },
      {
        "astId": 630,
        "contract": "contracts/CrowdFunder.sol:CrowdFunder",
        "label": "hasCause",
        "offset": 0,
        "slot": "1",
        "type": "t_mapping(t_address,t_uint256)"
      },
      {
        "astId": 634,
        "contract": "contracts/CrowdFunder.sol:CrowdFunder",
        "label": "causeToId",
        "offset": 0,
        "slot": "2",
        "type": "t_mapping(t_address,t_uint256)"
      },
      {
        "astId": 638,
        "contract": "contracts/CrowdFunder.sol:CrowdFunder",
        "label": "s_nextCauseId",
        "offset": 0,
        "slot": "3",
        "type": "t_uint256"
      },
      {
        "astId": 642,
        "contract": "contracts/CrowdFunder.sol:CrowdFunder",
        "label": "s_causes",
        "offset": 0,
        "slot": "4",
        "type": "t_array(t_contract(Cause)617)dyn_storage"
      }
    ],
    "types": {
      "t_address": {
        "encoding": "inplace",
        "label": "address",
        "numberOfBytes": "20"
      },
      "t_array(t_contract(Cause)617)dyn_storage": {
        "base": "t_contract(Cause)617",
        "encoding": "dynamic_array",
        "label": "contract Cause[]",
        "numberOfBytes": "32"
      },
      "t_contract(Cause)617": {
        "encoding": "inplace",
        "label": "contract Cause",
        "numberOfBytes": "20"
      },
      "t_mapping(t_address,t_address)": {
        "encoding": "mapping",
        "key": "t_address",
        "label": "mapping(address => address)",
        "numberOfBytes": "32",
        "value": "t_address"
      },
      "t_mapping(t_address,t_uint256)": {
        "encoding": "mapping",
        "key": "t_address",
        "label": "mapping(address => uint256)",
        "numberOfBytes": "32",
        "value": "t_uint256"
      },
      "t_uint256": {
        "encoding": "inplace",
        "label": "uint256",
        "numberOfBytes": "32"
      }
    }
  }
}