{
  "address": "0x5FbDB2315678afecb367f032d93F642f64180aa3",
  "abi": [
    {
      "inputs": [
        {
          "internalType": "uint256",
          "name": "percentCut",
          "type": "uint256"
        }
      ],
      "stateMutability": "nonpayable",
      "type": "constructor"
    },
    {
      "inputs": [],
      "name": "CrowdFunder__ErrorWithdrawing",
      "type": "error"
    },
    {
      "inputs": [],
      "name": "CrowdFunder__OnlyOwnerCanCallThis",
      "type": "error"
    },
    {
      "inputs": [],
      "name": "CrowdFunder__ThisWalletAlreadyHasACause",
      "type": "error"
    },
    {
      "anonymous": false,
      "inputs": [
        {
          "indexed": true,
          "internalType": "address",
          "name": "causeAddress",
          "type": "address"
        }
      ],
      "name": "CauseCreated",
      "type": "event"
    },
    {
      "anonymous": false,
      "inputs": [
        {
          "indexed": true,
          "internalType": "uint256",
          "name": "amount",
          "type": "uint256"
        }
      ],
      "name": "DonationReceived",
      "type": "event"
    },
    {
      "anonymous": false,
      "inputs": [
        {
          "indexed": true,
          "internalType": "uint256",
          "name": "amount",
          "type": "uint256"
        }
      ],
      "name": "WithdrawalMade",
      "type": "event"
    },
    {
      "stateMutability": "payable",
      "type": "fallback"
    },
    {
      "inputs": [
        {
          "internalType": "address",
          "name": "",
          "type": "address"
        }
      ],
      "name": "causeToId",
      "outputs": [
        {
          "internalType": "uint256",
          "name": "",
          "type": "uint256"
        }
      ],
      "stateMutability": "view",
      "type": "function"
    },
    {
      "inputs": [
        {
          "internalType": "address",
          "name": "causeToCheck",
          "type": "address"
        }
      ],
      "name": "confirmCause",
      "outputs": [
        {
          "internalType": "bool",
          "name": "",
          "type": "bool"
        }
      ],
      "stateMutability": "view",
      "type": "function"
    },
    {
      "inputs": [
        {
          "internalType": "string",
          "name": "causeName",
          "type": "string"
        },
        {
          "internalType": "uint256",
          "name": "goal",
          "type": "uint256"
        }
      ],
      "name": "createCause",
      "outputs": [
        {
          "internalType": "address",
          "name": "",
          "type": "address"
        }
      ],
      "stateMutability": "nonpayable",
      "type": "function"
    },
    {
      "inputs": [
        {
          "internalType": "address",
          "name": "owner",
          "type": "address"
        }
      ],
      "name": "getCauseAddressByOwnerWallet",
      "outputs": [
        {
          "internalType": "address",
          "name": "",
          "type": "address"
        }
      ],
      "stateMutability": "view",
      "type": "function"
    },
    {
      "inputs": [
        {
          "internalType": "uint256",
          "name": "causeId",
          "type": "uint256"
        }
      ],
      "name": "getCauseById",
      "outputs": [
        {
          "internalType": "address",
          "name": "",
          "type": "address"
        }
      ],
      "stateMutability": "view",
      "type": "function"
    },
    {
      "inputs": [
        {
          "internalType": "address",
          "name": "causeAddress",
          "type": "address"
        }
      ],
      "name": "getCauseIdByCauseAddress",
      "outputs": [
        {
          "internalType": "uint256",
          "name": "",
          "type": "uint256"
        }
      ],
      "stateMutability": "view",
      "type": "function"
    },
    {
      "inputs": [
        {
          "internalType": "address",
          "name": "owner",
          "type": "address"
        }
      ],
      "name": "getCauseIdByOwnerAddress",
      "outputs": [
        {
          "internalType": "uint256",
          "name": "",
          "type": "uint256"
        }
      ],
      "stateMutability": "view",
      "type": "function"
    },
    {
      "inputs": [],
      "name": "getContractBalance",
      "outputs": [
        {
          "internalType": "uint256",
          "name": "",
          "type": "uint256"
        }
      ],
      "stateMutability": "view",
      "type": "function"
    },
    {
      "inputs": [],
      "name": "getContractOwner",
      "outputs": [
        {
          "internalType": "address",
          "name": "",
          "type": "address"
        }
      ],
      "stateMutability": "view",
      "type": "function"
    },
    {
      "inputs": [],
      "name": "getLatestCauseAddress",
      "outputs": [
        {
          "internalType": "address",
          "name": "",
          "type": "address"
        }
      ],
      "stateMutability": "view",
      "type": "function"
    },
    {
      "inputs": [],
      "name": "getLatestCauseId",
      "outputs": [
        {
          "internalType": "uint256",
          "name": "",
          "type": "uint256"
        }
      ],
      "stateMutability": "view",
      "type": "function"
    },
    {
      "inputs": [],
      "name": "getMyCauseId",
      "outputs": [
        {
          "internalType": "uint256",
          "name": "",
          "type": "uint256"
        }
      ],
      "stateMutability": "view",
      "type": "function"
    },
    {
      "inputs": [],
      "name": "getPercentCut",
      "outputs": [
        {
          "internalType": "uint256",
          "name": "",
          "type": "uint256"
        }
      ],
      "stateMutability": "view",
      "type": "function"
    },
    {
      "inputs": [
        {
          "internalType": "address",
          "name": "newOwner",
          "type": "address"
        }
      ],
      "name": "handover",
      "outputs": [],
      "stateMutability": "nonpayable",
      "type": "function"
    },
    {
      "inputs": [
        {
          "internalType": "address",
          "name": "",
          "type": "address"
        }
      ],
      "name": "hasCause",
      "outputs": [
        {
          "internalType": "uint256",
          "name": "",
          "type": "uint256"
        }
      ],
      "stateMutability": "view",
      "type": "function"
    },
    {
      "inputs": [],
      "name": "i_crowdFunderOwner",
      "outputs": [
        {
          "internalType": "address payable",
          "name": "",
          "type": "address"
        }
      ],
      "stateMutability": "view",
      "type": "function"
    },
    {
      "inputs": [],
      "name": "i_percentCut",
      "outputs": [
        {
          "internalType": "uint256",
          "name": "",
          "type": "uint256"
        }
      ],
      "stateMutability": "view",
      "type": "function"
    },
    {
      "inputs": [
        {
          "internalType": "uint256",
          "name": "causeId",
          "type": "uint256"
        }
      ],
      "name": "lock",
      "outputs": [],
      "stateMutability": "nonpayable",
      "type": "function"
    },
    {
      "inputs": [
        {
          "internalType": "uint256",
          "name": "",
          "type": "uint256"
        }
      ],
      "name": "s_causes",
      "outputs": [
        {
          "internalType": "contract Cause",
          "name": "",
          "type": "address"
        }
      ],
      "stateMutability": "view",
      "type": "function"
    },
    {
      "inputs": [],
      "name": "s_nextCauseId",
      "outputs": [
        {
          "internalType": "uint256",
          "name": "",
          "type": "uint256"
        }
      ],
      "stateMutability": "view",
      "type": "function"
    },
    {
      "inputs": [],
      "name": "sponsorSite",
      "outputs": [],
      "stateMutability": "payable",
      "type": "function"
    },
    {
      "inputs": [
        {
          "internalType": "uint256",
          "name": "causeId",
          "type": "uint256"
        }
      ],
      "name": "unlock",
      "outputs": [],
      "stateMutability": "nonpayable",
      "type": "function"
    },
    {
      "inputs": [
        {
          "internalType": "address",
          "name": "",
          "type": "address"
        }
      ],
      "name": "walletToCauseOwned",
      "outputs": [
        {
          "internalType": "address",
          "name": "",
          "type": "address"
        }
      ],
      "stateMutability": "view",
      "type": "function"
    },
    {
      "inputs": [],
      "name": "withdraw",
      "outputs": [],
      "stateMutability": "payable",
      "type": "function"
    },
    {
      "stateMutability": "payable",
      "type": "receive"
    }
  ],
  "transactionHash": "0x006fd5990c08cedb33f0362dd6629b612fcba9930c990801f621469bfa5df77e",
  "args": [
    "300"
  ],
  "numDeployments": 1,
  "solcInputHash": "247971505d4cc76583152abd6cb25a66",
  "bytecode": "0x60c06040523480156200001157600080fd5b50604051620046ce380380620046ce83398181016040528101906200003791906200009c565b3373ffffffffffffffffffffffffffffffffffffffff1660808173ffffffffffffffffffffffffffffffffffffffff1660601b815250508060a08181525050600160038190555050620000f7565b6000815190506200009681620000dd565b92915050565b600060208284031215620000b557620000b4620000d8565b5b6000620000c58482850162000085565b91505092915050565b6000819050919050565b600080fd5b620000e881620000ce565b8114620000f457600080fd5b50565b60805160601c60a0516145846200014a60003960008181610bc401528181610e680152610f0e0152600081816107de01528181610b9e01528181610c3301528181610dd1015261123e01526145846000f3fe6080604052600436106200016f5760003560e01c80636c7c3a5d11620000c7578063a9ccb0fe1162000079578063a9ccb0fe1462000583578063acc0014314620005c7578063dd46706414620005d3578063e812500b1462000601578063e8d95fec1462000645578063f824ec54146200068957620001a4565b80636c7c3a5d146200044f5780636f9fb98a146200047f578063785d9c0314620004af5780637f92ee9414620004df57806382016505146200050f578063930e4c8b146200053f57620001a4565b8063442890d51162000121578063442890d514620002f55780634a0cf0fb146200032557806351340f4f1462000355578063580ca24c14620003995780636198e33914620003dd57806364650eff146200040b57620001a4565b8063179171e214620001d357806330adbc74146200021757806337c1220614620002475780633c0d12c614620002775780633ccfd60b14620002bb5780633ff4d08314620002c757620001a4565b36620001a457347f9874a7967abbb8701e946ae29391c091f59962f042ba4b5d99b1ed7f2e2e3e5560405160405180910390a2005b347f9874a7967abbb8701e946ae29391c091f59962f042ba4b5d99b1ed7f2e2e3e5560405160405180910390a2005b348015620001e057600080fd5b50620001ff6004803603810190620001f99190620014dc565b620006cd565b6040516200020e919062001714565b60405180910390f35b3480156200022457600080fd5b506200022f6200071b565b6040516200023e919062001714565b60405180910390f35b3480156200025457600080fd5b506200025f62000721565b6040516200026e91906200163c565b60405180910390f35b3480156200028457600080fd5b50620002a360048036038101906200029d9190620014dc565b6200077f565b604051620002b2919062001676565b60405180910390f35b620002c5620007dc565b005b348015620002d457600080fd5b50620002f36004803603810190620002ed9190620014dc565b620008dc565b005b3480156200030257600080fd5b506200030d62000b9a565b6040516200031c91906200163c565b60405180910390f35b3480156200033257600080fd5b506200033d62000bc2565b6040516200034c919062001714565b60405180910390f35b3480156200036257600080fd5b506200038160048036038101906200037b9190620014dc565b62000be6565b6040516200039091906200163c565b60405180910390f35b348015620003a657600080fd5b50620003c56004803603810190620003bf9190620014dc565b62000c19565b604051620003d4919062001714565b60405180910390f35b348015620003ea57600080fd5b5062000409600480360381019062000403919062001574565b62000c31565b005b3480156200041857600080fd5b5062000437600480360381019062000431919062001574565b62000d71565b6040516200044691906200163c565b60405180910390f35b3480156200045c57600080fd5b506200046762000dcf565b60405162000476919062001659565b60405180910390f35b3480156200048c57600080fd5b506200049762000df3565b604051620004a6919062001714565b60405180910390f35b348015620004bc57600080fd5b50620004c762000dfb565b604051620004d6919062001714565b60405180910390f35b348015620004ec57600080fd5b50620004f762000e47565b60405162000506919062001714565b60405180910390f35b3480156200051c57600080fd5b506200052762000e64565b60405162000536919062001714565b60405180910390f35b3480156200054c57600080fd5b506200056b60048036038101906200056591906200150e565b62000e8c565b6040516200057a91906200163c565b60405180910390f35b3480156200059057600080fd5b50620005af6004803603810190620005a99190620014dc565b620011a0565b604051620005be91906200163c565b60405180910390f35b620005d16200120d565b005b348015620005e057600080fd5b50620005ff6004803603810190620005f9919062001574565b6200123c565b005b3480156200060e57600080fd5b506200062d600480360381019062000627919062001574565b6200137c565b6040516200063c919062001693565b60405180910390f35b3480156200065257600080fd5b506200067160048036038101906200066b9190620014dc565b620013bc565b60405162000680919062001714565b60405180910390f35b3480156200069657600080fd5b50620006b56004803603810190620006af9190620014dc565b6200140a565b604051620006c4919062001714565b60405180910390f35b600080600260008473ffffffffffffffffffffffffffffffffffffffff1673ffffffffffffffffffffffffffffffffffffffff16815260200190815260200160002054905080915050919050565b60035481565b6000806004600260035462000737919062001809565b815481106200074b576200074a62001988565b5b9060005260206000200160009054906101000a900473ffffffffffffffffffffffffffffffffffffffff1690508091505090565b600080600260008473ffffffffffffffffffffffffffffffffffffffff1673ffffffffffffffffffffffffffffffffffffffff1681526020019081526020016000205414620007d25760019050620007d7565b600090505b919050565b7f000000000000000000000000000000000000000000000000000000000000000073ffffffffffffffffffffffffffffffffffffffff163373ffffffffffffffffffffffffffffffffffffffff161462000862576040517f4f227fdb00000000000000000000000000000000000000000000000000000000815260040160405180910390fd5b600047905060003373ffffffffffffffffffffffffffffffffffffffff166108fc839081150290604051600060405180830381858888f19350505050905080620008d8576040517fb60ef3b700000000000000000000000000000000000000000000000000000000815260040160405180910390fd5b5050565b6000600160003373ffffffffffffffffffffffffffffffffffffffff1673ffffffffffffffffffffffffffffffffffffffff16815260200190815260200160002054141580156200096c57506000600160008373ffffffffffffffffffffffffffffffffffffffff1673ffffffffffffffffffffffffffffffffffffffff16815260200190815260200160002054145b6200097657600080fd5b600160003373ffffffffffffffffffffffffffffffffffffffff1673ffffffffffffffffffffffffffffffffffffffff16815260200190815260200160002054600160008373ffffffffffffffffffffffffffffffffffffffff1673ffffffffffffffffffffffffffffffffffffffff168152602001908152602001600020819055506000600160003373ffffffffffffffffffffffffffffffffffffffff1673ffffffffffffffffffffffffffffffffffffffff168152602001908152602001600020819055506000803373ffffffffffffffffffffffffffffffffffffffff1673ffffffffffffffffffffffffffffffffffffffff16815260200190815260200160002060009054906101000a900473ffffffffffffffffffffffffffffffffffffffff166000808373ffffffffffffffffffffffffffffffffffffffff1673ffffffffffffffffffffffffffffffffffffffff16815260200190815260200160002060006101000a81548173ffffffffffffffffffffffffffffffffffffffff021916908373ffffffffffffffffffffffffffffffffffffffff16021790555060008060003373ffffffffffffffffffffffffffffffffffffffff1673ffffffffffffffffffffffffffffffffffffffff16815260200190815260200160002060006101000a81548173ffffffffffffffffffffffffffffffffffffffff021916908373ffffffffffffffffffffffffffffffffffffffff16021790555050565b60007f0000000000000000000000000000000000000000000000000000000000000000905090565b7f000000000000000000000000000000000000000000000000000000000000000081565b60006020528060005260406000206000915054906101000a900473ffffffffffffffffffffffffffffffffffffffff1681565b60016020528060005260406000206000915090505481565b7f000000000000000000000000000000000000000000000000000000000000000073ffffffffffffffffffffffffffffffffffffffff163373ffffffffffffffffffffffffffffffffffffffff161462000cb7576040517f4f227fdb00000000000000000000000000000000000000000000000000000000815260040160405180910390fd5b6000600460018362000cca919062001809565b8154811062000cde5762000cdd62001988565b5b9060005260206000200160009054906101000a900473ffffffffffffffffffffffffffffffffffffffff1690508073ffffffffffffffffffffffffffffffffffffffff1663a69df4b56040518163ffffffff1660e01b8152600401600060405180830381600087803b15801562000d5457600080fd5b505af115801562000d69573d6000803e3d6000fd5b505050505050565b600080600460018462000d85919062001809565b8154811062000d995762000d9862001988565b5b9060005260206000200160009054906101000a900473ffffffffffffffffffffffffffffffffffffffff16905080915050919050565b7f000000000000000000000000000000000000000000000000000000000000000081565b600047905090565b600080600160003373ffffffffffffffffffffffffffffffffffffffff1673ffffffffffffffffffffffffffffffffffffffff1681526020019081526020016000205490508091505090565b600080600160035462000e5b919062001809565b90508091505090565b60007f0000000000000000000000000000000000000000000000000000000000000000905090565b600080600160003373ffffffffffffffffffffffffffffffffffffffff1673ffffffffffffffffffffffffffffffffffffffff168152602001908152602001600020541462000f07576040517f66a7ac8000000000000000000000000000000000000000000000000000000000815260040160405180910390fd5b60008383337f000000000000000000000000000000000000000000000000000000000000000060035460405162000f3e9062001422565b62000f4e959493929190620016b0565b604051809103906000f08015801562000f6b573d6000803e3d6000fd5b5090508073ffffffffffffffffffffffffffffffffffffffff1663a69df4b56040518163ffffffff1660e01b8152600401600060405180830381600087803b15801562000fb757600080fd5b505af115801562000fcc573d6000803e3d6000fd5b505050506004819080600181540180825580915050600190039060005260206000200160009091909190916101000a81548173ffffffffffffffffffffffffffffffffffffffff021916908373ffffffffffffffffffffffffffffffffffffffff160217905550806000803373ffffffffffffffffffffffffffffffffffffffff1673ffffffffffffffffffffffffffffffffffffffff16815260200190815260200160002060006101000a81548173ffffffffffffffffffffffffffffffffffffffff021916908373ffffffffffffffffffffffffffffffffffffffff160217905550600354600160003373ffffffffffffffffffffffffffffffffffffffff1673ffffffffffffffffffffffffffffffffffffffff16815260200190815260200160002081905550600354600260008373ffffffffffffffffffffffffffffffffffffffff1673ffffffffffffffffffffffffffffffffffffffff1681526020019081526020016000208190555060016003546200114d9190620017ac565b6003819055508073ffffffffffffffffffffffffffffffffffffffff167f8d41e52c133717d879952d81e8b37582cb51f582d4cb7850e2db6d012141a11c60405160405180910390a28091505092915050565b6000806000808473ffffffffffffffffffffffffffffffffffffffff1673ffffffffffffffffffffffffffffffffffffffff16815260200190815260200160002060009054906101000a900473ffffffffffffffffffffffffffffffffffffffff16905080915050919050565b347f9874a7967abbb8701e946ae29391c091f59962f042ba4b5d99b1ed7f2e2e3e5560405160405180910390a2565b7f000000000000000000000000000000000000000000000000000000000000000073ffffffffffffffffffffffffffffffffffffffff163373ffffffffffffffffffffffffffffffffffffffff1614620012c2576040517f4f227fdb00000000000000000000000000000000000000000000000000000000815260040160405180910390fd5b60006004600183620012d5919062001809565b81548110620012e957620012e862001988565b5b9060005260206000200160009054906101000a900473ffffffffffffffffffffffffffffffffffffffff1690508073ffffffffffffffffffffffffffffffffffffffff1663f83d08ba6040518163ffffffff1660e01b8152600401600060405180830381600087803b1580156200135f57600080fd5b505af115801562001374573d6000803e3d6000fd5b505050505050565b600481815481106200138d57600080fd5b906000526020600020016000915054906101000a900473ffffffffffffffffffffffffffffffffffffffff1681565b600080600160008473ffffffffffffffffffffffffffffffffffffffff1673ffffffffffffffffffffffffffffffffffffffff16815260200190815260200160002054905080915050919050565b60026020528060005260406000206000915090505481565b612b0f8062001a4083390190565b60006200144762001441846200175a565b62001731565b905082815260208101848484011115620014665762001465620019eb565b5b62001473848285620018de565b509392505050565b6000813590506200148c8162001a0b565b92915050565b600082601f830112620014aa57620014a9620019e6565b5b8135620014bc84826020860162001430565b91505092915050565b600081359050620014d68162001a25565b92915050565b600060208284031215620014f557620014f4620019f5565b5b600062001505848285016200147b565b91505092915050565b60008060408385031215620015285762001527620019f5565b5b600083013567ffffffffffffffff811115620015495762001548620019f0565b5b620015578582860162001492565b92505060206200156a85828601620014c5565b9150509250929050565b6000602082840312156200158d576200158c620019f5565b5b60006200159d84828501620014c5565b91505092915050565b620015b18162001858565b82525050565b620015c28162001844565b82525050565b620015d3816200186c565b82525050565b620015e481620018a2565b82525050565b6000620015f78262001790565b6200160381856200179b565b935062001615818560208601620018ed565b6200162081620019fa565b840191505092915050565b620016368162001898565b82525050565b6000602082019050620016536000830184620015b7565b92915050565b6000602082019050620016706000830184620015a6565b92915050565b60006020820190506200168d6000830184620015c8565b92915050565b6000602082019050620016aa6000830184620015d9565b92915050565b600060a0820190508181036000830152620016cc8188620015ea565b9050620016dd60208301876200162b565b620016ec6040830186620015a6565b620016fb60608301856200162b565b6200170a60808301846200162b565b9695505050505050565b60006020820190506200172b60008301846200162b565b92915050565b60006200173d62001750565b90506200174b828262001923565b919050565b6000604051905090565b600067ffffffffffffffff821115620017785762001777620019b7565b5b6200178382620019fa565b9050602081019050919050565b600081519050919050565b600082825260208201905092915050565b6000620017b98262001898565b9150620017c68362001898565b9250827fffffffffffffffffffffffffffffffffffffffffffffffffffffffffffffffff03821115620017fe57620017fd62001959565b5b828201905092915050565b6000620018168262001898565b9150620018238362001898565b92508282101562001839576200183862001959565b5b828203905092915050565b6000620018518262001878565b9050919050565b6000620018658262001878565b9050919050565b60008115159050919050565b600073ffffffffffffffffffffffffffffffffffffffff82169050919050565b6000819050919050565b6000620018af82620018b6565b9050919050565b6000620018c382620018ca565b9050919050565b6000620018d78262001878565b9050919050565b82818337600083830152505050565b60005b838110156200190d578082015181840152602081019050620018f0565b838111156200191d576000848401525b50505050565b6200192e82620019fa565b810181811067ffffffffffffffff8211171562001950576200194f620019b7565b5b80604052505050565b7f4e487b7100000000000000000000000000000000000000000000000000000000600052601160045260246000fd5b7f4e487b7100000000000000000000000000000000000000000000000000000000600052603260045260246000fd5b7f4e487b7100000000000000000000000000000000000000000000000000000000600052604160045260246000fd5b600080fd5b600080fd5b600080fd5b600080fd5b6000601f19601f8301169050919050565b62001a168162001844565b811462001a2257600080fd5b50565b62001a308162001898565b811462001a3c57600080fd5b5056fe60e06040523480156200001157600080fd5b5060405162002b0f38038062002b0f83398181016040528101906200003791906200028e565b33600360006101000a81548173ffffffffffffffffffffffffffffffffffffffff021916908373ffffffffffffffffffffffffffffffffffffffff16021790555084600490805190602001906200009092919062000132565b5082600260046101000a81548173ffffffffffffffffffffffffffffffffffffffff021916908373ffffffffffffffffffffffffffffffffffffffff16021790555083608081815250506001600260016101000a81548160ff0219169083151502179055508160a081815250508060c0818152505060016002806101000a81548160ff021916908315150217905550600060018190555050505050506200052b565b828054620001409062000408565b90600052602060002090601f016020900481019282620001645760008555620001b0565b82601f106200017f57805160ff1916838001178555620001b0565b82800160010185558215620001b0579182015b82811115620001af57825182559160200191906001019062000192565b5b509050620001bf9190620001c3565b5090565b5b80821115620001de576000816000905550600101620001c4565b5090565b6000620001f9620001f3846200035e565b62000335565b905082815260208101848484011115620002185762000217620004d7565b5b62000225848285620003d2565b509392505050565b6000815190506200023e81620004f7565b92915050565b600082601f8301126200025c576200025b620004d2565b5b81516200026e848260208601620001e2565b91505092915050565b600081519050620002888162000511565b92915050565b600080600080600060a08688031215620002ad57620002ac620004e1565b5b600086015167ffffffffffffffff811115620002ce57620002cd620004dc565b5b620002dc8882890162000244565b9550506020620002ef8882890162000277565b945050604062000302888289016200022d565b9350506060620003158882890162000277565b9250506080620003288882890162000277565b9150509295509295909350565b60006200034162000354565b90506200034f82826200043e565b919050565b6000604051905090565b600067ffffffffffffffff8211156200037c576200037b620004a3565b5b6200038782620004e6565b9050602081019050919050565b6000620003a182620003a8565b9050919050565b600073ffffffffffffffffffffffffffffffffffffffff82169050919050565b6000819050919050565b60005b83811015620003f2578082015181840152602081019050620003d5565b8381111562000402576000848401525b50505050565b600060028204905060018216806200042157607f821691505b6020821081141562000438576200043762000474565b5b50919050565b6200044982620004e6565b810181811067ffffffffffffffff821117156200046b576200046a620004a3565b5b80604052505050565b7f4e487b7100000000000000000000000000000000000000000000000000000000600052602260045260246000fd5b7f4e487b7100000000000000000000000000000000000000000000000000000000600052604160045260246000fd5b600080fd5b600080fd5b600080fd5b600080fd5b6000601f19601f8301169050919050565b620005028162000394565b81146200050e57600080fd5b50565b6200051c81620003c8565b81146200052857600080fd5b50565b60805160a05160c051612598620005776000396000610abc015260008181610ed701526111610152600081816109b701528181611298015281816113fc015261170b01526125986000f3fe6080604052600436106102135760003560e01c80636c2f272a11610118578063c622bb20116100a0578063dad7003a1161006f578063dad7003a14610725578063dfcf7a8c14610750578063ed88c68e1461077b578063f03232a314610785578063f83d08ba146107b057610222565b8063c622bb20146106b0578063ca973f07146106db578063d4f2a4d5146106e5578063d9d25813146106fc57610222565b8063a67e30cb116100e7578063a67e30cb146105ed578063a69df4b514610618578063af1aa9f91461062f578063b97a7d241461065a578063c38804a51461068557610222565b80636c2f272a1461052f578063748ce70a1461055a578063787e32571461058557806380e1204f146105b057610222565b8063365fd9821161019b578063443910e01161016a578063443910e0146104585780634a0cf0fb14610483578063583b1896146104ae5780635edd2267146104d9578063643b28701461050457610222565b8063365fd982146103c057806339722fab146103eb57806339d7e8a4146104165780633ccfd60b1461044157610222565b806327ad7a5d116101e257806327ad7a5d146102eb5780632af4c31e146103165780632d3297b61461033f5780632e6626e71461036a578063306addc41461039557610222565b80630238cbdc1461022c5780630294d0111461026a578063092dcb4c146102955780630cfc2fc5146102c057610222565b36610222576102206107c7565b005b61022a6107c7565b005b34801561023857600080fd5b50610253600480360381019061024e9190611e27565b610a66565b604051610261929190612027565b60405180910390f35b34801561027657600080fd5b5061027f610aba565b60405161028c91906120fa565b60405180910390f35b3480156102a157600080fd5b506102aa610ade565b6040516102b7919061209b565b60405180910390f35b3480156102cc57600080fd5b506102d5610af5565b6040516102e2919061209b565b60405180910390f35b3480156102f757600080fd5b50610300610b08565b60405161030d919061209b565b60405180910390f35b34801561032257600080fd5b5061033d60048036038101906103389190611db1565b610b1f565b005b34801561034b57600080fd5b50610354610c72565b60405161036191906120fa565b60405180910390f35b34801561037657600080fd5b5061037f610c7b565b60405161038c91906120b6565b60405180910390f35b3480156103a157600080fd5b506103aa610d0d565b6040516103b791906120b6565b60405180910390f35b3480156103cc57600080fd5b506103d5610d9b565b6040516103e291906120fa565b60405180910390f35b3480156103f757600080fd5b50610400610de7565b60405161040d91906120fa565b60405180910390f35b34801561042257600080fd5b5061042b610df9565b60405161043891906120fa565b60405180910390f35b34801561044d57600080fd5b50610456610dff565b005b34801561046457600080fd5b5061046d6110a0565b60405161047a9190612079565b60405180910390f35b34801561048f57600080fd5b5061049861115f565b6040516104a591906120fa565b60405180910390f35b3480156104ba57600080fd5b506104c3611183565b6040516104d0919061209b565b60405180910390f35b3480156104e557600080fd5b506104ee611198565b6040516104fb91906120b6565b60405180910390f35b34801561051057600080fd5b50610519611226565b604051610526919061200c565b60405180910390f35b34801561053b57600080fd5b5061054461124c565b60405161055191906120fa565b60405180910390f35b34801561056657600080fd5b5061056f611256565b60405161057c919061209b565b60405180910390f35b34801561059157600080fd5b5061059a61126d565b6040516105a7919061209b565b60405180910390f35b3480156105bc57600080fd5b506105d760048036038101906105d29190611d84565b61127e565b6040516105e491906120fa565b60405180910390f35b3480156105f957600080fd5b50610602611296565b60405161060f91906120fa565b60405180910390f35b34801561062457600080fd5b5061062d6112ba565b005b34801561063b57600080fd5b506106446113e5565b604051610651919061209b565b60405180910390f35b34801561066657600080fd5b5061066f6113f8565b60405161067c91906120fa565b60405180910390f35b34801561069157600080fd5b5061069a611420565b6040516106a7919061200c565b60405180910390f35b3480156106bc57600080fd5b506106c5611446565b6040516106d2919061200c565b60405180910390f35b6106e3611470565b005b3480156106f157600080fd5b506106fa6117d6565b005b34801561070857600080fd5b50610723600480360381019061071e9190611dde565b61193d565b005b34801561073157600080fd5b5061073a611a5b565b60405161074791906120fa565b60405180910390f35b34801561075c57600080fd5b50610765611a61565b604051610772919061209b565b60405180910390f35b6107836107c7565b005b34801561079157600080fd5b5061079a611a74565b6040516107a791906120b6565b60405180910390f35b3480156107bc57600080fd5b506107c5611b06565b005b600260009054906101000a900460ff161561080e576040517f7d6ebcc700000000000000000000000000000000000000000000000000000000815260040160405180910390fd5b600260019054906101000a900460ff16610854576040517f9f6f715500000000000000000000000000000000000000000000000000000000815260040160405180910390fd5b60028054906101000a900460ff1615610899576040517fbabe63b900000000000000000000000000000000000000000000000000000000815260040160405180910390fd5b346000808282546108aa91906121d5565b92505081905550600060405180604001604052803373ffffffffffffffffffffffffffffffffffffffff168152602001348152509050600781908060018154018082558091505060019003906000526020600020906002020160009091909190915060008201518160000160006101000a81548173ffffffffffffffffffffffffffffffffffffffff021916908373ffffffffffffffffffffffffffffffffffffffff16021790555060208201518160010155505034600660003373ffffffffffffffffffffffffffffffffffffffff1673ffffffffffffffffffffffffffffffffffffffff16815260200190815260200160002060008282546109ae91906121d5565b925050819055507f000000000000000000000000000000000000000000000000000000000000000060005410610a15576001600260006101000a81548160ff0219169083151502179055506000600260016101000a81548160ff0219169083151502179055505b3373ffffffffffffffffffffffffffffffffffffffff167faa13962bc79c7a0bc42cb8169b1705f0a6b55cc404ffb8a589d771ca7867597834604051610a5b91906120fa565b60405180910390a250565b60078181548110610a7657600080fd5b90600052602060002090600202016000915090508060000160009054906101000a900473ffffffffffffffffffffffffffffffffffffffff16908060010154905082565b7f000000000000000000000000000000000000000000000000000000000000000081565b6000600260009054906101000a900460ff16905090565b600260039054906101000a900460ff1681565b6000600260039054906101000a900460ff16905090565b600260049054906101000a900473ffffffffffffffffffffffffffffffffffffffff1673ffffffffffffffffffffffffffffffffffffffff163373ffffffffffffffffffffffffffffffffffffffff1614610ba6576040517f18f09efd00000000000000000000000000000000000000000000000000000000815260040160405180910390fd5b60028054906101000a900460ff1615610beb576040517fbabe63b900000000000000000000000000000000000000000000000000000000815260040160405180910390fd5b80600260046101000a81548173ffffffffffffffffffffffffffffffffffffffff021916908373ffffffffffffffffffffffffffffffffffffffff1602179055508073ffffffffffffffffffffffffffffffffffffffff167f595ee9ffef04d4d652b768860c56905a48f5ab79124bb3b2279df1885536991d60405160405180910390a250565b60008054905090565b606060058054610c8a90612390565b80601f0160208091040260200160405190810160405280929190818152602001828054610cb690612390565b8015610d035780601f10610cd857610100808354040283529160200191610d03565b820191906000526020600020905b815481529060010190602001808311610ce657829003601f168201915b5050505050905090565b60058054610d1a90612390565b80601f0160208091040260200160405190810160405280929190818152602001828054610d4690612390565b8015610d935780601f10610d6857610100808354040283529160200191610d93565b820191906000526020600020905b815481529060010190602001808311610d7657829003601f168201915b505050505081565b600080600660003373ffffffffffffffffffffffffffffffffffffffff1673ffffffffffffffffffffffffffffffffffffffff1681526020019081526020016000205490508091505090565b60008060078054905090508091505090565b60005481565b600260049054906101000a900473ffffffffffffffffffffffffffffffffffffffff1673ffffffffffffffffffffffffffffffffffffffff163373ffffffffffffffffffffffffffffffffffffffff1614610e86576040517f18f09efd00000000000000000000000000000000000000000000000000000000815260040160405180910390fd5b60028054906101000a900460ff1615610ecb576040517fbabe63b900000000000000000000000000000000000000000000000000000000815260040160405180910390fd5b600047905060006127107f000000000000000000000000000000000000000000000000000000000000000083610f01919061225c565b610f0b919061222b565b90506000600360009054906101000a900473ffffffffffffffffffffffffffffffffffffffff1673ffffffffffffffffffffffffffffffffffffffff166108fc839081150290604051600060405180830381858888f19350505050905080610f9f576040517f7824242700000000000000000000000000000000000000000000000000000000815260040160405180910390fd5b60003373ffffffffffffffffffffffffffffffffffffffff166108fc479081150290604051600060405180830381858888f1935050505090508061100f576040517f7824242700000000000000000000000000000000000000000000000000000000815260040160405180910390fd5b6000600260016101000a81548160ff021916908315150217905550600080819055506001600260036101000a81548160ff0219169083151502179055503373ffffffffffffffffffffffffffffffffffffffff167fbc158bb64f05d6383aea69bbb0b20c1bbf4b7a18f63359c5649b7c39e29d38848560405161109291906120fa565b60405180910390a250505050565b60606007805480602002602001604051908101604052809291908181526020016000905b8282101561115657838290600052602060002090600202016040518060400160405290816000820160009054906101000a900473ffffffffffffffffffffffffffffffffffffffff1673ffffffffffffffffffffffffffffffffffffffff1673ffffffffffffffffffffffffffffffffffffffff168152602001600182015481525050815260200190600101906110c4565b50505050905090565b7f000000000000000000000000000000000000000000000000000000000000000081565b600060028054906101000a900460ff16905090565b600480546111a590612390565b80601f01602080910402602001604051908101604052809291908181526020018280546111d190612390565b801561121e5780601f106111f35761010080835404028352916020019161121e565b820191906000526020600020905b81548152906001019060200180831161120157829003601f168201915b505050505081565b600260049054906101000a900473ffffffffffffffffffffffffffffffffffffffff1681565b6000600154905090565b6000600260019054906101000a900460ff16905090565b60028054906101000a900460ff1681565b60066020528060005260406000206000915090505481565b7f000000000000000000000000000000000000000000000000000000000000000081565b600360009054906101000a900473ffffffffffffffffffffffffffffffffffffffff1673ffffffffffffffffffffffffffffffffffffffff163373ffffffffffffffffffffffffffffffffffffffff1614611341576040517f33e2a8ec00000000000000000000000000000000000000000000000000000000815260040160405180910390fd5b60028054906101000a900460ff16611385576040517f9b6b472200000000000000000000000000000000000000000000000000000000815260040160405180910390fd5b60006002806101000a81548160ff0219169083151502179055507fda3943f07eff121b37cf91d4288e4e85a5078bee9b6e9159a955bedb9683694860028054906101000a900460ff166040516113db919061209b565b60405180910390a1565b600260009054906101000a900460ff1681565b60007f0000000000000000000000000000000000000000000000000000000000000000905090565b600360009054906101000a900473ffffffffffffffffffffffffffffffffffffffff1681565b6000600260049054906101000a900473ffffffffffffffffffffffffffffffffffffffff16905090565b600260039054906101000a900460ff16156114b7576040517fbdf238b400000000000000000000000000000000000000000000000000000000815260040160405180910390fd5b6000600660003373ffffffffffffffffffffffffffffffffffffffff1673ffffffffffffffffffffffffffffffffffffffff168152602001908152602001600020541415611531576040517f203c9ab100000000000000000000000000000000000000000000000000000000815260040160405180910390fd5b6000600660003373ffffffffffffffffffffffffffffffffffffffff1673ffffffffffffffffffffffffffffffffffffffff1681526020019081526020016000205490506000600660003373ffffffffffffffffffffffffffffffffffffffff1673ffffffffffffffffffffffffffffffffffffffff1681526020019081526020016000208190555060003373ffffffffffffffffffffffffffffffffffffffff166108fc839081150290604051600060405180830381858888f1935050505090508061162a576040517f7824242700000000000000000000000000000000000000000000000000000000815260040160405180910390fd5b600060405180604001604052803373ffffffffffffffffffffffffffffffffffffffff1681526020018461165d906123f3565b8152509050600781908060018154018082558091505060019003906000526020600020906002020160009091909190915060008201518160000160006101000a81548173ffffffffffffffffffffffffffffffffffffffff021916908373ffffffffffffffffffffffffffffffffffffffff160217905550602082015181600101555050600180546116ef91906121d5565b6001819055508260005461170391906122b6565b6000819055507f00000000000000000000000000000000000000000000000000000000000000006000541015611798576000600260006101000a81548160ff021916908315150217905550600260039054906101000a900460ff16158015611776575060028054906101000a900460ff16155b15611797576001600260016101000a81548160ff0219169083151502179055505b5b7fd7dee2702d63ad89917b6a4da9981c90c4d24f8c2bdfd64c604ecae57d8d065133846040516117c9929190612050565b60405180910390a1505050565b600260049054906101000a900473ffffffffffffffffffffffffffffffffffffffff1673ffffffffffffffffffffffffffffffffffffffff163373ffffffffffffffffffffffffffffffffffffffff161461185d576040517f18f09efd00000000000000000000000000000000000000000000000000000000815260040160405180910390fd5b600260019054906101000a900460ff1615611892576000600260016101000a81548160ff0219169083151502179055506118f5565b600260039054906101000a900460ff16156118d9576040517fb5608ae600000000000000000000000000000000000000000000000000000000815260040160405180910390fd5b6001600260016101000a81548160ff0219169083151502179055505b7f6f5be26fb94646fadcdf16147ddd35138ad497ce000f92f12eadbaa19497c533600260019054906101000a900460ff16604051611933919061209b565b60405180910390a1565b600260049054906101000a900473ffffffffffffffffffffffffffffffffffffffff1673ffffffffffffffffffffffffffffffffffffffff163373ffffffffffffffffffffffffffffffffffffffff16146119c4576040517f18f09efd00000000000000000000000000000000000000000000000000000000815260040160405180910390fd5b60028054906101000a900460ff1615611a09576040517fbabe63b900000000000000000000000000000000000000000000000000000000815260040160405180910390fd5b8060059080519060200190611a1f929190611c32565b507f0c9c2f86218c506a4f5a61d8550880041379a6c31155086325a859e19bfeaaf86005604051611a5091906120d8565b60405180910390a150565b60015481565b600260019054906101000a900460ff1681565b606060048054611a8390612390565b80601f0160208091040260200160405190810160405280929190818152602001828054611aaf90612390565b8015611afc5780601f10611ad157610100808354040283529160200191611afc565b820191906000526020600020905b815481529060010190602001808311611adf57829003601f168201915b5050505050905090565b600360009054906101000a900473ffffffffffffffffffffffffffffffffffffffff1673ffffffffffffffffffffffffffffffffffffffff163373ffffffffffffffffffffffffffffffffffffffff1614611b8d576040517f33e2a8ec00000000000000000000000000000000000000000000000000000000815260040160405180910390fd5b60028054906101000a900460ff1615611bd2576040517fe1c205bf00000000000000000000000000000000000000000000000000000000815260040160405180910390fd5b60016002806101000a81548160ff0219169083151502179055507fc20b8fc722655092cdbc0c19a12ad36bbf5f5e7da7c30409ecefea3880d8e8cc60028054906101000a900460ff16604051611c28919061209b565b60405180910390a1565b828054611c3e90612390565b90600052602060002090601f016020900481019282611c605760008555611ca7565b82601f10611c7957805160ff1916838001178555611ca7565b82800160010185558215611ca7579182015b82811115611ca6578251825591602001919060010190611c8b565b5b509050611cb49190611cb8565b5090565b5b80821115611cd1576000816000905550600101611cb9565b5090565b6000611ce8611ce38461213a565b612115565b905082815260208101848484011115611d0457611d036124fd565b5b611d0f84828561234e565b509392505050565b600081359050611d268161251d565b92915050565b600081359050611d3b81612534565b92915050565b600082601f830112611d5657611d556124f8565b5b8135611d66848260208601611cd5565b91505092915050565b600081359050611d7e8161254b565b92915050565b600060208284031215611d9a57611d99612507565b5b6000611da884828501611d17565b91505092915050565b600060208284031215611dc757611dc6612507565b5b6000611dd584828501611d2c565b91505092915050565b600060208284031215611df457611df3612507565b5b600082013567ffffffffffffffff811115611e1257611e11612502565b5b611e1e84828501611d41565b91505092915050565b600060208284031215611e3d57611e3c612507565b5b6000611e4b84828501611d6f565b91505092915050565b6000611e608383611fce565b60408301905092915050565b611e75816122ea565b82525050565b611e84816122ea565b82525050565b6000611e9582612190565b611e9f81856121b3565b9350611eaa8361216b565b8060005b83811015611edb578151611ec28882611e54565b9750611ecd836121a6565b925050600181019050611eae565b5085935050505092915050565b611ef18161230e565b82525050565b611f008161231a565b82525050565b611f0f8161231a565b82525050565b6000611f208261219b565b611f2a81856121c4565b9350611f3a81856020860161235d565b611f438161250c565b840191505092915050565b60008154611f5b81612390565b611f6581866121c4565b94506001821660008114611f805760018114611f9257611fc5565b60ff1983168652602086019350611fc5565b611f9b8561217b565b60005b83811015611fbd57815481890152600182019150602081019050611f9e565b808801955050505b50505092915050565b604082016000820151611fe46000850182611e6c565b506020820151611ff76020850182611ef7565b50505050565b61200681612344565b82525050565b60006020820190506120216000830184611e7b565b92915050565b600060408201905061203c6000830185611e7b565b6120496020830184611f06565b9392505050565b60006040820190506120656000830185611e7b565b6120726020830184611ffd565b9392505050565b600060208201905081810360008301526120938184611e8a565b905092915050565b60006020820190506120b06000830184611ee8565b92915050565b600060208201905081810360008301526120d08184611f15565b905092915050565b600060208201905081810360008301526120f28184611f4e565b905092915050565b600060208201905061210f6000830184611ffd565b92915050565b600061211f612130565b905061212b82826123c2565b919050565b6000604051905090565b600067ffffffffffffffff821115612155576121546124c9565b5b61215e8261250c565b9050602081019050919050565b6000819050602082019050919050565b60008190508160005260206000209050919050565b600081519050919050565b600081519050919050565b6000602082019050919050565b600082825260208201905092915050565b600082825260208201905092915050565b60006121e082612344565b91506121eb83612344565b9250827fffffffffffffffffffffffffffffffffffffffffffffffffffffffffffffffff038211156122205761221f61243c565b5b828201905092915050565b600061223682612344565b915061224183612344565b9250826122515761225061246b565b5b828204905092915050565b600061226782612344565b915061227283612344565b9250817fffffffffffffffffffffffffffffffffffffffffffffffffffffffffffffffff04831182151516156122ab576122aa61243c565b5b828202905092915050565b60006122c182612344565b91506122cc83612344565b9250828210156122df576122de61243c565b5b828203905092915050565b60006122f582612324565b9050919050565b600061230782612324565b9050919050565b60008115159050919050565b6000819050919050565b600073ffffffffffffffffffffffffffffffffffffffff82169050919050565b6000819050919050565b82818337600083830152505050565b60005b8381101561237b578082015181840152602081019050612360565b8381111561238a576000848401525b50505050565b600060028204905060018216806123a857607f821691505b602082108114156123bc576123bb61249a565b5b50919050565b6123cb8261250c565b810181811067ffffffffffffffff821117156123ea576123e96124c9565b5b80604052505050565b60006123fe8261231a565b91507f80000000000000000000000000000000000000000000000000000000000000008214156124315761243061243c565b5b816000039050919050565b7f4e487b7100000000000000000000000000000000000000000000000000000000600052601160045260246000fd5b7f4e487b7100000000000000000000000000000000000000000000000000000000600052601260045260246000fd5b7f4e487b7100000000000000000000000000000000000000000000000000000000600052602260045260246000fd5b7f4e487b7100000000000000000000000000000000000000000000000000000000600052604160045260246000fd5b600080fd5b600080fd5b600080fd5b600080fd5b6000601f19601f8301169050919050565b612526816122ea565b811461253157600080fd5b50565b61253d816122fc565b811461254857600080fd5b50565b61255481612344565b811461255f57600080fd5b5056fea26469706673582212207dca54bfe4d7b6fa26d84dc381eec7884b78079cefbcafbc210fd7566e6a4d3c64736f6c63430008070033a2646970667358221220aade340f2c4fb552ee130412d2dcfe43bd016d19d0b69a5566bfdba001476d7a64736f6c63430008070033",
  "devdoc": {
    "kind": "dev",
    "methods": {},
    "version": 1
  },
  "userdoc": {
    "kind": "user",
    "methods": {},
    "version": 1
  },
  "storageLayout": {
    "storage": [
      {
        "astId": 706,
        "contract": "contracts/CrowdFunder.sol:CrowdFunder",
        "label": "walletToCauseOwned",
        "offset": 0,
        "slot": "0",
        "type": "t_mapping(t_address,t_address)"
      },
      {
        "astId": 710,
        "contract": "contracts/CrowdFunder.sol:CrowdFunder",
        "label": "hasCause",
        "offset": 0,
        "slot": "1",
        "type": "t_mapping(t_address,t_uint256)"
      },
      {
        "astId": 714,
        "contract": "contracts/CrowdFunder.sol:CrowdFunder",
        "label": "causeToId",
        "offset": 0,
        "slot": "2",
        "type": "t_mapping(t_address,t_uint256)"
      },
      {
        "astId": 718,
        "contract": "contracts/CrowdFunder.sol:CrowdFunder",
        "label": "s_nextCauseId",
        "offset": 0,
        "slot": "3",
        "type": "t_uint256"
      },
      {
        "astId": 722,
        "contract": "contracts/CrowdFunder.sol:CrowdFunder",
        "label": "s_causes",
        "offset": 0,
        "slot": "4",
        "type": "t_array(t_contract(Cause)697)dyn_storage"
      }
    ],
    "types": {
      "t_address": {
        "encoding": "inplace",
        "label": "address",
        "numberOfBytes": "20"
      },
      "t_array(t_contract(Cause)697)dyn_storage": {
        "base": "t_contract(Cause)697",
        "encoding": "dynamic_array",
        "label": "contract Cause[]",
        "numberOfBytes": "32"
      },
      "t_contract(Cause)697": {
        "encoding": "inplace",
        "label": "contract Cause",
        "numberOfBytes": "20"
      },
      "t_mapping(t_address,t_address)": {
        "encoding": "mapping",
        "key": "t_address",
        "label": "mapping(address => address)",
        "numberOfBytes": "32",
        "value": "t_address"
      },
      "t_mapping(t_address,t_uint256)": {
        "encoding": "mapping",
        "key": "t_address",
        "label": "mapping(address => uint256)",
        "numberOfBytes": "32",
        "value": "t_uint256"
      },
      "t_uint256": {
        "encoding": "inplace",
        "label": "uint256",
        "numberOfBytes": "32"
      }
    }
  }
}