{
  "address": "0x5FbDB2315678afecb367f032d93F642f64180aa3",
  "abi": [
    {
      "inputs": [
        {
          "internalType": "uint256",
          "name": "percentCut",
          "type": "uint256"
        }
      ],
      "stateMutability": "nonpayable",
      "type": "constructor"
    },
    {
      "inputs": [],
      "name": "CrowdFunder__ErrorWithdrawing",
      "type": "error"
    },
    {
      "inputs": [],
      "name": "CrowdFunder__OnlyOwnerCanCallThis",
      "type": "error"
    },
    {
      "inputs": [],
      "name": "CrowdFunder__ThisWalletAlreadyHasACause",
      "type": "error"
    },
    {
      "anonymous": false,
      "inputs": [
        {
          "indexed": true,
          "internalType": "address",
          "name": "causeAddress",
          "type": "address"
        }
      ],
      "name": "CauseCreated",
      "type": "event"
    },
    {
      "anonymous": false,
      "inputs": [
        {
          "indexed": true,
          "internalType": "uint256",
          "name": "amount",
          "type": "uint256"
        }
      ],
      "name": "DonationReceived",
      "type": "event"
    },
    {
      "anonymous": false,
      "inputs": [
        {
          "indexed": true,
          "internalType": "uint256",
          "name": "amount",
          "type": "uint256"
        }
      ],
      "name": "WithdrawalMade",
      "type": "event"
    },
    {
      "stateMutability": "payable",
      "type": "fallback"
    },
    {
      "inputs": [
        {
          "internalType": "address",
          "name": "",
          "type": "address"
        }
      ],
      "name": "causeToId",
      "outputs": [
        {
          "internalType": "uint256",
          "name": "",
          "type": "uint256"
        }
      ],
      "stateMutability": "view",
      "type": "function"
    },
    {
      "inputs": [
        {
          "internalType": "address",
          "name": "causeToCheck",
          "type": "address"
        }
      ],
      "name": "confirmCause",
      "outputs": [
        {
          "internalType": "bool",
          "name": "",
          "type": "bool"
        }
      ],
      "stateMutability": "view",
      "type": "function"
    },
    {
      "inputs": [
        {
          "internalType": "string",
          "name": "causeName",
          "type": "string"
        },
        {
          "internalType": "uint256",
          "name": "goal",
          "type": "uint256"
        }
      ],
      "name": "createCause",
      "outputs": [
        {
          "internalType": "address",
          "name": "",
          "type": "address"
        }
      ],
      "stateMutability": "nonpayable",
      "type": "function"
    },
    {
      "inputs": [
        {
          "internalType": "address",
          "name": "owner",
          "type": "address"
        }
      ],
      "name": "getCauseAddressByOwnerWallet",
      "outputs": [
        {
          "internalType": "address",
          "name": "",
          "type": "address"
        }
      ],
      "stateMutability": "view",
      "type": "function"
    },
    {
      "inputs": [
        {
          "internalType": "uint256",
          "name": "causeId",
          "type": "uint256"
        }
      ],
      "name": "getCauseById",
      "outputs": [
        {
          "internalType": "address",
          "name": "",
          "type": "address"
        }
      ],
      "stateMutability": "view",
      "type": "function"
    },
    {
      "inputs": [
        {
          "internalType": "address",
          "name": "causeAddress",
          "type": "address"
        }
      ],
      "name": "getCauseIdByCauseAddress",
      "outputs": [
        {
          "internalType": "uint256",
          "name": "",
          "type": "uint256"
        }
      ],
      "stateMutability": "view",
      "type": "function"
    },
    {
      "inputs": [
        {
          "internalType": "address",
          "name": "owner",
          "type": "address"
        }
      ],
      "name": "getCauseIdByOwnerAddress",
      "outputs": [
        {
          "internalType": "uint256",
          "name": "",
          "type": "uint256"
        }
      ],
      "stateMutability": "view",
      "type": "function"
    },
    {
      "inputs": [],
      "name": "getContractBalance",
      "outputs": [
        {
          "internalType": "uint256",
          "name": "",
          "type": "uint256"
        }
      ],
      "stateMutability": "view",
      "type": "function"
    },
    {
      "inputs": [],
      "name": "getContractOwner",
      "outputs": [
        {
          "internalType": "address",
          "name": "",
          "type": "address"
        }
      ],
      "stateMutability": "view",
      "type": "function"
    },
    {
      "inputs": [],
      "name": "getLatestCauseAddress",
      "outputs": [
        {
          "internalType": "address",
          "name": "",
          "type": "address"
        }
      ],
      "stateMutability": "view",
      "type": "function"
    },
    {
      "inputs": [],
      "name": "getMyCauseId",
      "outputs": [
        {
          "internalType": "uint256",
          "name": "",
          "type": "uint256"
        }
      ],
      "stateMutability": "view",
      "type": "function"
    },
    {
      "inputs": [],
      "name": "getPercentCut",
      "outputs": [
        {
          "internalType": "uint256",
          "name": "",
          "type": "uint256"
        }
      ],
      "stateMutability": "view",
      "type": "function"
    },
    {
      "inputs": [
        {
          "internalType": "address",
          "name": "newOwner",
          "type": "address"
        }
      ],
      "name": "handover",
      "outputs": [],
      "stateMutability": "nonpayable",
      "type": "function"
    },
    {
      "inputs": [
        {
          "internalType": "address",
          "name": "",
          "type": "address"
        }
      ],
      "name": "hasCause",
      "outputs": [
        {
          "internalType": "uint256",
          "name": "",
          "type": "uint256"
        }
      ],
      "stateMutability": "view",
      "type": "function"
    },
    {
      "inputs": [],
      "name": "i_crowdFunderOwner",
      "outputs": [
        {
          "internalType": "address payable",
          "name": "",
          "type": "address"
        }
      ],
      "stateMutability": "view",
      "type": "function"
    },
    {
      "inputs": [],
      "name": "i_percentCut",
      "outputs": [
        {
          "internalType": "uint256",
          "name": "",
          "type": "uint256"
        }
      ],
      "stateMutability": "view",
      "type": "function"
    },
    {
      "inputs": [
        {
          "internalType": "uint256",
          "name": "causeId",
          "type": "uint256"
        }
      ],
      "name": "lock",
      "outputs": [],
      "stateMutability": "nonpayable",
      "type": "function"
    },
    {
      "inputs": [
        {
          "internalType": "uint256",
          "name": "",
          "type": "uint256"
        }
      ],
      "name": "s_causes",
      "outputs": [
        {
          "internalType": "contract Cause",
          "name": "",
          "type": "address"
        }
      ],
      "stateMutability": "view",
      "type": "function"
    },
    {
      "inputs": [],
      "name": "s_nextCauseId",
      "outputs": [
        {
          "internalType": "uint256",
          "name": "",
          "type": "uint256"
        }
      ],
      "stateMutability": "view",
      "type": "function"
    },
    {
      "inputs": [],
      "name": "sponsorSite",
      "outputs": [],
      "stateMutability": "payable",
      "type": "function"
    },
    {
      "inputs": [
        {
          "internalType": "uint256",
          "name": "causeId",
          "type": "uint256"
        }
      ],
      "name": "unlock",
      "outputs": [],
      "stateMutability": "nonpayable",
      "type": "function"
    },
    {
      "inputs": [
        {
          "internalType": "address",
          "name": "",
          "type": "address"
        }
      ],
      "name": "walletToCauseOwned",
      "outputs": [
        {
          "internalType": "address",
          "name": "",
          "type": "address"
        }
      ],
      "stateMutability": "view",
      "type": "function"
    },
    {
      "inputs": [],
      "name": "withdraw",
      "outputs": [],
      "stateMutability": "payable",
      "type": "function"
    },
    {
      "stateMutability": "payable",
      "type": "receive"
    }
  ],
  "transactionHash": "0x81467ee637c10e8041c8ec00e3eabea0180caaa5c4807145c9acf8a929f5c98f",
  "args": [
    "300"
  ],
  "numDeployments": 1,
  "solcInputHash": "437e54ef00c14f0fb118e8615bace939",
  "bytecode": "0x60c06040523480156200001157600080fd5b50604051620046753803806200467583398181016040528101906200003791906200009c565b3373ffffffffffffffffffffffffffffffffffffffff1660808173ffffffffffffffffffffffffffffffffffffffff1660601b815250508060a08181525050600160038190555050620000f7565b6000815190506200009681620000dd565b92915050565b600060208284031215620000b557620000b4620000d8565b5b6000620000c58482850162000085565b91505092915050565b6000819050919050565b600080fd5b620000e881620000ce565b8114620000f457600080fd5b50565b60805160601c60a05161452b6200014a60003960008181610b8801528181610e0f0152610eb50152600081816107a201528181610b6201528181610bf701528181610d9501526111e5015261452b6000f3fe608060405260043610620001635760003560e01c806364650eff11620000c7578063a9ccb0fe1162000079578063a9ccb0fe1462000547578063acc00143146200058b578063dd4670641462000597578063e812500b14620005c5578063e8d95fec1462000609578063f824ec54146200064d5762000198565b806364650eff14620003ff5780636c7c3a5d14620004435780636f9fb98a1462000473578063785d9c0314620004a35780638201650514620004d3578063930e4c8b14620005035762000198565b80633ff4d08311620001215780633ff4d08314620002bb578063442890d514620002e95780634a0cf0fb146200031957806351340f4f1462000349578063580ca24c146200038d5780636198e33914620003d15762000198565b8063179171e214620001c757806330adbc74146200020b57806337c12206146200023b5780633c0d12c6146200026b5780633ccfd60b14620002af5762000198565b366200019857347f9874a7967abbb8701e946ae29391c091f59962f042ba4b5d99b1ed7f2e2e3e5560405160405180910390a2005b347f9874a7967abbb8701e946ae29391c091f59962f042ba4b5d99b1ed7f2e2e3e5560405160405180910390a2005b348015620001d457600080fd5b50620001f36004803603810190620001ed919062001483565b62000691565b604051620002029190620016bb565b60405180910390f35b3480156200021857600080fd5b5062000223620006df565b604051620002329190620016bb565b60405180910390f35b3480156200024857600080fd5b5062000253620006e5565b604051620002629190620015e3565b60405180910390f35b3480156200027857600080fd5b5062000297600480360381019062000291919062001483565b62000743565b604051620002a691906200161d565b60405180910390f35b620002b9620007a0565b005b348015620002c857600080fd5b50620002e76004803603810190620002e1919062001483565b620008a0565b005b348015620002f657600080fd5b506200030162000b5e565b604051620003109190620015e3565b60405180910390f35b3480156200032657600080fd5b506200033162000b86565b604051620003409190620016bb565b60405180910390f35b3480156200035657600080fd5b506200037560048036038101906200036f919062001483565b62000baa565b604051620003849190620015e3565b60405180910390f35b3480156200039a57600080fd5b50620003b96004803603810190620003b3919062001483565b62000bdd565b604051620003c89190620016bb565b60405180910390f35b348015620003de57600080fd5b50620003fd6004803603810190620003f791906200151b565b62000bf5565b005b3480156200040c57600080fd5b506200042b60048036038101906200042591906200151b565b62000d35565b6040516200043a9190620015e3565b60405180910390f35b3480156200045057600080fd5b506200045b62000d93565b6040516200046a919062001600565b60405180910390f35b3480156200048057600080fd5b506200048b62000db7565b6040516200049a9190620016bb565b60405180910390f35b348015620004b057600080fd5b50620004bb62000dbf565b604051620004ca9190620016bb565b60405180910390f35b348015620004e057600080fd5b50620004eb62000e0b565b604051620004fa9190620016bb565b60405180910390f35b3480156200051057600080fd5b506200052f6004803603810190620005299190620014b5565b62000e33565b6040516200053e9190620015e3565b60405180910390f35b3480156200055457600080fd5b506200057360048036038101906200056d919062001483565b62001147565b604051620005829190620015e3565b60405180910390f35b62000595620011b4565b005b348015620005a457600080fd5b50620005c36004803603810190620005bd91906200151b565b620011e3565b005b348015620005d257600080fd5b50620005f16004803603810190620005eb91906200151b565b62001323565b6040516200060091906200163a565b60405180910390f35b3480156200061657600080fd5b506200063560048036038101906200062f919062001483565b62001363565b604051620006449190620016bb565b60405180910390f35b3480156200065a57600080fd5b5062000679600480360381019062000673919062001483565b620013b1565b604051620006889190620016bb565b60405180910390f35b600080600260008473ffffffffffffffffffffffffffffffffffffffff1673ffffffffffffffffffffffffffffffffffffffff16815260200190815260200160002054905080915050919050565b60035481565b60008060046002600354620006fb9190620017b0565b815481106200070f576200070e6200192f565b5b9060005260206000200160009054906101000a900473ffffffffffffffffffffffffffffffffffffffff1690508091505090565b600080600260008473ffffffffffffffffffffffffffffffffffffffff1673ffffffffffffffffffffffffffffffffffffffff16815260200190815260200160002054146200079657600190506200079b565b600090505b919050565b7f000000000000000000000000000000000000000000000000000000000000000073ffffffffffffffffffffffffffffffffffffffff163373ffffffffffffffffffffffffffffffffffffffff161462000826576040517f4f227fdb00000000000000000000000000000000000000000000000000000000815260040160405180910390fd5b600047905060003373ffffffffffffffffffffffffffffffffffffffff166108fc839081150290604051600060405180830381858888f193505050509050806200089c576040517fb60ef3b700000000000000000000000000000000000000000000000000000000815260040160405180910390fd5b5050565b6000600160003373ffffffffffffffffffffffffffffffffffffffff1673ffffffffffffffffffffffffffffffffffffffff16815260200190815260200160002054141580156200093057506000600160008373ffffffffffffffffffffffffffffffffffffffff1673ffffffffffffffffffffffffffffffffffffffff16815260200190815260200160002054145b6200093a57600080fd5b600160003373ffffffffffffffffffffffffffffffffffffffff1673ffffffffffffffffffffffffffffffffffffffff16815260200190815260200160002054600160008373ffffffffffffffffffffffffffffffffffffffff1673ffffffffffffffffffffffffffffffffffffffff168152602001908152602001600020819055506000600160003373ffffffffffffffffffffffffffffffffffffffff1673ffffffffffffffffffffffffffffffffffffffff168152602001908152602001600020819055506000803373ffffffffffffffffffffffffffffffffffffffff1673ffffffffffffffffffffffffffffffffffffffff16815260200190815260200160002060009054906101000a900473ffffffffffffffffffffffffffffffffffffffff166000808373ffffffffffffffffffffffffffffffffffffffff1673ffffffffffffffffffffffffffffffffffffffff16815260200190815260200160002060006101000a81548173ffffffffffffffffffffffffffffffffffffffff021916908373ffffffffffffffffffffffffffffffffffffffff16021790555060008060003373ffffffffffffffffffffffffffffffffffffffff1673ffffffffffffffffffffffffffffffffffffffff16815260200190815260200160002060006101000a81548173ffffffffffffffffffffffffffffffffffffffff021916908373ffffffffffffffffffffffffffffffffffffffff16021790555050565b60007f0000000000000000000000000000000000000000000000000000000000000000905090565b7f000000000000000000000000000000000000000000000000000000000000000081565b60006020528060005260406000206000915054906101000a900473ffffffffffffffffffffffffffffffffffffffff1681565b60016020528060005260406000206000915090505481565b7f000000000000000000000000000000000000000000000000000000000000000073ffffffffffffffffffffffffffffffffffffffff163373ffffffffffffffffffffffffffffffffffffffff161462000c7b576040517f4f227fdb00000000000000000000000000000000000000000000000000000000815260040160405180910390fd5b6000600460018362000c8e9190620017b0565b8154811062000ca25762000ca16200192f565b5b9060005260206000200160009054906101000a900473ffffffffffffffffffffffffffffffffffffffff1690508073ffffffffffffffffffffffffffffffffffffffff1663a69df4b56040518163ffffffff1660e01b8152600401600060405180830381600087803b15801562000d1857600080fd5b505af115801562000d2d573d6000803e3d6000fd5b505050505050565b600080600460018462000d499190620017b0565b8154811062000d5d5762000d5c6200192f565b5b9060005260206000200160009054906101000a900473ffffffffffffffffffffffffffffffffffffffff16905080915050919050565b7f000000000000000000000000000000000000000000000000000000000000000081565b600047905090565b600080600160003373ffffffffffffffffffffffffffffffffffffffff1673ffffffffffffffffffffffffffffffffffffffff1681526020019081526020016000205490508091505090565b60007f0000000000000000000000000000000000000000000000000000000000000000905090565b600080600160003373ffffffffffffffffffffffffffffffffffffffff1673ffffffffffffffffffffffffffffffffffffffff168152602001908152602001600020541462000eae576040517f66a7ac8000000000000000000000000000000000000000000000000000000000815260040160405180910390fd5b60008383337f000000000000000000000000000000000000000000000000000000000000000060035460405162000ee590620013c9565b62000ef595949392919062001657565b604051809103906000f08015801562000f12573d6000803e3d6000fd5b5090508073ffffffffffffffffffffffffffffffffffffffff1663a69df4b56040518163ffffffff1660e01b8152600401600060405180830381600087803b15801562000f5e57600080fd5b505af115801562000f73573d6000803e3d6000fd5b505050506004819080600181540180825580915050600190039060005260206000200160009091909190916101000a81548173ffffffffffffffffffffffffffffffffffffffff021916908373ffffffffffffffffffffffffffffffffffffffff160217905550806000803373ffffffffffffffffffffffffffffffffffffffff1673ffffffffffffffffffffffffffffffffffffffff16815260200190815260200160002060006101000a81548173ffffffffffffffffffffffffffffffffffffffff021916908373ffffffffffffffffffffffffffffffffffffffff160217905550600354600160003373ffffffffffffffffffffffffffffffffffffffff1673ffffffffffffffffffffffffffffffffffffffff16815260200190815260200160002081905550600354600260008373ffffffffffffffffffffffffffffffffffffffff1673ffffffffffffffffffffffffffffffffffffffff168152602001908152602001600020819055506001600354620010f4919062001753565b6003819055508073ffffffffffffffffffffffffffffffffffffffff167f8d41e52c133717d879952d81e8b37582cb51f582d4cb7850e2db6d012141a11c60405160405180910390a28091505092915050565b6000806000808473ffffffffffffffffffffffffffffffffffffffff1673ffffffffffffffffffffffffffffffffffffffff16815260200190815260200160002060009054906101000a900473ffffffffffffffffffffffffffffffffffffffff16905080915050919050565b347f9874a7967abbb8701e946ae29391c091f59962f042ba4b5d99b1ed7f2e2e3e5560405160405180910390a2565b7f000000000000000000000000000000000000000000000000000000000000000073ffffffffffffffffffffffffffffffffffffffff163373ffffffffffffffffffffffffffffffffffffffff161462001269576040517f4f227fdb00000000000000000000000000000000000000000000000000000000815260040160405180910390fd5b600060046001836200127c9190620017b0565b8154811062001290576200128f6200192f565b5b9060005260206000200160009054906101000a900473ffffffffffffffffffffffffffffffffffffffff1690508073ffffffffffffffffffffffffffffffffffffffff1663f83d08ba6040518163ffffffff1660e01b8152600401600060405180830381600087803b1580156200130657600080fd5b505af11580156200131b573d6000803e3d6000fd5b505050505050565b600481815481106200133457600080fd5b906000526020600020016000915054906101000a900473ffffffffffffffffffffffffffffffffffffffff1681565b600080600160008473ffffffffffffffffffffffffffffffffffffffff1673ffffffffffffffffffffffffffffffffffffffff16815260200190815260200160002054905080915050919050565b60026020528060005260406000206000915090505481565b612b0f80620019e783390190565b6000620013ee620013e88462001701565b620016d8565b9050828152602081018484840111156200140d576200140c62001992565b5b6200141a84828562001885565b509392505050565b6000813590506200143381620019b2565b92915050565b600082601f8301126200145157620014506200198d565b5b813562001463848260208601620013d7565b91505092915050565b6000813590506200147d81620019cc565b92915050565b6000602082840312156200149c576200149b6200199c565b5b6000620014ac8482850162001422565b91505092915050565b60008060408385031215620014cf57620014ce6200199c565b5b600083013567ffffffffffffffff811115620014f057620014ef62001997565b5b620014fe8582860162001439565b925050602062001511858286016200146c565b9150509250929050565b6000602082840312156200153457620015336200199c565b5b600062001544848285016200146c565b91505092915050565b6200155881620017ff565b82525050565b6200156981620017eb565b82525050565b6200157a8162001813565b82525050565b6200158b8162001849565b82525050565b60006200159e8262001737565b620015aa818562001742565b9350620015bc81856020860162001894565b620015c781620019a1565b840191505092915050565b620015dd816200183f565b82525050565b6000602082019050620015fa60008301846200155e565b92915050565b60006020820190506200161760008301846200154d565b92915050565b60006020820190506200163460008301846200156f565b92915050565b600060208201905062001651600083018462001580565b92915050565b600060a082019050818103600083015262001673818862001591565b9050620016846020830187620015d2565b6200169360408301866200154d565b620016a26060830185620015d2565b620016b16080830184620015d2565b9695505050505050565b6000602082019050620016d26000830184620015d2565b92915050565b6000620016e4620016f7565b9050620016f28282620018ca565b919050565b6000604051905090565b600067ffffffffffffffff8211156200171f576200171e6200195e565b5b6200172a82620019a1565b9050602081019050919050565b600081519050919050565b600082825260208201905092915050565b600062001760826200183f565b91506200176d836200183f565b9250827fffffffffffffffffffffffffffffffffffffffffffffffffffffffffffffffff03821115620017a557620017a462001900565b5b828201905092915050565b6000620017bd826200183f565b9150620017ca836200183f565b925082821015620017e057620017df62001900565b5b828203905092915050565b6000620017f8826200181f565b9050919050565b60006200180c826200181f565b9050919050565b60008115159050919050565b600073ffffffffffffffffffffffffffffffffffffffff82169050919050565b6000819050919050565b600062001856826200185d565b9050919050565b60006200186a8262001871565b9050919050565b60006200187e826200181f565b9050919050565b82818337600083830152505050565b60005b83811015620018b457808201518184015260208101905062001897565b83811115620018c4576000848401525b50505050565b620018d582620019a1565b810181811067ffffffffffffffff82111715620018f757620018f66200195e565b5b80604052505050565b7f4e487b7100000000000000000000000000000000000000000000000000000000600052601160045260246000fd5b7f4e487b7100000000000000000000000000000000000000000000000000000000600052603260045260246000fd5b7f4e487b7100000000000000000000000000000000000000000000000000000000600052604160045260246000fd5b600080fd5b600080fd5b600080fd5b600080fd5b6000601f19601f8301169050919050565b620019bd81620017eb565b8114620019c957600080fd5b50565b620019d7816200183f565b8114620019e357600080fd5b5056fe60e06040523480156200001157600080fd5b5060405162002b0f38038062002b0f83398181016040528101906200003791906200028e565b33600360006101000a81548173ffffffffffffffffffffffffffffffffffffffff021916908373ffffffffffffffffffffffffffffffffffffffff16021790555084600490805190602001906200009092919062000132565b5082600260046101000a81548173ffffffffffffffffffffffffffffffffffffffff021916908373ffffffffffffffffffffffffffffffffffffffff16021790555083608081815250506001600260016101000a81548160ff0219169083151502179055508160a081815250508060c0818152505060016002806101000a81548160ff021916908315150217905550600060018190555050505050506200052b565b828054620001409062000408565b90600052602060002090601f016020900481019282620001645760008555620001b0565b82601f106200017f57805160ff1916838001178555620001b0565b82800160010185558215620001b0579182015b82811115620001af57825182559160200191906001019062000192565b5b509050620001bf9190620001c3565b5090565b5b80821115620001de576000816000905550600101620001c4565b5090565b6000620001f9620001f3846200035e565b62000335565b905082815260208101848484011115620002185762000217620004d7565b5b62000225848285620003d2565b509392505050565b6000815190506200023e81620004f7565b92915050565b600082601f8301126200025c576200025b620004d2565b5b81516200026e848260208601620001e2565b91505092915050565b600081519050620002888162000511565b92915050565b600080600080600060a08688031215620002ad57620002ac620004e1565b5b600086015167ffffffffffffffff811115620002ce57620002cd620004dc565b5b620002dc8882890162000244565b9550506020620002ef8882890162000277565b945050604062000302888289016200022d565b9350506060620003158882890162000277565b9250506080620003288882890162000277565b9150509295509295909350565b60006200034162000354565b90506200034f82826200043e565b919050565b6000604051905090565b600067ffffffffffffffff8211156200037c576200037b620004a3565b5b6200038782620004e6565b9050602081019050919050565b6000620003a182620003a8565b9050919050565b600073ffffffffffffffffffffffffffffffffffffffff82169050919050565b6000819050919050565b60005b83811015620003f2578082015181840152602081019050620003d5565b8381111562000402576000848401525b50505050565b600060028204905060018216806200042157607f821691505b6020821081141562000438576200043762000474565b5b50919050565b6200044982620004e6565b810181811067ffffffffffffffff821117156200046b576200046a620004a3565b5b80604052505050565b7f4e487b7100000000000000000000000000000000000000000000000000000000600052602260045260246000fd5b7f4e487b7100000000000000000000000000000000000000000000000000000000600052604160045260246000fd5b600080fd5b600080fd5b600080fd5b600080fd5b6000601f19601f8301169050919050565b620005028162000394565b81146200050e57600080fd5b50565b6200051c81620003c8565b81146200052857600080fd5b50565b60805160a05160c051612598620005776000396000610abc015260008181610ed701526111610152600081816109b701528181611298015281816113fc015261170b01526125986000f3fe6080604052600436106102135760003560e01c80636c2f272a11610118578063c622bb20116100a0578063dad7003a1161006f578063dad7003a14610725578063dfcf7a8c14610750578063ed88c68e1461077b578063f03232a314610785578063f83d08ba146107b057610222565b8063c622bb20146106b0578063ca973f07146106db578063d4f2a4d5146106e5578063d9d25813146106fc57610222565b8063a67e30cb116100e7578063a67e30cb146105ed578063a69df4b514610618578063af1aa9f91461062f578063b97a7d241461065a578063c38804a51461068557610222565b80636c2f272a1461052f578063748ce70a1461055a578063787e32571461058557806380e1204f146105b057610222565b8063365fd9821161019b578063443910e01161016a578063443910e0146104585780634a0cf0fb14610483578063583b1896146104ae5780635edd2267146104d9578063643b28701461050457610222565b8063365fd982146103c057806339722fab146103eb57806339d7e8a4146104165780633ccfd60b1461044157610222565b806327ad7a5d116101e257806327ad7a5d146102eb5780632af4c31e146103165780632d3297b61461033f5780632e6626e71461036a578063306addc41461039557610222565b80630238cbdc1461022c5780630294d0111461026a578063092dcb4c146102955780630cfc2fc5146102c057610222565b36610222576102206107c7565b005b61022a6107c7565b005b34801561023857600080fd5b50610253600480360381019061024e9190611e27565b610a66565b604051610261929190612027565b60405180910390f35b34801561027657600080fd5b5061027f610aba565b60405161028c91906120fa565b60405180910390f35b3480156102a157600080fd5b506102aa610ade565b6040516102b7919061209b565b60405180910390f35b3480156102cc57600080fd5b506102d5610af5565b6040516102e2919061209b565b60405180910390f35b3480156102f757600080fd5b50610300610b08565b60405161030d919061209b565b60405180910390f35b34801561032257600080fd5b5061033d60048036038101906103389190611db1565b610b1f565b005b34801561034b57600080fd5b50610354610c72565b60405161036191906120fa565b60405180910390f35b34801561037657600080fd5b5061037f610c7b565b60405161038c91906120b6565b60405180910390f35b3480156103a157600080fd5b506103aa610d0d565b6040516103b791906120b6565b60405180910390f35b3480156103cc57600080fd5b506103d5610d9b565b6040516103e291906120fa565b60405180910390f35b3480156103f757600080fd5b50610400610de7565b60405161040d91906120fa565b60405180910390f35b34801561042257600080fd5b5061042b610df9565b60405161043891906120fa565b60405180910390f35b34801561044d57600080fd5b50610456610dff565b005b34801561046457600080fd5b5061046d6110a0565b60405161047a9190612079565b60405180910390f35b34801561048f57600080fd5b5061049861115f565b6040516104a591906120fa565b60405180910390f35b3480156104ba57600080fd5b506104c3611183565b6040516104d0919061209b565b60405180910390f35b3480156104e557600080fd5b506104ee611198565b6040516104fb91906120b6565b60405180910390f35b34801561051057600080fd5b50610519611226565b604051610526919061200c565b60405180910390f35b34801561053b57600080fd5b5061054461124c565b60405161055191906120fa565b60405180910390f35b34801561056657600080fd5b5061056f611256565b60405161057c919061209b565b60405180910390f35b34801561059157600080fd5b5061059a61126d565b6040516105a7919061209b565b60405180910390f35b3480156105bc57600080fd5b506105d760048036038101906105d29190611d84565b61127e565b6040516105e491906120fa565b60405180910390f35b3480156105f957600080fd5b50610602611296565b60405161060f91906120fa565b60405180910390f35b34801561062457600080fd5b5061062d6112ba565b005b34801561063b57600080fd5b506106446113e5565b604051610651919061209b565b60405180910390f35b34801561066657600080fd5b5061066f6113f8565b60405161067c91906120fa565b60405180910390f35b34801561069157600080fd5b5061069a611420565b6040516106a7919061200c565b60405180910390f35b3480156106bc57600080fd5b506106c5611446565b6040516106d2919061200c565b60405180910390f35b6106e3611470565b005b3480156106f157600080fd5b506106fa6117d6565b005b34801561070857600080fd5b50610723600480360381019061071e9190611dde565b61193d565b005b34801561073157600080fd5b5061073a611a5b565b60405161074791906120fa565b60405180910390f35b34801561075c57600080fd5b50610765611a61565b604051610772919061209b565b60405180910390f35b6107836107c7565b005b34801561079157600080fd5b5061079a611a74565b6040516107a791906120b6565b60405180910390f35b3480156107bc57600080fd5b506107c5611b06565b005b600260009054906101000a900460ff161561080e576040517f7d6ebcc700000000000000000000000000000000000000000000000000000000815260040160405180910390fd5b600260019054906101000a900460ff16610854576040517f9f6f715500000000000000000000000000000000000000000000000000000000815260040160405180910390fd5b60028054906101000a900460ff1615610899576040517fbabe63b900000000000000000000000000000000000000000000000000000000815260040160405180910390fd5b346000808282546108aa91906121d5565b92505081905550600060405180604001604052803373ffffffffffffffffffffffffffffffffffffffff168152602001348152509050600781908060018154018082558091505060019003906000526020600020906002020160009091909190915060008201518160000160006101000a81548173ffffffffffffffffffffffffffffffffffffffff021916908373ffffffffffffffffffffffffffffffffffffffff16021790555060208201518160010155505034600660003373ffffffffffffffffffffffffffffffffffffffff1673ffffffffffffffffffffffffffffffffffffffff16815260200190815260200160002060008282546109ae91906121d5565b925050819055507f000000000000000000000000000000000000000000000000000000000000000060005410610a15576001600260006101000a81548160ff0219169083151502179055506000600260016101000a81548160ff0219169083151502179055505b3373ffffffffffffffffffffffffffffffffffffffff167faa13962bc79c7a0bc42cb8169b1705f0a6b55cc404ffb8a589d771ca7867597834604051610a5b91906120fa565b60405180910390a250565b60078181548110610a7657600080fd5b90600052602060002090600202016000915090508060000160009054906101000a900473ffffffffffffffffffffffffffffffffffffffff16908060010154905082565b7f000000000000000000000000000000000000000000000000000000000000000081565b6000600260009054906101000a900460ff16905090565b600260039054906101000a900460ff1681565b6000600260039054906101000a900460ff16905090565b600260049054906101000a900473ffffffffffffffffffffffffffffffffffffffff1673ffffffffffffffffffffffffffffffffffffffff163373ffffffffffffffffffffffffffffffffffffffff1614610ba6576040517f18f09efd00000000000000000000000000000000000000000000000000000000815260040160405180910390fd5b60028054906101000a900460ff1615610beb576040517fbabe63b900000000000000000000000000000000000000000000000000000000815260040160405180910390fd5b80600260046101000a81548173ffffffffffffffffffffffffffffffffffffffff021916908373ffffffffffffffffffffffffffffffffffffffff1602179055508073ffffffffffffffffffffffffffffffffffffffff167f595ee9ffef04d4d652b768860c56905a48f5ab79124bb3b2279df1885536991d60405160405180910390a250565b60008054905090565b606060058054610c8a90612390565b80601f0160208091040260200160405190810160405280929190818152602001828054610cb690612390565b8015610d035780601f10610cd857610100808354040283529160200191610d03565b820191906000526020600020905b815481529060010190602001808311610ce657829003601f168201915b5050505050905090565b60058054610d1a90612390565b80601f0160208091040260200160405190810160405280929190818152602001828054610d4690612390565b8015610d935780601f10610d6857610100808354040283529160200191610d93565b820191906000526020600020905b815481529060010190602001808311610d7657829003601f168201915b505050505081565b600080600660003373ffffffffffffffffffffffffffffffffffffffff1673ffffffffffffffffffffffffffffffffffffffff1681526020019081526020016000205490508091505090565b60008060078054905090508091505090565b60005481565b600260049054906101000a900473ffffffffffffffffffffffffffffffffffffffff1673ffffffffffffffffffffffffffffffffffffffff163373ffffffffffffffffffffffffffffffffffffffff1614610e86576040517f18f09efd00000000000000000000000000000000000000000000000000000000815260040160405180910390fd5b60028054906101000a900460ff1615610ecb576040517fbabe63b900000000000000000000000000000000000000000000000000000000815260040160405180910390fd5b600047905060006127107f000000000000000000000000000000000000000000000000000000000000000083610f01919061225c565b610f0b919061222b565b90506000600360009054906101000a900473ffffffffffffffffffffffffffffffffffffffff1673ffffffffffffffffffffffffffffffffffffffff166108fc839081150290604051600060405180830381858888f19350505050905080610f9f576040517f7824242700000000000000000000000000000000000000000000000000000000815260040160405180910390fd5b60003373ffffffffffffffffffffffffffffffffffffffff166108fc479081150290604051600060405180830381858888f1935050505090508061100f576040517f7824242700000000000000000000000000000000000000000000000000000000815260040160405180910390fd5b6000600260016101000a81548160ff021916908315150217905550600080819055506001600260036101000a81548160ff0219169083151502179055503373ffffffffffffffffffffffffffffffffffffffff167fbc158bb64f05d6383aea69bbb0b20c1bbf4b7a18f63359c5649b7c39e29d38848560405161109291906120fa565b60405180910390a250505050565b60606007805480602002602001604051908101604052809291908181526020016000905b8282101561115657838290600052602060002090600202016040518060400160405290816000820160009054906101000a900473ffffffffffffffffffffffffffffffffffffffff1673ffffffffffffffffffffffffffffffffffffffff1673ffffffffffffffffffffffffffffffffffffffff168152602001600182015481525050815260200190600101906110c4565b50505050905090565b7f000000000000000000000000000000000000000000000000000000000000000081565b600060028054906101000a900460ff16905090565b600480546111a590612390565b80601f01602080910402602001604051908101604052809291908181526020018280546111d190612390565b801561121e5780601f106111f35761010080835404028352916020019161121e565b820191906000526020600020905b81548152906001019060200180831161120157829003601f168201915b505050505081565b600260049054906101000a900473ffffffffffffffffffffffffffffffffffffffff1681565b6000600154905090565b6000600260019054906101000a900460ff16905090565b60028054906101000a900460ff1681565b60066020528060005260406000206000915090505481565b7f000000000000000000000000000000000000000000000000000000000000000081565b600360009054906101000a900473ffffffffffffffffffffffffffffffffffffffff1673ffffffffffffffffffffffffffffffffffffffff163373ffffffffffffffffffffffffffffffffffffffff1614611341576040517f33e2a8ec00000000000000000000000000000000000000000000000000000000815260040160405180910390fd5b60028054906101000a900460ff16611385576040517f9b6b472200000000000000000000000000000000000000000000000000000000815260040160405180910390fd5b60006002806101000a81548160ff0219169083151502179055507fda3943f07eff121b37cf91d4288e4e85a5078bee9b6e9159a955bedb9683694860028054906101000a900460ff166040516113db919061209b565b60405180910390a1565b600260009054906101000a900460ff1681565b60007f0000000000000000000000000000000000000000000000000000000000000000905090565b600360009054906101000a900473ffffffffffffffffffffffffffffffffffffffff1681565b6000600260049054906101000a900473ffffffffffffffffffffffffffffffffffffffff16905090565b600260039054906101000a900460ff16156114b7576040517fbdf238b400000000000000000000000000000000000000000000000000000000815260040160405180910390fd5b6000600660003373ffffffffffffffffffffffffffffffffffffffff1673ffffffffffffffffffffffffffffffffffffffff168152602001908152602001600020541415611531576040517f203c9ab100000000000000000000000000000000000000000000000000000000815260040160405180910390fd5b6000600660003373ffffffffffffffffffffffffffffffffffffffff1673ffffffffffffffffffffffffffffffffffffffff16815260200190815260200160002054905060003373ffffffffffffffffffffffffffffffffffffffff166108fc839081150290604051600060405180830381858888f193505050509050806115e5576040517f7824242700000000000000000000000000000000000000000000000000000000815260040160405180910390fd5b600060405180604001604052803373ffffffffffffffffffffffffffffffffffffffff16815260200184611618906123f3565b8152509050600781908060018154018082558091505060019003906000526020600020906002020160009091909190915060008201518160000160006101000a81548173ffffffffffffffffffffffffffffffffffffffff021916908373ffffffffffffffffffffffffffffffffffffffff1602179055506020820151816001015550506000600660003373ffffffffffffffffffffffffffffffffffffffff1673ffffffffffffffffffffffffffffffffffffffff16815260200190815260200160002081905550600180546116ef91906121d5565b6001819055508260005461170391906122b6565b6000819055507f00000000000000000000000000000000000000000000000000000000000000006000541015611798576000600260006101000a81548160ff021916908315150217905550600260039054906101000a900460ff16158015611776575060028054906101000a900460ff16155b15611797576001600260016101000a81548160ff0219169083151502179055505b5b7fd7dee2702d63ad89917b6a4da9981c90c4d24f8c2bdfd64c604ecae57d8d065133846040516117c9929190612050565b60405180910390a1505050565b600260049054906101000a900473ffffffffffffffffffffffffffffffffffffffff1673ffffffffffffffffffffffffffffffffffffffff163373ffffffffffffffffffffffffffffffffffffffff161461185d576040517f18f09efd00000000000000000000000000000000000000000000000000000000815260040160405180910390fd5b600260019054906101000a900460ff1615611892576000600260016101000a81548160ff0219169083151502179055506118f5565b600260039054906101000a900460ff16156118d9576040517fb5608ae600000000000000000000000000000000000000000000000000000000815260040160405180910390fd5b6001600260016101000a81548160ff0219169083151502179055505b7f6f5be26fb94646fadcdf16147ddd35138ad497ce000f92f12eadbaa19497c533600260019054906101000a900460ff16604051611933919061209b565b60405180910390a1565b600260049054906101000a900473ffffffffffffffffffffffffffffffffffffffff1673ffffffffffffffffffffffffffffffffffffffff163373ffffffffffffffffffffffffffffffffffffffff16146119c4576040517f18f09efd00000000000000000000000000000000000000000000000000000000815260040160405180910390fd5b60028054906101000a900460ff1615611a09576040517fbabe63b900000000000000000000000000000000000000000000000000000000815260040160405180910390fd5b8060059080519060200190611a1f929190611c32565b507f0c9c2f86218c506a4f5a61d8550880041379a6c31155086325a859e19bfeaaf86005604051611a5091906120d8565b60405180910390a150565b60015481565b600260019054906101000a900460ff1681565b606060048054611a8390612390565b80601f0160208091040260200160405190810160405280929190818152602001828054611aaf90612390565b8015611afc5780601f10611ad157610100808354040283529160200191611afc565b820191906000526020600020905b815481529060010190602001808311611adf57829003601f168201915b5050505050905090565b600360009054906101000a900473ffffffffffffffffffffffffffffffffffffffff1673ffffffffffffffffffffffffffffffffffffffff163373ffffffffffffffffffffffffffffffffffffffff1614611b8d576040517f33e2a8ec00000000000000000000000000000000000000000000000000000000815260040160405180910390fd5b60028054906101000a900460ff1615611bd2576040517fe1c205bf00000000000000000000000000000000000000000000000000000000815260040160405180910390fd5b60016002806101000a81548160ff0219169083151502179055507fc20b8fc722655092cdbc0c19a12ad36bbf5f5e7da7c30409ecefea3880d8e8cc60028054906101000a900460ff16604051611c28919061209b565b60405180910390a1565b828054611c3e90612390565b90600052602060002090601f016020900481019282611c605760008555611ca7565b82601f10611c7957805160ff1916838001178555611ca7565b82800160010185558215611ca7579182015b82811115611ca6578251825591602001919060010190611c8b565b5b509050611cb49190611cb8565b5090565b5b80821115611cd1576000816000905550600101611cb9565b5090565b6000611ce8611ce38461213a565b612115565b905082815260208101848484011115611d0457611d036124fd565b5b611d0f84828561234e565b509392505050565b600081359050611d268161251d565b92915050565b600081359050611d3b81612534565b92915050565b600082601f830112611d5657611d556124f8565b5b8135611d66848260208601611cd5565b91505092915050565b600081359050611d7e8161254b565b92915050565b600060208284031215611d9a57611d99612507565b5b6000611da884828501611d17565b91505092915050565b600060208284031215611dc757611dc6612507565b5b6000611dd584828501611d2c565b91505092915050565b600060208284031215611df457611df3612507565b5b600082013567ffffffffffffffff811115611e1257611e11612502565b5b611e1e84828501611d41565b91505092915050565b600060208284031215611e3d57611e3c612507565b5b6000611e4b84828501611d6f565b91505092915050565b6000611e608383611fce565b60408301905092915050565b611e75816122ea565b82525050565b611e84816122ea565b82525050565b6000611e9582612190565b611e9f81856121b3565b9350611eaa8361216b565b8060005b83811015611edb578151611ec28882611e54565b9750611ecd836121a6565b925050600181019050611eae565b5085935050505092915050565b611ef18161230e565b82525050565b611f008161231a565b82525050565b611f0f8161231a565b82525050565b6000611f208261219b565b611f2a81856121c4565b9350611f3a81856020860161235d565b611f438161250c565b840191505092915050565b60008154611f5b81612390565b611f6581866121c4565b94506001821660008114611f805760018114611f9257611fc5565b60ff1983168652602086019350611fc5565b611f9b8561217b565b60005b83811015611fbd57815481890152600182019150602081019050611f9e565b808801955050505b50505092915050565b604082016000820151611fe46000850182611e6c565b506020820151611ff76020850182611ef7565b50505050565b61200681612344565b82525050565b60006020820190506120216000830184611e7b565b92915050565b600060408201905061203c6000830185611e7b565b6120496020830184611f06565b9392505050565b60006040820190506120656000830185611e7b565b6120726020830184611ffd565b9392505050565b600060208201905081810360008301526120938184611e8a565b905092915050565b60006020820190506120b06000830184611ee8565b92915050565b600060208201905081810360008301526120d08184611f15565b905092915050565b600060208201905081810360008301526120f28184611f4e565b905092915050565b600060208201905061210f6000830184611ffd565b92915050565b600061211f612130565b905061212b82826123c2565b919050565b6000604051905090565b600067ffffffffffffffff821115612155576121546124c9565b5b61215e8261250c565b9050602081019050919050565b6000819050602082019050919050565b60008190508160005260206000209050919050565b600081519050919050565b600081519050919050565b6000602082019050919050565b600082825260208201905092915050565b600082825260208201905092915050565b60006121e082612344565b91506121eb83612344565b9250827fffffffffffffffffffffffffffffffffffffffffffffffffffffffffffffffff038211156122205761221f61243c565b5b828201905092915050565b600061223682612344565b915061224183612344565b9250826122515761225061246b565b5b828204905092915050565b600061226782612344565b915061227283612344565b9250817fffffffffffffffffffffffffffffffffffffffffffffffffffffffffffffffff04831182151516156122ab576122aa61243c565b5b828202905092915050565b60006122c182612344565b91506122cc83612344565b9250828210156122df576122de61243c565b5b828203905092915050565b60006122f582612324565b9050919050565b600061230782612324565b9050919050565b60008115159050919050565b6000819050919050565b600073ffffffffffffffffffffffffffffffffffffffff82169050919050565b6000819050919050565b82818337600083830152505050565b60005b8381101561237b578082015181840152602081019050612360565b8381111561238a576000848401525b50505050565b600060028204905060018216806123a857607f821691505b602082108114156123bc576123bb61249a565b5b50919050565b6123cb8261250c565b810181811067ffffffffffffffff821117156123ea576123e96124c9565b5b80604052505050565b60006123fe8261231a565b91507f80000000000000000000000000000000000000000000000000000000000000008214156124315761243061243c565b5b816000039050919050565b7f4e487b7100000000000000000000000000000000000000000000000000000000600052601160045260246000fd5b7f4e487b7100000000000000000000000000000000000000000000000000000000600052601260045260246000fd5b7f4e487b7100000000000000000000000000000000000000000000000000000000600052602260045260246000fd5b7f4e487b7100000000000000000000000000000000000000000000000000000000600052604160045260246000fd5b600080fd5b600080fd5b600080fd5b600080fd5b6000601f19601f8301169050919050565b612526816122ea565b811461253157600080fd5b50565b61253d816122fc565b811461254857600080fd5b50565b61255481612344565b811461255f57600080fd5b5056fea26469706673582212204da2879a918db50762ba644a4842cce0ba33e6d59e3e114fb3b60972334d42ba64736f6c63430008070033a2646970667358221220598c506126e1cccc6d48f16f8b019282aed8803231e58b6173b13f64d2e8d54564736f6c63430008070033",
  "devdoc": {
    "kind": "dev",
    "methods": {},
    "version": 1
  },
  "userdoc": {
    "kind": "user",
    "methods": {},
    "version": 1
  },
  "storageLayout": {
    "storage": [
      {
        "astId": 706,
        "contract": "contracts/CrowdFunder.sol:CrowdFunder",
        "label": "walletToCauseOwned",
        "offset": 0,
        "slot": "0",
        "type": "t_mapping(t_address,t_address)"
      },
      {
        "astId": 710,
        "contract": "contracts/CrowdFunder.sol:CrowdFunder",
        "label": "hasCause",
        "offset": 0,
        "slot": "1",
        "type": "t_mapping(t_address,t_uint256)"
      },
      {
        "astId": 714,
        "contract": "contracts/CrowdFunder.sol:CrowdFunder",
        "label": "causeToId",
        "offset": 0,
        "slot": "2",
        "type": "t_mapping(t_address,t_uint256)"
      },
      {
        "astId": 718,
        "contract": "contracts/CrowdFunder.sol:CrowdFunder",
        "label": "s_nextCauseId",
        "offset": 0,
        "slot": "3",
        "type": "t_uint256"
      },
      {
        "astId": 722,
        "contract": "contracts/CrowdFunder.sol:CrowdFunder",
        "label": "s_causes",
        "offset": 0,
        "slot": "4",
        "type": "t_array(t_contract(Cause)697)dyn_storage"
      }
    ],
    "types": {
      "t_address": {
        "encoding": "inplace",
        "label": "address",
        "numberOfBytes": "20"
      },
      "t_array(t_contract(Cause)697)dyn_storage": {
        "base": "t_contract(Cause)697",
        "encoding": "dynamic_array",
        "label": "contract Cause[]",
        "numberOfBytes": "32"
      },
      "t_contract(Cause)697": {
        "encoding": "inplace",
        "label": "contract Cause",
        "numberOfBytes": "20"
      },
      "t_mapping(t_address,t_address)": {
        "encoding": "mapping",
        "key": "t_address",
        "label": "mapping(address => address)",
        "numberOfBytes": "32",
        "value": "t_address"
      },
      "t_mapping(t_address,t_uint256)": {
        "encoding": "mapping",
        "key": "t_address",
        "label": "mapping(address => uint256)",
        "numberOfBytes": "32",
        "value": "t_uint256"
      },
      "t_uint256": {
        "encoding": "inplace",
        "label": "uint256",
        "numberOfBytes": "32"
      }
    }
  }
}