{
  "address": "0x5FbDB2315678afecb367f032d93F642f64180aa3",
  "abi": [
    {
      "inputs": [
        {
          "internalType": "uint256",
          "name": "percentCut",
          "type": "uint256"
        }
      ],
      "stateMutability": "nonpayable",
      "type": "constructor"
    },
    {
      "inputs": [],
      "name": "CrowdFunder__ErrorWithdrawing",
      "type": "error"
    },
    {
      "inputs": [],
      "name": "CrowdFunder__OnlyOwnerCanCallThis",
      "type": "error"
    },
    {
      "inputs": [],
      "name": "CrowdFunder__ThisWalletAlreadyHasACause",
      "type": "error"
    },
    {
      "anonymous": false,
      "inputs": [
        {
          "indexed": true,
          "internalType": "address",
          "name": "causeAddress",
          "type": "address"
        }
      ],
      "name": "CauseCreated",
      "type": "event"
    },
    {
      "anonymous": false,
      "inputs": [
        {
          "indexed": true,
          "internalType": "uint256",
          "name": "amount",
          "type": "uint256"
        }
      ],
      "name": "DonationReceived",
      "type": "event"
    },
    {
      "anonymous": false,
      "inputs": [
        {
          "indexed": true,
          "internalType": "uint256",
          "name": "amount",
          "type": "uint256"
        }
      ],
      "name": "WithdrawalMade",
      "type": "event"
    },
    {
      "stateMutability": "payable",
      "type": "fallback"
    },
    {
      "inputs": [
        {
          "internalType": "string",
          "name": "causeName",
          "type": "string"
        },
        {
          "internalType": "uint256",
          "name": "goal",
          "type": "uint256"
        }
      ],
      "name": "createCause",
      "outputs": [
        {
          "internalType": "address",
          "name": "",
          "type": "address"
        }
      ],
      "stateMutability": "nonpayable",
      "type": "function"
    },
    {
      "inputs": [
        {
          "internalType": "address",
          "name": "owner",
          "type": "address"
        }
      ],
      "name": "getCauseAddressByOwnerWallet",
      "outputs": [
        {
          "internalType": "address",
          "name": "",
          "type": "address"
        }
      ],
      "stateMutability": "view",
      "type": "function"
    },
    {
      "inputs": [
        {
          "internalType": "uint256",
          "name": "causeId",
          "type": "uint256"
        }
      ],
      "name": "getCauseById",
      "outputs": [
        {
          "internalType": "address",
          "name": "",
          "type": "address"
        }
      ],
      "stateMutability": "view",
      "type": "function"
    },
    {
      "inputs": [],
      "name": "getContractBalance",
      "outputs": [
        {
          "internalType": "uint256",
          "name": "",
          "type": "uint256"
        }
      ],
      "stateMutability": "view",
      "type": "function"
    },
    {
      "inputs": [],
      "name": "getMyCause",
      "outputs": [
        {
          "internalType": "uint256",
          "name": "",
          "type": "uint256"
        },
        {
          "internalType": "address",
          "name": "",
          "type": "address"
        }
      ],
      "stateMutability": "view",
      "type": "function"
    },
    {
      "inputs": [
        {
          "internalType": "address",
          "name": "",
          "type": "address"
        }
      ],
      "name": "hasCause",
      "outputs": [
        {
          "internalType": "uint256",
          "name": "",
          "type": "uint256"
        }
      ],
      "stateMutability": "view",
      "type": "function"
    },
    {
      "inputs": [],
      "name": "i_crowdFunderOwner",
      "outputs": [
        {
          "internalType": "address payable",
          "name": "",
          "type": "address"
        }
      ],
      "stateMutability": "view",
      "type": "function"
    },
    {
      "inputs": [],
      "name": "i_percentCut",
      "outputs": [
        {
          "internalType": "uint256",
          "name": "",
          "type": "uint256"
        }
      ],
      "stateMutability": "view",
      "type": "function"
    },
    {
      "inputs": [
        {
          "internalType": "uint256",
          "name": "",
          "type": "uint256"
        }
      ],
      "name": "s_causes",
      "outputs": [
        {
          "internalType": "contract Cause",
          "name": "",
          "type": "address"
        }
      ],
      "stateMutability": "view",
      "type": "function"
    },
    {
      "inputs": [],
      "name": "s_nextCauseId",
      "outputs": [
        {
          "internalType": "uint256",
          "name": "",
          "type": "uint256"
        }
      ],
      "stateMutability": "view",
      "type": "function"
    },
    {
      "inputs": [],
      "name": "sponsorSite",
      "outputs": [],
      "stateMutability": "payable",
      "type": "function"
    },
    {
      "inputs": [
        {
          "internalType": "address",
          "name": "",
          "type": "address"
        }
      ],
      "name": "walletToCauseOwned",
      "outputs": [
        {
          "internalType": "address",
          "name": "",
          "type": "address"
        }
      ],
      "stateMutability": "view",
      "type": "function"
    },
    {
      "inputs": [],
      "name": "withdraw",
      "outputs": [],
      "stateMutability": "payable",
      "type": "function"
    },
    {
      "stateMutability": "payable",
      "type": "receive"
    }
  ],
  "transactionHash": "0x5db862ca84b339da7b25233125e3d97b84e0d53b9b8d120523832a454f9a6d04",
  "args": [
    "300"
  ],
  "numDeployments": 1,
  "solcInputHash": "d168eecd53edcdeafb1556c27a255364",
  "bytecode": "0x60c060405234801561001057600080fd5b5060405162002d9e38038062002d9e83398181016040528101906100349190610096565b3373ffffffffffffffffffffffffffffffffffffffff1660808173ffffffffffffffffffffffffffffffffffffffff1660601b815250508060a081815250506001600281905550506100e9565b600081519050610090816100d2565b92915050565b6000602082840312156100ac576100ab6100cd565b5b60006100ba84828501610081565b91505092915050565b6000819050919050565b600080fd5b6100db816100c3565b81146100e657600080fd5b50565b60805160601c60a051612c7e62000120600039600081816104e6015261065f0152600081816103e601526105b30152612c7e6000f3fe608060405260043610620000d95760003560e01c80636c7c3a5d116200008b578063a9ccb0fe1162000061578063a9ccb0fe1462000319578063acc00143146200035d578063bb5db23c1462000369578063e812500b146200039a576200010e565b80636c7c3a5d14620002755780636f9fb98a14620002a5578063930e4c8b14620002d5576200010e565b806330adbc74146200013d5780633ccfd60b146200016d5780634a0cf0fb146200017957806351340f4f14620001a9578063580ca24c14620001ed57806364650eff1462000231576200010e565b366200010e57347f9874a7967abbb8701e946ae29391c091f59962f042ba4b5d99b1ed7f2e2e3e5560405160405180910390a2005b347f9874a7967abbb8701e946ae29391c091f59962f042ba4b5d99b1ed7f2e2e3e5560405160405180910390a2005b3480156200014a57600080fd5b5062000155620003de565b60405162000164919062000c4b565b60405180910390f35b62000177620003e4565b005b3480156200018657600080fd5b5062000191620004e4565b604051620001a0919062000c4b565b60405180910390f35b348015620001b657600080fd5b50620001d56004803603810190620001cf919062000a41565b62000508565b604051620001e4919062000b90565b60405180910390f35b348015620001fa57600080fd5b5062000219600480360381019062000213919062000a41565b6200053b565b60405162000228919062000c4b565b60405180910390f35b3480156200023e57600080fd5b506200025d600480360381019062000257919062000ad9565b62000553565b6040516200026c919062000b90565b60405180910390f35b3480156200028257600080fd5b506200028d620005b1565b6040516200029c919062000bad565b60405180910390f35b348015620002b257600080fd5b50620002bd620005d5565b604051620002cc919062000c4b565b60405180910390f35b348015620002e257600080fd5b50620003016004803603810190620002fb919062000a73565b620005dd565b60405162000310919062000b90565b60405180910390f35b3480156200032657600080fd5b506200034560048036038101906200033f919062000a41565b62000849565b60405162000354919062000b90565b60405180910390f35b62000367620008b6565b005b3480156200037657600080fd5b5062000381620008e5565b6040516200039192919062000c68565b60405180910390f35b348015620003a757600080fd5b50620003c66004803603810190620003c0919062000ad9565b62000947565b604051620003d5919062000bca565b60405180910390f35b60025481565b7f000000000000000000000000000000000000000000000000000000000000000073ffffffffffffffffffffffffffffffffffffffff163373ffffffffffffffffffffffffffffffffffffffff16146200046a576040517f4f227fdb00000000000000000000000000000000000000000000000000000000815260040160405180910390fd5b600047905060003373ffffffffffffffffffffffffffffffffffffffff166108fc839081150290604051600060405180830381858888f19350505050905080620004e0576040517fb60ef3b700000000000000000000000000000000000000000000000000000000815260040160405180910390fd5b5050565b7f000000000000000000000000000000000000000000000000000000000000000081565b60006020528060005260406000206000915054906101000a900473ffffffffffffffffffffffffffffffffffffffff1681565b60016020528060005260406000206000915090505481565b600080600360018462000567919062000d6d565b815481106200057b576200057a62000ee0565b5b9060005260206000200160009054906101000a900473ffffffffffffffffffffffffffffffffffffffff16905080915050919050565b7f000000000000000000000000000000000000000000000000000000000000000081565b600047905090565b600080600160003373ffffffffffffffffffffffffffffffffffffffff1673ffffffffffffffffffffffffffffffffffffffff168152602001908152602001600020541462000658576040517f66a7ac8000000000000000000000000000000000000000000000000000000000815260040160405180910390fd5b60008383337f00000000000000000000000000000000000000000000000000000000000000006002546040516200068f9062000987565b6200069f95949392919062000be7565b604051809103906000f080158015620006bc573d6000803e3d6000fd5b5090506003819080600181540180825580915050600190039060005260206000200160009091909190916101000a81548173ffffffffffffffffffffffffffffffffffffffff021916908373ffffffffffffffffffffffffffffffffffffffff160217905550806000803373ffffffffffffffffffffffffffffffffffffffff1673ffffffffffffffffffffffffffffffffffffffff16815260200190815260200160002060006101000a81548173ffffffffffffffffffffffffffffffffffffffff021916908373ffffffffffffffffffffffffffffffffffffffff160217905550600254600160003373ffffffffffffffffffffffffffffffffffffffff1673ffffffffffffffffffffffffffffffffffffffff168152602001908152602001600020819055506001600254620007f6919062000d10565b6002819055508073ffffffffffffffffffffffffffffffffffffffff167f8d41e52c133717d879952d81e8b37582cb51f582d4cb7850e2db6d012141a11c60405160405180910390a28091505092915050565b6000806000808473ffffffffffffffffffffffffffffffffffffffff1673ffffffffffffffffffffffffffffffffffffffff16815260200190815260200160002060009054906101000a900473ffffffffffffffffffffffffffffffffffffffff16905080915050919050565b347f9874a7967abbb8701e946ae29391c091f59962f042ba4b5d99b1ed7f2e2e3e5560405160405180910390a2565b6000806000620008f53362000849565b90506000600160003373ffffffffffffffffffffffffffffffffffffffff1673ffffffffffffffffffffffffffffffffffffffff16815260200190815260200160002054905080829350935050509091565b600381815481106200095857600080fd5b906000526020600020016000915054906101000a900473ffffffffffffffffffffffffffffffffffffffff1681565b611cb18062000f9883390190565b6000620009ac620009a68462000cbe565b62000c95565b905082815260208101848484011115620009cb57620009ca62000f43565b5b620009d884828562000e36565b509392505050565b600081359050620009f18162000f63565b92915050565b600082601f83011262000a0f5762000a0e62000f3e565b5b813562000a2184826020860162000995565b91505092915050565b60008135905062000a3b8162000f7d565b92915050565b60006020828403121562000a5a5762000a5962000f4d565b5b600062000a6a84828501620009e0565b91505092915050565b6000806040838503121562000a8d5762000a8c62000f4d565b5b600083013567ffffffffffffffff81111562000aae5762000aad62000f48565b5b62000abc85828601620009f7565b925050602062000acf8582860162000a2a565b9150509250929050565b60006020828403121562000af25762000af162000f4d565b5b600062000b028482850162000a2a565b91505092915050565b62000b168162000dbc565b82525050565b62000b278162000da8565b82525050565b62000b388162000dfa565b82525050565b600062000b4b8262000cf4565b62000b57818562000cff565b935062000b6981856020860162000e45565b62000b748162000f52565b840191505092915050565b62000b8a8162000df0565b82525050565b600060208201905062000ba7600083018462000b1c565b92915050565b600060208201905062000bc4600083018462000b0b565b92915050565b600060208201905062000be1600083018462000b2d565b92915050565b600060a082019050818103600083015262000c03818862000b3e565b905062000c14602083018762000b7f565b62000c23604083018662000b0b565b62000c32606083018562000b7f565b62000c41608083018462000b7f565b9695505050505050565b600060208201905062000c62600083018462000b7f565b92915050565b600060408201905062000c7f600083018562000b7f565b62000c8e602083018462000b1c565b9392505050565b600062000ca162000cb4565b905062000caf828262000e7b565b919050565b6000604051905090565b600067ffffffffffffffff82111562000cdc5762000cdb62000f0f565b5b62000ce78262000f52565b9050602081019050919050565b600081519050919050565b600082825260208201905092915050565b600062000d1d8262000df0565b915062000d2a8362000df0565b9250827fffffffffffffffffffffffffffffffffffffffffffffffffffffffffffffffff0382111562000d625762000d6162000eb1565b5b828201905092915050565b600062000d7a8262000df0565b915062000d878362000df0565b92508282101562000d9d5762000d9c62000eb1565b5b828203905092915050565b600062000db58262000dd0565b9050919050565b600062000dc98262000dd0565b9050919050565b600073ffffffffffffffffffffffffffffffffffffffff82169050919050565b6000819050919050565b600062000e078262000e0e565b9050919050565b600062000e1b8262000e22565b9050919050565b600062000e2f8262000dd0565b9050919050565b82818337600083830152505050565b60005b8381101562000e6557808201518184015260208101905062000e48565b8381111562000e75576000848401525b50505050565b62000e868262000f52565b810181811067ffffffffffffffff8211171562000ea85762000ea762000f0f565b5b80604052505050565b7f4e487b7100000000000000000000000000000000000000000000000000000000600052601160045260246000fd5b7f4e487b7100000000000000000000000000000000000000000000000000000000600052603260045260246000fd5b7f4e487b7100000000000000000000000000000000000000000000000000000000600052604160045260246000fd5b600080fd5b600080fd5b600080fd5b600080fd5b6000601f19601f8301169050919050565b62000f6e8162000da8565b811462000f7a57600080fd5b50565b62000f888162000df0565b811462000f9457600080fd5b5056fe60e06040523480156200001157600080fd5b5060405162001cb138038062001cb183398181016040528101906200003791906200026b565b33600260006101000a81548173ffffffffffffffffffffffffffffffffffffffff021916908373ffffffffffffffffffffffffffffffffffffffff1602179055508460039080519060200190620000909291906200010f565b5082600160036101000a81548173ffffffffffffffffffffffffffffffffffffffff021916908373ffffffffffffffffffffffffffffffffffffffff160217905550836080818152505060018060016101000a81548160ff0219169083151502179055508160a081815250508060c08181525050505050505062000508565b8280546200011d90620003e5565b90600052602060002090601f0160209004810192826200014157600085556200018d565b82601f106200015c57805160ff19168380011785556200018d565b828001600101855582156200018d579182015b828111156200018c5782518255916020019190600101906200016f565b5b5090506200019c9190620001a0565b5090565b5b80821115620001bb576000816000905550600101620001a1565b5090565b6000620001d6620001d0846200033b565b62000312565b905082815260208101848484011115620001f557620001f4620004b4565b5b62000202848285620003af565b509392505050565b6000815190506200021b81620004d4565b92915050565b600082601f830112620002395762000238620004af565b5b81516200024b848260208601620001bf565b91505092915050565b6000815190506200026581620004ee565b92915050565b600080600080600060a086880312156200028a5762000289620004be565b5b600086015167ffffffffffffffff811115620002ab57620002aa620004b9565b5b620002b98882890162000221565b9550506020620002cc8882890162000254565b9450506040620002df888289016200020a565b9350506060620002f28882890162000254565b9250506080620003058882890162000254565b9150509295509295909350565b60006200031e62000331565b90506200032c82826200041b565b919050565b6000604051905090565b600067ffffffffffffffff82111562000359576200035862000480565b5b6200036482620004c3565b9050602081019050919050565b60006200037e8262000385565b9050919050565b600073ffffffffffffffffffffffffffffffffffffffff82169050919050565b6000819050919050565b60005b83811015620003cf578082015181840152602081019050620003b2565b83811115620003df576000848401525b50505050565b60006002820490506001821680620003fe57607f821691505b6020821081141562000415576200041462000451565b5b50919050565b6200042682620004c3565b810181811067ffffffffffffffff8211171562000448576200044762000480565b5b80604052505050565b7f4e487b7100000000000000000000000000000000000000000000000000000000600052602260045260246000fd5b7f4e487b7100000000000000000000000000000000000000000000000000000000600052604160045260246000fd5b600080fd5b600080fd5b600080fd5b600080fd5b6000601f19601f8301169050919050565b620004df8162000371565b8114620004eb57600080fd5b50565b620004f981620003a5565b81146200050557600080fd5b50565b60805160a05160c0516117646200054d60003960006107530152600081816109ca0152610b930152600081816106a501528181610d690152610da201526117646000f3fe60806040526004361061014f5760003560e01c8063748ce70a116100b6578063c622bb201161006f578063c622bb201461047c578063d4f2a4d5146104a7578063d9d25813146104be578063dfcf7a8c146104e7578063ed88c68e14610512578063f03232a31461051c5761015e565b8063748ce70a1461036857806380e1204f14610393578063a67e30cb146103d0578063af1aa9f9146103fb578063b97a7d2414610426578063c38804a5146104515761015e565b80633ccfd60b116101085780633ccfd60b146102685780634a0cf0fb1461027f5780635edd2267146102aa5780635eed3dcb146102d5578063642874b614610312578063643b28701461033d5761015e565b80630294d01114610168578063092dcb4c146101935780632af4c31e146101be5780632d3297b6146101e7578063306addc41461021257806339d7e8a41461023d5761015e565b3661015e5761015c610547565b005b610166610547565b005b34801561017457600080fd5b5061017d610751565b60405161018a919061139b565b60405180910390f35b34801561019f57600080fd5b506101a8610775565b6040516101b5919061135e565b60405180910390f35b3480156101ca57600080fd5b506101e560048036038101906101e0919061123a565b61078c565b005b3480156101f357600080fd5b506101fc61089a565b604051610209919061139b565b60405180910390f35b34801561021e57600080fd5b506102276108a3565b6040516102349190611379565b60405180910390f35b34801561024957600080fd5b50610252610931565b60405161025f919061139b565b60405180910390f35b34801561027457600080fd5b5061027d610937565b005b34801561028b57600080fd5b50610294610b91565b6040516102a1919061139b565b60405180910390f35b3480156102b657600080fd5b506102bf610bb5565b6040516102cc9190611379565b60405180910390f35b3480156102e157600080fd5b506102fc60048036038101906102f791906112b0565b610c43565b6040516103099190611343565b60405180910390f35b34801561031e57600080fd5b50610327610c82565b6040516103349190611379565b60405180910390f35b34801561034957600080fd5b50610352610d14565b60405161035f9190611343565b60405180910390f35b34801561037457600080fd5b5061037d610d3a565b60405161038a919061135e565b60405180910390f35b34801561039f57600080fd5b506103ba60048036038101906103b5919061120d565b610d4f565b6040516103c7919061139b565b60405180910390f35b3480156103dc57600080fd5b506103e5610d67565b6040516103f2919061139b565b60405180910390f35b34801561040757600080fd5b50610410610d8b565b60405161041d919061135e565b60405180910390f35b34801561043257600080fd5b5061043b610d9e565b604051610448919061139b565b60405180910390f35b34801561045d57600080fd5b50610466610dc6565b6040516104739190611343565b60405180910390f35b34801561048857600080fd5b50610491610dec565b60405161049e9190611343565b60405180910390f35b3480156104b357600080fd5b506104bc610e16565b005b3480156104ca57600080fd5b506104e560048036038101906104e09190611267565b610f77565b005b3480156104f357600080fd5b506104fc611018565b604051610509919061135e565b60405180910390f35b61051a610547565b005b34801561052857600080fd5b50610531611029565b60405161053e9190611379565b60405180910390f35b600160009054906101000a900460ff161561058e576040517f7d6ebcc700000000000000000000000000000000000000000000000000000000815260040160405180910390fd5b60018054906101000a900460ff166105d2576040517f9f6f715500000000000000000000000000000000000000000000000000000000815260040160405180910390fd5b346000808282546105e39190611428565b925050819055506006339080600181540180825580915050600190039060005260206000200160009091909190916101000a81548173ffffffffffffffffffffffffffffffffffffffff021916908373ffffffffffffffffffffffffffffffffffffffff16021790555034600560003373ffffffffffffffffffffffffffffffffffffffff1673ffffffffffffffffffffffffffffffffffffffff168152602001908152602001600020600082825461069c9190611428565b925050819055507f0000000000000000000000000000000000000000000000000000000000000000600054106107015760018060006101000a81548160ff02191690831515021790555060006001806101000a81548160ff0219169083151502179055505b3373ffffffffffffffffffffffffffffffffffffffff167faa13962bc79c7a0bc42cb8169b1705f0a6b55cc404ffb8a589d771ca7867597834604051610747919061139b565b60405180910390a2565b7f000000000000000000000000000000000000000000000000000000000000000081565b6000600160009054906101000a900460ff16905090565b600160039054906101000a900473ffffffffffffffffffffffffffffffffffffffff1673ffffffffffffffffffffffffffffffffffffffff163373ffffffffffffffffffffffffffffffffffffffff1614610813576040517f18f09efd00000000000000000000000000000000000000000000000000000000815260040160405180910390fd5b80600160036101000a81548173ffffffffffffffffffffffffffffffffffffffff021916908373ffffffffffffffffffffffffffffffffffffffff1602179055508073ffffffffffffffffffffffffffffffffffffffff167f595ee9ffef04d4d652b768860c56905a48f5ab79124bb3b2279df1885536991d60405160405180910390a250565b60008054905090565b600480546108b0906115a5565b80601f01602080910402602001604051908101604052809291908181526020018280546108dc906115a5565b80156109295780601f106108fe57610100808354040283529160200191610929565b820191906000526020600020905b81548152906001019060200180831161090c57829003601f168201915b505050505081565b60005481565b600160039054906101000a900473ffffffffffffffffffffffffffffffffffffffff1673ffffffffffffffffffffffffffffffffffffffff163373ffffffffffffffffffffffffffffffffffffffff16146109be576040517f18f09efd00000000000000000000000000000000000000000000000000000000815260040160405180910390fd5b600047905060006127107f0000000000000000000000000000000000000000000000000000000000000000836109f491906114af565b6109fe919061147e565b90506000600260009054906101000a900473ffffffffffffffffffffffffffffffffffffffff1673ffffffffffffffffffffffffffffffffffffffff166108fc839081150290604051600060405180830381858888f19350505050905080610a92576040517f7824242700000000000000000000000000000000000000000000000000000000815260040160405180910390fd5b60003373ffffffffffffffffffffffffffffffffffffffff166108fc479081150290604051600060405180830381858888f19350505050905080610b02576040517f7824242700000000000000000000000000000000000000000000000000000000815260040160405180910390fd5b60006001806101000a81548160ff0219169083151502179055506000808190555060018060026101000a81548160ff0219169083151502179055503373ffffffffffffffffffffffffffffffffffffffff167fbc158bb64f05d6383aea69bbb0b20c1bbf4b7a18f63359c5649b7c39e29d388485604051610b83919061139b565b60405180910390a250505050565b7f000000000000000000000000000000000000000000000000000000000000000081565b60038054610bc2906115a5565b80601f0160208091040260200160405190810160405280929190818152602001828054610bee906115a5565b8015610c3b5780601f10610c1057610100808354040283529160200191610c3b565b820191906000526020600020905b815481529060010190602001808311610c1e57829003601f168201915b505050505081565b60068181548110610c5357600080fd5b906000526020600020016000915054906101000a900473ffffffffffffffffffffffffffffffffffffffff1681565b606060048054610c91906115a5565b80601f0160208091040260200160405190810160405280929190818152602001828054610cbd906115a5565b8015610d0a5780601f10610cdf57610100808354040283529160200191610d0a565b820191906000526020600020905b815481529060010190602001808311610ced57829003601f168201915b5050505050905090565b600160039054906101000a900473ffffffffffffffffffffffffffffffffffffffff1681565b600060018054906101000a900460ff16905090565b60056020528060005260406000206000915090505481565b7f000000000000000000000000000000000000000000000000000000000000000081565b600160009054906101000a900460ff1681565b60007f0000000000000000000000000000000000000000000000000000000000000000905090565b600260009054906101000a900473ffffffffffffffffffffffffffffffffffffffff1681565b6000600160039054906101000a900473ffffffffffffffffffffffffffffffffffffffff16905090565b600160039054906101000a900473ffffffffffffffffffffffffffffffffffffffff1673ffffffffffffffffffffffffffffffffffffffff163373ffffffffffffffffffffffffffffffffffffffff1614610e9d576040517f18f09efd00000000000000000000000000000000000000000000000000000000815260040160405180910390fd5b60018054906101000a900460ff1615610ecf5760006001806101000a81548160ff021916908315150217905550610f31565b600160029054906101000a900460ff1615610f16576040517fb5608ae600000000000000000000000000000000000000000000000000000000815260040160405180910390fd5b60018060016101000a81548160ff0219169083151502179055505b7f6f5be26fb94646fadcdf16147ddd35138ad497ce000f92f12eadbaa19497c53360018054906101000a900460ff16604051610f6d919061135e565b60405180910390a1565b600160039054906101000a900473ffffffffffffffffffffffffffffffffffffffff1673ffffffffffffffffffffffffffffffffffffffff163373ffffffffffffffffffffffffffffffffffffffff1614610ffe576040517f18f09efd00000000000000000000000000000000000000000000000000000000815260040160405180910390fd5b80600490805190602001906110149291906110bb565b5050565b60018054906101000a900460ff1681565b606060038054611038906115a5565b80601f0160208091040260200160405190810160405280929190818152602001828054611064906115a5565b80156110b15780601f10611086576101008083540402835291602001916110b1565b820191906000526020600020905b81548152906001019060200180831161109457829003601f168201915b5050505050905090565b8280546110c7906115a5565b90600052602060002090601f0160209004810192826110e95760008555611130565b82601f1061110257805160ff1916838001178555611130565b82800160010185558215611130579182015b8281111561112f578251825591602001919060010190611114565b5b50905061113d9190611141565b5090565b5b8082111561115a576000816000905550600101611142565b5090565b600061117161116c846113db565b6113b6565b90508281526020810184848401111561118d5761118c6116c9565b5b611198848285611563565b509392505050565b6000813590506111af816116e9565b92915050565b6000813590506111c481611700565b92915050565b600082601f8301126111df576111de6116c4565b5b81356111ef84826020860161115e565b91505092915050565b60008135905061120781611717565b92915050565b600060208284031215611223576112226116d3565b5b6000611231848285016111a0565b91505092915050565b6000602082840312156112505761124f6116d3565b5b600061125e848285016111b5565b91505092915050565b60006020828403121561127d5761127c6116d3565b5b600082013567ffffffffffffffff81111561129b5761129a6116ce565b5b6112a7848285016111ca565b91505092915050565b6000602082840312156112c6576112c56116d3565b5b60006112d4848285016111f8565b91505092915050565b6112e681611509565b82525050565b6112f58161152d565b82525050565b60006113068261140c565b6113108185611417565b9350611320818560208601611572565b611329816116d8565b840191505092915050565b61133d81611559565b82525050565b600060208201905061135860008301846112dd565b92915050565b600060208201905061137360008301846112ec565b92915050565b6000602082019050818103600083015261139381846112fb565b905092915050565b60006020820190506113b06000830184611334565b92915050565b60006113c06113d1565b90506113cc82826115d7565b919050565b6000604051905090565b600067ffffffffffffffff8211156113f6576113f5611695565b5b6113ff826116d8565b9050602081019050919050565b600081519050919050565b600082825260208201905092915050565b600061143382611559565b915061143e83611559565b9250827fffffffffffffffffffffffffffffffffffffffffffffffffffffffffffffffff0382111561147357611472611608565b5b828201905092915050565b600061148982611559565b915061149483611559565b9250826114a4576114a3611637565b5b828204905092915050565b60006114ba82611559565b91506114c583611559565b9250817fffffffffffffffffffffffffffffffffffffffffffffffffffffffffffffffff04831182151516156114fe576114fd611608565b5b828202905092915050565b600061151482611539565b9050919050565b600061152682611539565b9050919050565b60008115159050919050565b600073ffffffffffffffffffffffffffffffffffffffff82169050919050565b6000819050919050565b82818337600083830152505050565b60005b83811015611590578082015181840152602081019050611575565b8381111561159f576000848401525b50505050565b600060028204905060018216806115bd57607f821691505b602082108114156115d1576115d0611666565b5b50919050565b6115e0826116d8565b810181811067ffffffffffffffff821117156115ff576115fe611695565b5b80604052505050565b7f4e487b7100000000000000000000000000000000000000000000000000000000600052601160045260246000fd5b7f4e487b7100000000000000000000000000000000000000000000000000000000600052601260045260246000fd5b7f4e487b7100000000000000000000000000000000000000000000000000000000600052602260045260246000fd5b7f4e487b7100000000000000000000000000000000000000000000000000000000600052604160045260246000fd5b600080fd5b600080fd5b600080fd5b600080fd5b6000601f19601f8301169050919050565b6116f281611509565b81146116fd57600080fd5b50565b6117098161151b565b811461171457600080fd5b50565b61172081611559565b811461172b57600080fd5b5056fea26469706673582212207b202065da7d3f2ce7371adfd26617ee95fd27f407257b729cd35e8be32c1d0364736f6c63430008070033a2646970667358221220cc7f6cae66e754871e8cea06c8b8e7333b69b1f7e08d2aab53d2e2aa7d4977e264736f6c63430008070033",
  "devdoc": {
    "kind": "dev",
    "methods": {},
    "version": 1
  },
  "userdoc": {
    "kind": "user",
    "methods": {},
    "version": 1
  },
  "storageLayout": {
    "storage": [
      {
        "astId": 396,
        "contract": "contracts/CrowdFunder.sol:CrowdFunder",
        "label": "walletToCauseOwned",
        "offset": 0,
        "slot": "0",
        "type": "t_mapping(t_address,t_address)"
      },
      {
        "astId": 400,
        "contract": "contracts/CrowdFunder.sol:CrowdFunder",
        "label": "hasCause",
        "offset": 0,
        "slot": "1",
        "type": "t_mapping(t_address,t_uint256)"
      },
      {
        "astId": 404,
        "contract": "contracts/CrowdFunder.sol:CrowdFunder",
        "label": "s_nextCauseId",
        "offset": 0,
        "slot": "2",
        "type": "t_uint256"
      },
      {
        "astId": 408,
        "contract": "contracts/CrowdFunder.sol:CrowdFunder",
        "label": "s_causes",
        "offset": 0,
        "slot": "3",
        "type": "t_array(t_contract(Cause)387)dyn_storage"
      }
    ],
    "types": {
      "t_address": {
        "encoding": "inplace",
        "label": "address",
        "numberOfBytes": "20"
      },
      "t_array(t_contract(Cause)387)dyn_storage": {
        "base": "t_contract(Cause)387",
        "encoding": "dynamic_array",
        "label": "contract Cause[]",
        "numberOfBytes": "32"
      },
      "t_contract(Cause)387": {
        "encoding": "inplace",
        "label": "contract Cause",
        "numberOfBytes": "20"
      },
      "t_mapping(t_address,t_address)": {
        "encoding": "mapping",
        "key": "t_address",
        "label": "mapping(address => address)",
        "numberOfBytes": "32",
        "value": "t_address"
      },
      "t_mapping(t_address,t_uint256)": {
        "encoding": "mapping",
        "key": "t_address",
        "label": "mapping(address => uint256)",
        "numberOfBytes": "32",
        "value": "t_uint256"
      },
      "t_uint256": {
        "encoding": "inplace",
        "label": "uint256",
        "numberOfBytes": "32"
      }
    }
  }
}