{
  "address": "0x5FbDB2315678afecb367f032d93F642f64180aa3",
  "abi": [
    {
      "inputs": [
        {
          "internalType": "uint256",
          "name": "percentCut",
          "type": "uint256"
        }
      ],
      "stateMutability": "nonpayable",
      "type": "constructor"
    },
    {
      "inputs": [],
      "name": "CrowdFunder__ErrorWithdrawing",
      "type": "error"
    },
    {
      "inputs": [],
      "name": "CrowdFunder__OnlyOwnerCanCallThis",
      "type": "error"
    },
    {
      "inputs": [],
      "name": "CrowdFunder__ThisWalletAlreadyHasACause",
      "type": "error"
    },
    {
      "anonymous": false,
      "inputs": [
        {
          "indexed": true,
          "internalType": "address",
          "name": "causeAddress",
          "type": "address"
        }
      ],
      "name": "CauseCreated",
      "type": "event"
    },
    {
      "anonymous": false,
      "inputs": [
        {
          "indexed": true,
          "internalType": "uint256",
          "name": "amount",
          "type": "uint256"
        }
      ],
      "name": "DonationReceived",
      "type": "event"
    },
    {
      "anonymous": false,
      "inputs": [
        {
          "indexed": true,
          "internalType": "uint256",
          "name": "amount",
          "type": "uint256"
        }
      ],
      "name": "WithdrawalMade",
      "type": "event"
    },
    {
      "stateMutability": "payable",
      "type": "fallback"
    },
    {
      "inputs": [
        {
          "internalType": "address",
          "name": "",
          "type": "address"
        }
      ],
      "name": "causeToId",
      "outputs": [
        {
          "internalType": "uint256",
          "name": "",
          "type": "uint256"
        }
      ],
      "stateMutability": "view",
      "type": "function"
    },
    {
      "inputs": [
        {
          "internalType": "address",
          "name": "causeToCheck",
          "type": "address"
        }
      ],
      "name": "confirmCause",
      "outputs": [
        {
          "internalType": "bool",
          "name": "",
          "type": "bool"
        }
      ],
      "stateMutability": "view",
      "type": "function"
    },
    {
      "inputs": [
        {
          "internalType": "string",
          "name": "causeName",
          "type": "string"
        },
        {
          "internalType": "uint256",
          "name": "goal",
          "type": "uint256"
        }
      ],
      "name": "createCause",
      "outputs": [
        {
          "internalType": "address",
          "name": "",
          "type": "address"
        }
      ],
      "stateMutability": "nonpayable",
      "type": "function"
    },
    {
      "inputs": [
        {
          "internalType": "address",
          "name": "owner",
          "type": "address"
        }
      ],
      "name": "getCauseAddressByOwnerWallet",
      "outputs": [
        {
          "internalType": "address",
          "name": "",
          "type": "address"
        }
      ],
      "stateMutability": "view",
      "type": "function"
    },
    {
      "inputs": [
        {
          "internalType": "uint256",
          "name": "causeId",
          "type": "uint256"
        }
      ],
      "name": "getCauseById",
      "outputs": [
        {
          "internalType": "address",
          "name": "",
          "type": "address"
        }
      ],
      "stateMutability": "view",
      "type": "function"
    },
    {
      "inputs": [
        {
          "internalType": "address",
          "name": "causeAddress",
          "type": "address"
        }
      ],
      "name": "getCauseIdByCauseAddress",
      "outputs": [
        {
          "internalType": "uint256",
          "name": "",
          "type": "uint256"
        }
      ],
      "stateMutability": "view",
      "type": "function"
    },
    {
      "inputs": [
        {
          "internalType": "address",
          "name": "owner",
          "type": "address"
        }
      ],
      "name": "getCauseIdByOwnerAddress",
      "outputs": [
        {
          "internalType": "uint256",
          "name": "",
          "type": "uint256"
        }
      ],
      "stateMutability": "view",
      "type": "function"
    },
    {
      "inputs": [],
      "name": "getContractBalance",
      "outputs": [
        {
          "internalType": "uint256",
          "name": "",
          "type": "uint256"
        }
      ],
      "stateMutability": "view",
      "type": "function"
    },
    {
      "inputs": [],
      "name": "getContractOwner",
      "outputs": [
        {
          "internalType": "address",
          "name": "",
          "type": "address"
        }
      ],
      "stateMutability": "view",
      "type": "function"
    },
    {
      "inputs": [],
      "name": "getLatestCauseAddress",
      "outputs": [
        {
          "internalType": "address",
          "name": "",
          "type": "address"
        }
      ],
      "stateMutability": "view",
      "type": "function"
    },
    {
      "inputs": [],
      "name": "getMyCauseId",
      "outputs": [
        {
          "internalType": "uint256",
          "name": "",
          "type": "uint256"
        }
      ],
      "stateMutability": "view",
      "type": "function"
    },
    {
      "inputs": [],
      "name": "getPercentCut",
      "outputs": [
        {
          "internalType": "uint256",
          "name": "",
          "type": "uint256"
        }
      ],
      "stateMutability": "view",
      "type": "function"
    },
    {
      "inputs": [
        {
          "internalType": "address",
          "name": "newOwner",
          "type": "address"
        }
      ],
      "name": "handover",
      "outputs": [],
      "stateMutability": "nonpayable",
      "type": "function"
    },
    {
      "inputs": [
        {
          "internalType": "address",
          "name": "",
          "type": "address"
        }
      ],
      "name": "hasCause",
      "outputs": [
        {
          "internalType": "uint256",
          "name": "",
          "type": "uint256"
        }
      ],
      "stateMutability": "view",
      "type": "function"
    },
    {
      "inputs": [],
      "name": "i_crowdFunderOwner",
      "outputs": [
        {
          "internalType": "address payable",
          "name": "",
          "type": "address"
        }
      ],
      "stateMutability": "view",
      "type": "function"
    },
    {
      "inputs": [],
      "name": "i_percentCut",
      "outputs": [
        {
          "internalType": "uint256",
          "name": "",
          "type": "uint256"
        }
      ],
      "stateMutability": "view",
      "type": "function"
    },
    {
      "inputs": [
        {
          "internalType": "uint256",
          "name": "causeId",
          "type": "uint256"
        }
      ],
      "name": "lock",
      "outputs": [],
      "stateMutability": "nonpayable",
      "type": "function"
    },
    {
      "inputs": [
        {
          "internalType": "uint256",
          "name": "",
          "type": "uint256"
        }
      ],
      "name": "s_causes",
      "outputs": [
        {
          "internalType": "contract Cause",
          "name": "",
          "type": "address"
        }
      ],
      "stateMutability": "view",
      "type": "function"
    },
    {
      "inputs": [],
      "name": "s_nextCauseId",
      "outputs": [
        {
          "internalType": "uint256",
          "name": "",
          "type": "uint256"
        }
      ],
      "stateMutability": "view",
      "type": "function"
    },
    {
      "inputs": [],
      "name": "sponsorSite",
      "outputs": [],
      "stateMutability": "payable",
      "type": "function"
    },
    {
      "inputs": [
        {
          "internalType": "uint256",
          "name": "causeId",
          "type": "uint256"
        }
      ],
      "name": "unlock",
      "outputs": [],
      "stateMutability": "nonpayable",
      "type": "function"
    },
    {
      "inputs": [
        {
          "internalType": "address",
          "name": "",
          "type": "address"
        }
      ],
      "name": "walletToCauseOwned",
      "outputs": [
        {
          "internalType": "address",
          "name": "",
          "type": "address"
        }
      ],
      "stateMutability": "view",
      "type": "function"
    },
    {
      "inputs": [],
      "name": "withdraw",
      "outputs": [],
      "stateMutability": "payable",
      "type": "function"
    },
    {
      "stateMutability": "payable",
      "type": "receive"
    }
  ],
  "transactionHash": "0x993f179552f782bfcfe767a147b08877cbbd3413bcf0fdf4f9ade79d194da6e3",
  "args": [
    "300"
  ],
  "numDeployments": 1,
  "solcInputHash": "3e353dafb750407f34144683d635ab2f",
  "bytecode": "0x60c06040523480156200001157600080fd5b50604051620041e2380380620041e283398181016040528101906200003791906200009c565b3373ffffffffffffffffffffffffffffffffffffffff1660808173ffffffffffffffffffffffffffffffffffffffff1660601b815250508060a08181525050600160038190555050620000f7565b6000815190506200009681620000dd565b92915050565b600060208284031215620000b557620000b4620000d8565b5b6000620000c58482850162000085565b91505092915050565b6000819050919050565b600080fd5b620000e881620000ce565b8114620000f457600080fd5b50565b60805160601c60a0516140986200014a60003960008181610b8801528181610e0f0152610eb50152600081816107a201528181610b6201528181610bf701528181610d9501526111e501526140986000f3fe608060405260043610620001635760003560e01c806364650eff11620000c7578063a9ccb0fe1162000079578063a9ccb0fe1462000547578063acc00143146200058b578063dd4670641462000597578063e812500b14620005c5578063e8d95fec1462000609578063f824ec54146200064d5762000198565b806364650eff14620003ff5780636c7c3a5d14620004435780636f9fb98a1462000473578063785d9c0314620004a35780638201650514620004d3578063930e4c8b14620005035762000198565b80633ff4d08311620001215780633ff4d08314620002bb578063442890d514620002e95780634a0cf0fb146200031957806351340f4f1462000349578063580ca24c146200038d5780636198e33914620003d15762000198565b8063179171e214620001c757806330adbc74146200020b57806337c12206146200023b5780633c0d12c6146200026b5780633ccfd60b14620002af5762000198565b366200019857347f9874a7967abbb8701e946ae29391c091f59962f042ba4b5d99b1ed7f2e2e3e5560405160405180910390a2005b347f9874a7967abbb8701e946ae29391c091f59962f042ba4b5d99b1ed7f2e2e3e5560405160405180910390a2005b348015620001d457600080fd5b50620001f36004803603810190620001ed919062001483565b62000691565b604051620002029190620016bb565b60405180910390f35b3480156200021857600080fd5b5062000223620006df565b604051620002329190620016bb565b60405180910390f35b3480156200024857600080fd5b5062000253620006e5565b604051620002629190620015e3565b60405180910390f35b3480156200027857600080fd5b5062000297600480360381019062000291919062001483565b62000743565b604051620002a691906200161d565b60405180910390f35b620002b9620007a0565b005b348015620002c857600080fd5b50620002e76004803603810190620002e1919062001483565b620008a0565b005b348015620002f657600080fd5b506200030162000b5e565b604051620003109190620015e3565b60405180910390f35b3480156200032657600080fd5b506200033162000b86565b604051620003409190620016bb565b60405180910390f35b3480156200035657600080fd5b506200037560048036038101906200036f919062001483565b62000baa565b604051620003849190620015e3565b60405180910390f35b3480156200039a57600080fd5b50620003b96004803603810190620003b3919062001483565b62000bdd565b604051620003c89190620016bb565b60405180910390f35b348015620003de57600080fd5b50620003fd6004803603810190620003f791906200151b565b62000bf5565b005b3480156200040c57600080fd5b506200042b60048036038101906200042591906200151b565b62000d35565b6040516200043a9190620015e3565b60405180910390f35b3480156200045057600080fd5b506200045b62000d93565b6040516200046a919062001600565b60405180910390f35b3480156200048057600080fd5b506200048b62000db7565b6040516200049a9190620016bb565b60405180910390f35b348015620004b057600080fd5b50620004bb62000dbf565b604051620004ca9190620016bb565b60405180910390f35b348015620004e057600080fd5b50620004eb62000e0b565b604051620004fa9190620016bb565b60405180910390f35b3480156200051057600080fd5b506200052f6004803603810190620005299190620014b5565b62000e33565b6040516200053e9190620015e3565b60405180910390f35b3480156200055457600080fd5b506200057360048036038101906200056d919062001483565b62001147565b604051620005829190620015e3565b60405180910390f35b62000595620011b4565b005b348015620005a457600080fd5b50620005c36004803603810190620005bd91906200151b565b620011e3565b005b348015620005d257600080fd5b50620005f16004803603810190620005eb91906200151b565b62001323565b6040516200060091906200163a565b60405180910390f35b3480156200061657600080fd5b506200063560048036038101906200062f919062001483565b62001363565b604051620006449190620016bb565b60405180910390f35b3480156200065a57600080fd5b5062000679600480360381019062000673919062001483565b620013b1565b604051620006889190620016bb565b60405180910390f35b600080600260008473ffffffffffffffffffffffffffffffffffffffff1673ffffffffffffffffffffffffffffffffffffffff16815260200190815260200160002054905080915050919050565b60035481565b60008060046002600354620006fb9190620017b0565b815481106200070f576200070e6200192f565b5b9060005260206000200160009054906101000a900473ffffffffffffffffffffffffffffffffffffffff1690508091505090565b600080600260008473ffffffffffffffffffffffffffffffffffffffff1673ffffffffffffffffffffffffffffffffffffffff16815260200190815260200160002054146200079657600190506200079b565b600090505b919050565b7f000000000000000000000000000000000000000000000000000000000000000073ffffffffffffffffffffffffffffffffffffffff163373ffffffffffffffffffffffffffffffffffffffff161462000826576040517f4f227fdb00000000000000000000000000000000000000000000000000000000815260040160405180910390fd5b600047905060003373ffffffffffffffffffffffffffffffffffffffff166108fc839081150290604051600060405180830381858888f193505050509050806200089c576040517fb60ef3b700000000000000000000000000000000000000000000000000000000815260040160405180910390fd5b5050565b6000600160003373ffffffffffffffffffffffffffffffffffffffff1673ffffffffffffffffffffffffffffffffffffffff16815260200190815260200160002054141580156200093057506000600160008373ffffffffffffffffffffffffffffffffffffffff1673ffffffffffffffffffffffffffffffffffffffff16815260200190815260200160002054145b6200093a57600080fd5b600160003373ffffffffffffffffffffffffffffffffffffffff1673ffffffffffffffffffffffffffffffffffffffff16815260200190815260200160002054600160008373ffffffffffffffffffffffffffffffffffffffff1673ffffffffffffffffffffffffffffffffffffffff168152602001908152602001600020819055506000600160003373ffffffffffffffffffffffffffffffffffffffff1673ffffffffffffffffffffffffffffffffffffffff168152602001908152602001600020819055506000803373ffffffffffffffffffffffffffffffffffffffff1673ffffffffffffffffffffffffffffffffffffffff16815260200190815260200160002060009054906101000a900473ffffffffffffffffffffffffffffffffffffffff166000808373ffffffffffffffffffffffffffffffffffffffff1673ffffffffffffffffffffffffffffffffffffffff16815260200190815260200160002060006101000a81548173ffffffffffffffffffffffffffffffffffffffff021916908373ffffffffffffffffffffffffffffffffffffffff16021790555060008060003373ffffffffffffffffffffffffffffffffffffffff1673ffffffffffffffffffffffffffffffffffffffff16815260200190815260200160002060006101000a81548173ffffffffffffffffffffffffffffffffffffffff021916908373ffffffffffffffffffffffffffffffffffffffff16021790555050565b60007f0000000000000000000000000000000000000000000000000000000000000000905090565b7f000000000000000000000000000000000000000000000000000000000000000081565b60006020528060005260406000206000915054906101000a900473ffffffffffffffffffffffffffffffffffffffff1681565b60016020528060005260406000206000915090505481565b7f000000000000000000000000000000000000000000000000000000000000000073ffffffffffffffffffffffffffffffffffffffff163373ffffffffffffffffffffffffffffffffffffffff161462000c7b576040517f4f227fdb00000000000000000000000000000000000000000000000000000000815260040160405180910390fd5b6000600460018362000c8e9190620017b0565b8154811062000ca25762000ca16200192f565b5b9060005260206000200160009054906101000a900473ffffffffffffffffffffffffffffffffffffffff1690508073ffffffffffffffffffffffffffffffffffffffff1663a69df4b56040518163ffffffff1660e01b8152600401600060405180830381600087803b15801562000d1857600080fd5b505af115801562000d2d573d6000803e3d6000fd5b505050505050565b600080600460018462000d499190620017b0565b8154811062000d5d5762000d5c6200192f565b5b9060005260206000200160009054906101000a900473ffffffffffffffffffffffffffffffffffffffff16905080915050919050565b7f000000000000000000000000000000000000000000000000000000000000000081565b600047905090565b600080600160003373ffffffffffffffffffffffffffffffffffffffff1673ffffffffffffffffffffffffffffffffffffffff1681526020019081526020016000205490508091505090565b60007f0000000000000000000000000000000000000000000000000000000000000000905090565b600080600160003373ffffffffffffffffffffffffffffffffffffffff1673ffffffffffffffffffffffffffffffffffffffff168152602001908152602001600020541462000eae576040517f66a7ac8000000000000000000000000000000000000000000000000000000000815260040160405180910390fd5b60008383337f000000000000000000000000000000000000000000000000000000000000000060035460405162000ee590620013c9565b62000ef595949392919062001657565b604051809103906000f08015801562000f12573d6000803e3d6000fd5b5090508073ffffffffffffffffffffffffffffffffffffffff1663a69df4b56040518163ffffffff1660e01b8152600401600060405180830381600087803b15801562000f5e57600080fd5b505af115801562000f73573d6000803e3d6000fd5b505050506004819080600181540180825580915050600190039060005260206000200160009091909190916101000a81548173ffffffffffffffffffffffffffffffffffffffff021916908373ffffffffffffffffffffffffffffffffffffffff160217905550806000803373ffffffffffffffffffffffffffffffffffffffff1673ffffffffffffffffffffffffffffffffffffffff16815260200190815260200160002060006101000a81548173ffffffffffffffffffffffffffffffffffffffff021916908373ffffffffffffffffffffffffffffffffffffffff160217905550600354600160003373ffffffffffffffffffffffffffffffffffffffff1673ffffffffffffffffffffffffffffffffffffffff16815260200190815260200160002081905550600354600260008373ffffffffffffffffffffffffffffffffffffffff1673ffffffffffffffffffffffffffffffffffffffff168152602001908152602001600020819055506001600354620010f4919062001753565b6003819055508073ffffffffffffffffffffffffffffffffffffffff167f8d41e52c133717d879952d81e8b37582cb51f582d4cb7850e2db6d012141a11c60405160405180910390a28091505092915050565b6000806000808473ffffffffffffffffffffffffffffffffffffffff1673ffffffffffffffffffffffffffffffffffffffff16815260200190815260200160002060009054906101000a900473ffffffffffffffffffffffffffffffffffffffff16905080915050919050565b347f9874a7967abbb8701e946ae29391c091f59962f042ba4b5d99b1ed7f2e2e3e5560405160405180910390a2565b7f000000000000000000000000000000000000000000000000000000000000000073ffffffffffffffffffffffffffffffffffffffff163373ffffffffffffffffffffffffffffffffffffffff161462001269576040517f4f227fdb00000000000000000000000000000000000000000000000000000000815260040160405180910390fd5b600060046001836200127c9190620017b0565b8154811062001290576200128f6200192f565b5b9060005260206000200160009054906101000a900473ffffffffffffffffffffffffffffffffffffffff1690508073ffffffffffffffffffffffffffffffffffffffff1663f83d08ba6040518163ffffffff1660e01b8152600401600060405180830381600087803b1580156200130657600080fd5b505af11580156200131b573d6000803e3d6000fd5b505050505050565b600481815481106200133457600080fd5b906000526020600020016000915054906101000a900473ffffffffffffffffffffffffffffffffffffffff1681565b600080600160008473ffffffffffffffffffffffffffffffffffffffff1673ffffffffffffffffffffffffffffffffffffffff16815260200190815260200160002054905080915050919050565b60026020528060005260406000206000915090505481565b61267c80620019e783390190565b6000620013ee620013e88462001701565b620016d8565b9050828152602081018484840111156200140d576200140c62001992565b5b6200141a84828562001885565b509392505050565b6000813590506200143381620019b2565b92915050565b600082601f8301126200145157620014506200198d565b5b813562001463848260208601620013d7565b91505092915050565b6000813590506200147d81620019cc565b92915050565b6000602082840312156200149c576200149b6200199c565b5b6000620014ac8482850162001422565b91505092915050565b60008060408385031215620014cf57620014ce6200199c565b5b600083013567ffffffffffffffff811115620014f057620014ef62001997565b5b620014fe8582860162001439565b925050602062001511858286016200146c565b9150509250929050565b6000602082840312156200153457620015336200199c565b5b600062001544848285016200146c565b91505092915050565b6200155881620017ff565b82525050565b6200156981620017eb565b82525050565b6200157a8162001813565b82525050565b6200158b8162001849565b82525050565b60006200159e8262001737565b620015aa818562001742565b9350620015bc81856020860162001894565b620015c781620019a1565b840191505092915050565b620015dd816200183f565b82525050565b6000602082019050620015fa60008301846200155e565b92915050565b60006020820190506200161760008301846200154d565b92915050565b60006020820190506200163460008301846200156f565b92915050565b600060208201905062001651600083018462001580565b92915050565b600060a082019050818103600083015262001673818862001591565b9050620016846020830187620015d2565b6200169360408301866200154d565b620016a26060830185620015d2565b620016b16080830184620015d2565b9695505050505050565b6000602082019050620016d26000830184620015d2565b92915050565b6000620016e4620016f7565b9050620016f28282620018ca565b919050565b6000604051905090565b600067ffffffffffffffff8211156200171f576200171e6200195e565b5b6200172a82620019a1565b9050602081019050919050565b600081519050919050565b600082825260208201905092915050565b600062001760826200183f565b91506200176d836200183f565b9250827fffffffffffffffffffffffffffffffffffffffffffffffffffffffffffffffff03821115620017a557620017a462001900565b5b828201905092915050565b6000620017bd826200183f565b9150620017ca836200183f565b925082821015620017e057620017df62001900565b5b828203905092915050565b6000620017f8826200181f565b9050919050565b60006200180c826200181f565b9050919050565b60008115159050919050565b600073ffffffffffffffffffffffffffffffffffffffff82169050919050565b6000819050919050565b600062001856826200185d565b9050919050565b60006200186a8262001871565b9050919050565b60006200187e826200181f565b9050919050565b82818337600083830152505050565b60005b83811015620018b457808201518184015260208101905062001897565b83811115620018c4576000848401525b50505050565b620018d582620019a1565b810181811067ffffffffffffffff82111715620018f757620018f66200195e565b5b80604052505050565b7f4e487b7100000000000000000000000000000000000000000000000000000000600052601160045260246000fd5b7f4e487b7100000000000000000000000000000000000000000000000000000000600052603260045260246000fd5b7f4e487b7100000000000000000000000000000000000000000000000000000000600052604160045260246000fd5b600080fd5b600080fd5b600080fd5b600080fd5b6000601f19601f8301169050919050565b620019bd81620017eb565b8114620019c957600080fd5b50565b620019d7816200183f565b8114620019e357600080fd5b5056fe60e06040523480156200001157600080fd5b506040516200267c3803806200267c833981810160405281019062000037919062000285565b33600260006101000a81548173ffffffffffffffffffffffffffffffffffffffff021916908373ffffffffffffffffffffffffffffffffffffffff16021790555084600390805190602001906200009092919062000129565b5082600160046101000a81548173ffffffffffffffffffffffffffffffffffffffff021916908373ffffffffffffffffffffffffffffffffffffffff160217905550836080818152505060018060016101000a81548160ff0219169083151502179055508160a081815250508060c0818152505060018060026101000a81548160ff021916908315150217905550505050505062000522565b8280546200013790620003ff565b90600052602060002090601f0160209004810192826200015b5760008555620001a7565b82601f106200017657805160ff1916838001178555620001a7565b82800160010185558215620001a7579182015b82811115620001a657825182559160200191906001019062000189565b5b509050620001b69190620001ba565b5090565b5b80821115620001d5576000816000905550600101620001bb565b5090565b6000620001f0620001ea8462000355565b6200032c565b9050828152602081018484840111156200020f576200020e620004ce565b5b6200021c848285620003c9565b509392505050565b6000815190506200023581620004ee565b92915050565b600082601f830112620002535762000252620004c9565b5b815162000265848260208601620001d9565b91505092915050565b6000815190506200027f8162000508565b92915050565b600080600080600060a08688031215620002a457620002a3620004d8565b5b600086015167ffffffffffffffff811115620002c557620002c4620004d3565b5b620002d3888289016200023b565b9550506020620002e6888289016200026e565b9450506040620002f98882890162000224565b93505060606200030c888289016200026e565b92505060806200031f888289016200026e565b9150509295509295909350565b6000620003386200034b565b905062000346828262000435565b919050565b6000604051905090565b600067ffffffffffffffff8211156200037357620003726200049a565b5b6200037e82620004dd565b9050602081019050919050565b600062000398826200039f565b9050919050565b600073ffffffffffffffffffffffffffffffffffffffff82169050919050565b6000819050919050565b60005b83811015620003e9578082015181840152602081019050620003cc565b83811115620003f9576000848401525b50505050565b600060028204905060018216806200041857607f821691505b602082108114156200042f576200042e6200046b565b5b50919050565b6200044082620004dd565b810181811067ffffffffffffffff821117156200046257620004616200049a565b5b80604052505050565b7f4e487b7100000000000000000000000000000000000000000000000000000000600052602260045260246000fd5b7f4e487b7100000000000000000000000000000000000000000000000000000000600052604160045260246000fd5b600080fd5b600080fd5b600080fd5b600080fd5b6000601f19601f8301169050919050565b620004f9816200038b565b81146200050557600080fd5b50565b6200051381620003bf565b81146200051f57600080fd5b50565b60805160a05160c05161210e6200056e6000396000610941015260008181610d4e0152610f1701526000818161089301528181611085015281816111ee0152611432015261210e6000f3fe6080604052600436106101e75760003560e01c8063748ce70a11610102578063c622bb2011610095578063dfcf7a8c11610064578063dfcf7a8c14610677578063ed88c68e146106a2578063f03232a3146106ac578063f83d08ba146106d7576101f6565b8063c622bb2014610602578063ca973f071461062d578063d4f2a4d514610637578063d9d258131461064e576101f6565b8063a69df4b5116100d1578063a69df4b51461056a578063af1aa9f914610581578063b97a7d24146105ac578063c38804a5146105d7576101f6565b8063748ce70a146104ac578063787e3257146104d757806380e1204f14610502578063a67e30cb1461053f576101f6565b8063365fd9821161017a578063583b189611610149578063583b1896146103ee5780635edd2267146104195780635eed3dcb14610444578063643b287014610481576101f6565b8063365fd9821461035657806339d7e8a4146103815780633ccfd60b146103ac5780634a0cf0fb146103c3576101f6565b80632af4c31e116101b65780632af4c31e146102ac5780632d3297b6146102d55780632e6626e714610300578063306addc41461032b576101f6565b80630294d01114610200578063092dcb4c1461022b5780630cfc2fc51461025657806327ad7a5d14610281576101f6565b366101f6576101f46106ee565b005b6101fe6106ee565b005b34801561020c57600080fd5b5061021561093f565b6040516102229190611cfc565b60405180910390f35b34801561023757600080fd5b50610240610963565b60405161024d9190611c9d565b60405180910390f35b34801561026257600080fd5b5061026b61097a565b6040516102789190611c9d565b60405180910390f35b34801561028d57600080fd5b5061029661098d565b6040516102a39190611c9d565b60405180910390f35b3480156102b857600080fd5b506102d360048036038101906102ce9190611ad0565b6109a4565b005b3480156102e157600080fd5b506102ea610af9565b6040516102f79190611cfc565b60405180910390f35b34801561030c57600080fd5b50610315610b02565b6040516103229190611cb8565b60405180910390f35b34801561033757600080fd5b50610340610b94565b60405161034d9190611cb8565b60405180910390f35b34801561036257600080fd5b5061036b610c22565b6040516103789190611cfc565b60405180910390f35b34801561038d57600080fd5b50610396610c6e565b6040516103a39190611cfc565b60405180910390f35b3480156103b857600080fd5b506103c1610c74565b005b3480156103cf57600080fd5b506103d8610f15565b6040516103e59190611cfc565b60405180910390f35b3480156103fa57600080fd5b50610403610f39565b6040516104109190611c9d565b60405180910390f35b34801561042557600080fd5b5061042e610f50565b60405161043b9190611cb8565b60405180910390f35b34801561045057600080fd5b5061046b60048036038101906104669190611b46565b610fde565b6040516104789190611c59565b60405180910390f35b34801561048d57600080fd5b5061049661101d565b6040516104a39190611c59565b60405180910390f35b3480156104b857600080fd5b506104c1611043565b6040516104ce9190611c9d565b60405180910390f35b3480156104e357600080fd5b506104ec611058565b6040516104f99190611c9d565b60405180910390f35b34801561050e57600080fd5b5061052960048036038101906105249190611aa3565b61106b565b6040516105369190611cfc565b60405180910390f35b34801561054b57600080fd5b50610554611083565b6040516105619190611cfc565b60405180910390f35b34801561057657600080fd5b5061057f6110a7565b005b34801561058d57600080fd5b506105966111d7565b6040516105a39190611c9d565b60405180910390f35b3480156105b857600080fd5b506105c16111ea565b6040516105ce9190611cfc565b60405180910390f35b3480156105e357600080fd5b506105ec611212565b6040516105f99190611c59565b60405180910390f35b34801561060e57600080fd5b50610617611238565b6040516106249190611c59565b60405180910390f35b610635611262565b005b34801561064357600080fd5b5061064c6114fd565b005b34801561065a57600080fd5b5061067560048036038101906106709190611afd565b61165e565b005b34801561068357600080fd5b5061068c61177e565b6040516106999190611c9d565b60405180910390f35b6106aa6106ee565b005b3480156106b857600080fd5b506106c161178f565b6040516106ce9190611cb8565b60405180910390f35b3480156106e357600080fd5b506106ec611821565b005b600160009054906101000a900460ff1615610735576040517f7d6ebcc700000000000000000000000000000000000000000000000000000000815260040160405180910390fd5b60018054906101000a900460ff16610779576040517f9f6f715500000000000000000000000000000000000000000000000000000000815260040160405180910390fd5b600160029054906101000a900460ff16156107c0576040517fbabe63b900000000000000000000000000000000000000000000000000000000815260040160405180910390fd5b346000808282546107d19190611d9e565b925050819055506006339080600181540180825580915050600190039060005260206000200160009091909190916101000a81548173ffffffffffffffffffffffffffffffffffffffff021916908373ffffffffffffffffffffffffffffffffffffffff16021790555034600560003373ffffffffffffffffffffffffffffffffffffffff1673ffffffffffffffffffffffffffffffffffffffff168152602001908152602001600020600082825461088a9190611d9e565b925050819055507f0000000000000000000000000000000000000000000000000000000000000000600054106108ef5760018060006101000a81548160ff02191690831515021790555060006001806101000a81548160ff0219169083151502179055505b3373ffffffffffffffffffffffffffffffffffffffff167faa13962bc79c7a0bc42cb8169b1705f0a6b55cc404ffb8a589d771ca78675978346040516109359190611cfc565b60405180910390a2565b7f000000000000000000000000000000000000000000000000000000000000000081565b6000600160009054906101000a900460ff16905090565b600160039054906101000a900460ff1681565b6000600160039054906101000a900460ff16905090565b600160049054906101000a900473ffffffffffffffffffffffffffffffffffffffff1673ffffffffffffffffffffffffffffffffffffffff163373ffffffffffffffffffffffffffffffffffffffff1614610a2b576040517f18f09efd00000000000000000000000000000000000000000000000000000000815260040160405180910390fd5b600160029054906101000a900460ff1615610a72576040517fbabe63b900000000000000000000000000000000000000000000000000000000815260040160405180910390fd5b80600160046101000a81548173ffffffffffffffffffffffffffffffffffffffff021916908373ffffffffffffffffffffffffffffffffffffffff1602179055508073ffffffffffffffffffffffffffffffffffffffff167f595ee9ffef04d4d652b768860c56905a48f5ab79124bb3b2279df1885536991d60405160405180910390a250565b60008054905090565b606060048054610b1190611f4f565b80601f0160208091040260200160405190810160405280929190818152602001828054610b3d90611f4f565b8015610b8a5780601f10610b5f57610100808354040283529160200191610b8a565b820191906000526020600020905b815481529060010190602001808311610b6d57829003601f168201915b5050505050905090565b60048054610ba190611f4f565b80601f0160208091040260200160405190810160405280929190818152602001828054610bcd90611f4f565b8015610c1a5780601f10610bef57610100808354040283529160200191610c1a565b820191906000526020600020905b815481529060010190602001808311610bfd57829003601f168201915b505050505081565b600080600560003373ffffffffffffffffffffffffffffffffffffffff1673ffffffffffffffffffffffffffffffffffffffff1681526020019081526020016000205490508091505090565b60005481565b600160049054906101000a900473ffffffffffffffffffffffffffffffffffffffff1673ffffffffffffffffffffffffffffffffffffffff163373ffffffffffffffffffffffffffffffffffffffff1614610cfb576040517f18f09efd00000000000000000000000000000000000000000000000000000000815260040160405180910390fd5b600160029054906101000a900460ff1615610d42576040517fbabe63b900000000000000000000000000000000000000000000000000000000815260040160405180910390fd5b600047905060006127107f000000000000000000000000000000000000000000000000000000000000000083610d789190611e25565b610d829190611df4565b90506000600260009054906101000a900473ffffffffffffffffffffffffffffffffffffffff1673ffffffffffffffffffffffffffffffffffffffff166108fc839081150290604051600060405180830381858888f19350505050905080610e16576040517f7824242700000000000000000000000000000000000000000000000000000000815260040160405180910390fd5b60003373ffffffffffffffffffffffffffffffffffffffff166108fc479081150290604051600060405180830381858888f19350505050905080610e86576040517f7824242700000000000000000000000000000000000000000000000000000000815260040160405180910390fd5b60006001806101000a81548160ff0219169083151502179055506000808190555060018060036101000a81548160ff0219169083151502179055503373ffffffffffffffffffffffffffffffffffffffff167fbc158bb64f05d6383aea69bbb0b20c1bbf4b7a18f63359c5649b7c39e29d388485604051610f079190611cfc565b60405180910390a250505050565b7f000000000000000000000000000000000000000000000000000000000000000081565b6000600160029054906101000a900460ff16905090565b60038054610f5d90611f4f565b80601f0160208091040260200160405190810160405280929190818152602001828054610f8990611f4f565b8015610fd65780601f10610fab57610100808354040283529160200191610fd6565b820191906000526020600020905b815481529060010190602001808311610fb957829003601f168201915b505050505081565b60068181548110610fee57600080fd5b906000526020600020016000915054906101000a900473ffffffffffffffffffffffffffffffffffffffff1681565b600160049054906101000a900473ffffffffffffffffffffffffffffffffffffffff1681565b600060018054906101000a900460ff16905090565b600160029054906101000a900460ff1681565b60056020528060005260406000206000915090505481565b7f000000000000000000000000000000000000000000000000000000000000000081565b600260009054906101000a900473ffffffffffffffffffffffffffffffffffffffff1673ffffffffffffffffffffffffffffffffffffffff163373ffffffffffffffffffffffffffffffffffffffff161461112e576040517f33e2a8ec00000000000000000000000000000000000000000000000000000000815260040160405180910390fd5b600160029054906101000a900460ff16611174576040517f9b6b472200000000000000000000000000000000000000000000000000000000815260040160405180910390fd5b6000600160026101000a81548160ff0219169083151502179055507fda3943f07eff121b37cf91d4288e4e85a5078bee9b6e9159a955bedb96836948600160029054906101000a900460ff166040516111cd9190611c9d565b60405180910390a1565b600160009054906101000a900460ff1681565b60007f0000000000000000000000000000000000000000000000000000000000000000905090565b600260009054906101000a900473ffffffffffffffffffffffffffffffffffffffff1681565b6000600160049054906101000a900473ffffffffffffffffffffffffffffffffffffffff16905090565b600160039054906101000a900460ff16156112a9576040517fbdf238b400000000000000000000000000000000000000000000000000000000815260040160405180910390fd5b6000600560003373ffffffffffffffffffffffffffffffffffffffff1673ffffffffffffffffffffffffffffffffffffffff168152602001908152602001600020541415611323576040517f203c9ab100000000000000000000000000000000000000000000000000000000815260040160405180910390fd5b6000600560003373ffffffffffffffffffffffffffffffffffffffff1673ffffffffffffffffffffffffffffffffffffffff16815260200190815260200160002054905060003373ffffffffffffffffffffffffffffffffffffffff166108fc839081150290604051600060405180830381858888f193505050509050806113d7576040517f7824242700000000000000000000000000000000000000000000000000000000815260040160405180910390fd5b6000600560003373ffffffffffffffffffffffffffffffffffffffff1673ffffffffffffffffffffffffffffffffffffffff168152602001908152602001600020819055508160005461142a9190611e7f565b6000819055507f000000000000000000000000000000000000000000000000000000000000000060005410156114c0576000600160006101000a81548160ff021916908315150217905550600160039054906101000a900460ff1615801561149f5750600160029054906101000a900460ff16155b156114bf5760018060016101000a81548160ff0219169083151502179055505b5b7fd7dee2702d63ad89917b6a4da9981c90c4d24f8c2bdfd64c604ecae57d8d065133836040516114f1929190611c74565b60405180910390a15050565b600160049054906101000a900473ffffffffffffffffffffffffffffffffffffffff1673ffffffffffffffffffffffffffffffffffffffff163373ffffffffffffffffffffffffffffffffffffffff1614611584576040517f18f09efd00000000000000000000000000000000000000000000000000000000815260040160405180910390fd5b60018054906101000a900460ff16156115b65760006001806101000a81548160ff021916908315150217905550611618565b600160039054906101000a900460ff16156115fd576040517fb5608ae600000000000000000000000000000000000000000000000000000000815260040160405180910390fd5b60018060016101000a81548160ff0219169083151502179055505b7f6f5be26fb94646fadcdf16147ddd35138ad497ce000f92f12eadbaa19497c53360018054906101000a900460ff166040516116549190611c9d565b60405180910390a1565b600160049054906101000a900473ffffffffffffffffffffffffffffffffffffffff1673ffffffffffffffffffffffffffffffffffffffff163373ffffffffffffffffffffffffffffffffffffffff16146116e5576040517f18f09efd00000000000000000000000000000000000000000000000000000000815260040160405180910390fd5b600160029054906101000a900460ff161561172c576040517fbabe63b900000000000000000000000000000000000000000000000000000000815260040160405180910390fd5b8060049080519060200190611742929190611951565b507f0c9c2f86218c506a4f5a61d8550880041379a6c31155086325a859e19bfeaaf860046040516117739190611cda565b60405180910390a150565b60018054906101000a900460ff1681565b60606003805461179e90611f4f565b80601f01602080910402602001604051908101604052809291908181526020018280546117ca90611f4f565b80156118175780601f106117ec57610100808354040283529160200191611817565b820191906000526020600020905b8154815290600101906020018083116117fa57829003601f168201915b5050505050905090565b600260009054906101000a900473ffffffffffffffffffffffffffffffffffffffff1673ffffffffffffffffffffffffffffffffffffffff163373ffffffffffffffffffffffffffffffffffffffff16146118a8576040517f33e2a8ec00000000000000000000000000000000000000000000000000000000815260040160405180910390fd5b600160029054906101000a900460ff16156118ef576040517fe1c205bf00000000000000000000000000000000000000000000000000000000815260040160405180910390fd5b60018060026101000a81548160ff0219169083151502179055507fc20b8fc722655092cdbc0c19a12ad36bbf5f5e7da7c30409ecefea3880d8e8cc600160029054906101000a900460ff166040516119479190611c9d565b60405180910390a1565b82805461195d90611f4f565b90600052602060002090601f01602090048101928261197f57600085556119c6565b82601f1061199857805160ff19168380011785556119c6565b828001600101855582156119c6579182015b828111156119c55782518255916020019190600101906119aa565b5b5090506119d391906119d7565b5090565b5b808211156119f05760008160009055506001016119d8565b5090565b6000611a07611a0284611d3c565b611d17565b905082815260208101848484011115611a2357611a22612073565b5b611a2e848285611f0d565b509392505050565b600081359050611a4581612093565b92915050565b600081359050611a5a816120aa565b92915050565b600082601f830112611a7557611a7461206e565b5b8135611a858482602086016119f4565b91505092915050565b600081359050611a9d816120c1565b92915050565b600060208284031215611ab957611ab861207d565b5b6000611ac784828501611a36565b91505092915050565b600060208284031215611ae657611ae561207d565b5b6000611af484828501611a4b565b91505092915050565b600060208284031215611b1357611b1261207d565b5b600082013567ffffffffffffffff811115611b3157611b30612078565b5b611b3d84828501611a60565b91505092915050565b600060208284031215611b5c57611b5b61207d565b5b6000611b6a84828501611a8e565b91505092915050565b611b7c81611eb3565b82525050565b611b8b81611ed7565b82525050565b6000611b9c82611d82565b611ba68185611d8d565b9350611bb6818560208601611f1c565b611bbf81612082565b840191505092915050565b60008154611bd781611f4f565b611be18186611d8d565b94506001821660008114611bfc5760018114611c0e57611c41565b60ff1983168652602086019350611c41565b611c1785611d6d565b60005b83811015611c3957815481890152600182019150602081019050611c1a565b808801955050505b50505092915050565b611c5381611f03565b82525050565b6000602082019050611c6e6000830184611b73565b92915050565b6000604082019050611c896000830185611b73565b611c966020830184611c4a565b9392505050565b6000602082019050611cb26000830184611b82565b92915050565b60006020820190508181036000830152611cd28184611b91565b905092915050565b60006020820190508181036000830152611cf48184611bca565b905092915050565b6000602082019050611d116000830184611c4a565b92915050565b6000611d21611d32565b9050611d2d8282611f81565b919050565b6000604051905090565b600067ffffffffffffffff821115611d5757611d5661203f565b5b611d6082612082565b9050602081019050919050565b60008190508160005260206000209050919050565b600081519050919050565b600082825260208201905092915050565b6000611da982611f03565b9150611db483611f03565b9250827fffffffffffffffffffffffffffffffffffffffffffffffffffffffffffffffff03821115611de957611de8611fb2565b5b828201905092915050565b6000611dff82611f03565b9150611e0a83611f03565b925082611e1a57611e19611fe1565b5b828204905092915050565b6000611e3082611f03565b9150611e3b83611f03565b9250817fffffffffffffffffffffffffffffffffffffffffffffffffffffffffffffffff0483118215151615611e7457611e73611fb2565b5b828202905092915050565b6000611e8a82611f03565b9150611e9583611f03565b925082821015611ea857611ea7611fb2565b5b828203905092915050565b6000611ebe82611ee3565b9050919050565b6000611ed082611ee3565b9050919050565b60008115159050919050565b600073ffffffffffffffffffffffffffffffffffffffff82169050919050565b6000819050919050565b82818337600083830152505050565b60005b83811015611f3a578082015181840152602081019050611f1f565b83811115611f49576000848401525b50505050565b60006002820490506001821680611f6757607f821691505b60208210811415611f7b57611f7a612010565b5b50919050565b611f8a82612082565b810181811067ffffffffffffffff82111715611fa957611fa861203f565b5b80604052505050565b7f4e487b7100000000000000000000000000000000000000000000000000000000600052601160045260246000fd5b7f4e487b7100000000000000000000000000000000000000000000000000000000600052601260045260246000fd5b7f4e487b7100000000000000000000000000000000000000000000000000000000600052602260045260246000fd5b7f4e487b7100000000000000000000000000000000000000000000000000000000600052604160045260246000fd5b600080fd5b600080fd5b600080fd5b600080fd5b6000601f19601f8301169050919050565b61209c81611eb3565b81146120a757600080fd5b50565b6120b381611ec5565b81146120be57600080fd5b50565b6120ca81611f03565b81146120d557600080fd5b5056fea2646970667358221220e7f06a4a4fb2dcaae03fceded9450bb12af8b2ee91e7102b952f8d657fc9465a64736f6c63430008070033a26469706673582212206eb7eeabe8e3751b1b8fb9ab3656d1a4fe835d0c239aabe25de56f7fb538553d64736f6c63430008070033",
  "devdoc": {
    "kind": "dev",
    "methods": {},
    "version": 1
  },
  "userdoc": {
    "kind": "user",
    "methods": {},
    "version": 1
  },
  "storageLayout": {
    "storage": [
      {
        "astId": 626,
        "contract": "contracts/CrowdFunder.sol:CrowdFunder",
        "label": "walletToCauseOwned",
        "offset": 0,
        "slot": "0",
        "type": "t_mapping(t_address,t_address)"
      },
      {
        "astId": 630,
        "contract": "contracts/CrowdFunder.sol:CrowdFunder",
        "label": "hasCause",
        "offset": 0,
        "slot": "1",
        "type": "t_mapping(t_address,t_uint256)"
      },
      {
        "astId": 634,
        "contract": "contracts/CrowdFunder.sol:CrowdFunder",
        "label": "causeToId",
        "offset": 0,
        "slot": "2",
        "type": "t_mapping(t_address,t_uint256)"
      },
      {
        "astId": 638,
        "contract": "contracts/CrowdFunder.sol:CrowdFunder",
        "label": "s_nextCauseId",
        "offset": 0,
        "slot": "3",
        "type": "t_uint256"
      },
      {
        "astId": 642,
        "contract": "contracts/CrowdFunder.sol:CrowdFunder",
        "label": "s_causes",
        "offset": 0,
        "slot": "4",
        "type": "t_array(t_contract(Cause)617)dyn_storage"
      }
    ],
    "types": {
      "t_address": {
        "encoding": "inplace",
        "label": "address",
        "numberOfBytes": "20"
      },
      "t_array(t_contract(Cause)617)dyn_storage": {
        "base": "t_contract(Cause)617",
        "encoding": "dynamic_array",
        "label": "contract Cause[]",
        "numberOfBytes": "32"
      },
      "t_contract(Cause)617": {
        "encoding": "inplace",
        "label": "contract Cause",
        "numberOfBytes": "20"
      },
      "t_mapping(t_address,t_address)": {
        "encoding": "mapping",
        "key": "t_address",
        "label": "mapping(address => address)",
        "numberOfBytes": "32",
        "value": "t_address"
      },
      "t_mapping(t_address,t_uint256)": {
        "encoding": "mapping",
        "key": "t_address",
        "label": "mapping(address => uint256)",
        "numberOfBytes": "32",
        "value": "t_uint256"
      },
      "t_uint256": {
        "encoding": "inplace",
        "label": "uint256",
        "numberOfBytes": "32"
      }
    }
  }
}