{
  "address": "0x5FbDB2315678afecb367f032d93F642f64180aa3",
  "abi": [
    {
      "inputs": [
        {
          "internalType": "uint256",
          "name": "percentCut",
          "type": "uint256"
        }
      ],
      "stateMutability": "nonpayable",
      "type": "constructor"
    },
    {
      "inputs": [],
      "name": "CrowdFunder__ErrorWithdrawing",
      "type": "error"
    },
    {
      "inputs": [],
      "name": "CrowdFunder__OnlyOwnerCanCallThis",
      "type": "error"
    },
    {
      "inputs": [],
      "name": "CrowdFunder__ThisWalletAlreadyHasACause",
      "type": "error"
    },
    {
      "anonymous": false,
      "inputs": [
        {
          "indexed": true,
          "internalType": "address",
          "name": "causeAddress",
          "type": "address"
        }
      ],
      "name": "CauseCreated",
      "type": "event"
    },
    {
      "anonymous": false,
      "inputs": [
        {
          "indexed": true,
          "internalType": "uint256",
          "name": "amount",
          "type": "uint256"
        }
      ],
      "name": "DonationReceived",
      "type": "event"
    },
    {
      "anonymous": false,
      "inputs": [
        {
          "indexed": true,
          "internalType": "uint256",
          "name": "amount",
          "type": "uint256"
        }
      ],
      "name": "WithdrawalMade",
      "type": "event"
    },
    {
      "stateMutability": "payable",
      "type": "fallback"
    },
    {
      "inputs": [
        {
          "internalType": "address",
          "name": "",
          "type": "address"
        }
      ],
      "name": "causeToId",
      "outputs": [
        {
          "internalType": "uint256",
          "name": "",
          "type": "uint256"
        }
      ],
      "stateMutability": "view",
      "type": "function"
    },
    {
      "inputs": [
        {
          "internalType": "address",
          "name": "causeToCheck",
          "type": "address"
        }
      ],
      "name": "confirmCause",
      "outputs": [
        {
          "internalType": "bool",
          "name": "",
          "type": "bool"
        }
      ],
      "stateMutability": "view",
      "type": "function"
    },
    {
      "inputs": [
        {
          "internalType": "string",
          "name": "causeName",
          "type": "string"
        },
        {
          "internalType": "uint256",
          "name": "goal",
          "type": "uint256"
        }
      ],
      "name": "createCause",
      "outputs": [
        {
          "internalType": "address",
          "name": "",
          "type": "address"
        }
      ],
      "stateMutability": "nonpayable",
      "type": "function"
    },
    {
      "inputs": [
        {
          "internalType": "address",
          "name": "owner",
          "type": "address"
        }
      ],
      "name": "getCauseAddressByOwnerWallet",
      "outputs": [
        {
          "internalType": "address",
          "name": "",
          "type": "address"
        }
      ],
      "stateMutability": "view",
      "type": "function"
    },
    {
      "inputs": [
        {
          "internalType": "uint256",
          "name": "causeId",
          "type": "uint256"
        }
      ],
      "name": "getCauseById",
      "outputs": [
        {
          "internalType": "address",
          "name": "",
          "type": "address"
        }
      ],
      "stateMutability": "view",
      "type": "function"
    },
    {
      "inputs": [
        {
          "internalType": "address",
          "name": "causeAddress",
          "type": "address"
        }
      ],
      "name": "getCauseIdByCauseAddress",
      "outputs": [
        {
          "internalType": "uint256",
          "name": "",
          "type": "uint256"
        }
      ],
      "stateMutability": "view",
      "type": "function"
    },
    {
      "inputs": [
        {
          "internalType": "address",
          "name": "owner",
          "type": "address"
        }
      ],
      "name": "getCauseIdByOwnerWallet",
      "outputs": [
        {
          "internalType": "uint256",
          "name": "",
          "type": "uint256"
        }
      ],
      "stateMutability": "view",
      "type": "function"
    },
    {
      "inputs": [],
      "name": "getContractBalance",
      "outputs": [
        {
          "internalType": "uint256",
          "name": "",
          "type": "uint256"
        }
      ],
      "stateMutability": "view",
      "type": "function"
    },
    {
      "inputs": [],
      "name": "getContractOwner",
      "outputs": [
        {
          "internalType": "address",
          "name": "",
          "type": "address"
        }
      ],
      "stateMutability": "view",
      "type": "function"
    },
    {
      "inputs": [],
      "name": "getLatestCauseAddress",
      "outputs": [
        {
          "internalType": "address",
          "name": "",
          "type": "address"
        }
      ],
      "stateMutability": "view",
      "type": "function"
    },
    {
      "inputs": [],
      "name": "getMyCause",
      "outputs": [
        {
          "internalType": "uint256",
          "name": "",
          "type": "uint256"
        },
        {
          "internalType": "address",
          "name": "",
          "type": "address"
        }
      ],
      "stateMutability": "view",
      "type": "function"
    },
    {
      "inputs": [],
      "name": "getPercentCut",
      "outputs": [
        {
          "internalType": "uint256",
          "name": "",
          "type": "uint256"
        }
      ],
      "stateMutability": "view",
      "type": "function"
    },
    {
      "inputs": [
        {
          "internalType": "address",
          "name": "",
          "type": "address"
        }
      ],
      "name": "hasCause",
      "outputs": [
        {
          "internalType": "uint256",
          "name": "",
          "type": "uint256"
        }
      ],
      "stateMutability": "view",
      "type": "function"
    },
    {
      "inputs": [],
      "name": "i_crowdFunderOwner",
      "outputs": [
        {
          "internalType": "address payable",
          "name": "",
          "type": "address"
        }
      ],
      "stateMutability": "view",
      "type": "function"
    },
    {
      "inputs": [],
      "name": "i_percentCut",
      "outputs": [
        {
          "internalType": "uint256",
          "name": "",
          "type": "uint256"
        }
      ],
      "stateMutability": "view",
      "type": "function"
    },
    {
      "inputs": [
        {
          "internalType": "uint256",
          "name": "causeId",
          "type": "uint256"
        }
      ],
      "name": "lock",
      "outputs": [],
      "stateMutability": "nonpayable",
      "type": "function"
    },
    {
      "inputs": [
        {
          "internalType": "uint256",
          "name": "",
          "type": "uint256"
        }
      ],
      "name": "s_causes",
      "outputs": [
        {
          "internalType": "contract Cause",
          "name": "",
          "type": "address"
        }
      ],
      "stateMutability": "view",
      "type": "function"
    },
    {
      "inputs": [],
      "name": "s_nextCauseId",
      "outputs": [
        {
          "internalType": "uint256",
          "name": "",
          "type": "uint256"
        }
      ],
      "stateMutability": "view",
      "type": "function"
    },
    {
      "inputs": [],
      "name": "sponsorSite",
      "outputs": [],
      "stateMutability": "payable",
      "type": "function"
    },
    {
      "inputs": [
        {
          "internalType": "uint256",
          "name": "causeId",
          "type": "uint256"
        }
      ],
      "name": "unlock",
      "outputs": [],
      "stateMutability": "nonpayable",
      "type": "function"
    },
    {
      "inputs": [
        {
          "internalType": "address",
          "name": "",
          "type": "address"
        }
      ],
      "name": "walletToCauseOwned",
      "outputs": [
        {
          "internalType": "address",
          "name": "",
          "type": "address"
        }
      ],
      "stateMutability": "view",
      "type": "function"
    },
    {
      "inputs": [],
      "name": "withdraw",
      "outputs": [],
      "stateMutability": "payable",
      "type": "function"
    },
    {
      "stateMutability": "payable",
      "type": "receive"
    }
  ],
  "transactionHash": "0x1d91acd266dbfebfae25632b747b11378caa2b4987a27491647a0f681da9e5f1",
  "args": [
    "300"
  ],
  "numDeployments": 1,
  "solcInputHash": "2552c3068d9c085479ad600d89741f69",
  "bytecode": "0x60c06040523480156200001157600080fd5b5060405162003dc838038062003dc883398181016040528101906200003791906200009c565b3373ffffffffffffffffffffffffffffffffffffffff1660808173ffffffffffffffffffffffffffffffffffffffff1660601b815250508060a08181525050600160038190555050620000f7565b6000815190506200009681620000dd565b92915050565b600060208284031215620000b557620000b4620000d8565b5b6000620000c58482850162000085565b91505092915050565b6000819050919050565b600080fd5b620000e881620000ce565b8114620000f457600080fd5b50565b60805160601c60a051613c7e6200014a6000396000818161089101528181610acc0152610b720152600081816107690152818161086b0152818161090001528181610a9e0152610f520152613c7e6000f3fe608060405260043610620001575760003560e01c80636c7c3a5d11620000bb578063ac8fc6041162000079578063ac8fc6041462000521578063acc001431462000565578063bb5db23c1462000571578063dd46706414620005a2578063e812500b14620005d0578063f824ec541462000614576200018c565b80636c7c3a5d14620004095780636f9fb98a1462000439578063820165051462000469578063930e4c8b1462000499578063a9ccb0fe14620004dd576200018c565b8063442890d51162000115578063442890d514620002af5780634a0cf0fb14620002df57806351340f4f146200030f578063580ca24c14620003535780636198e339146200039757806364650eff14620003c5576200018c565b8063179171e214620001bb57806330adbc7414620001ff57806337c12206146200022f5780633c0d12c6146200025f5780633ccfd60b14620002a3576200018c565b366200018c57347f9874a7967abbb8701e946ae29391c091f59962f042ba4b5d99b1ed7f2e2e3e5560405160405180910390a2005b347f9874a7967abbb8701e946ae29391c091f59962f042ba4b5d99b1ed7f2e2e3e5560405160405180910390a2005b348015620001c857600080fd5b50620001e76004803603810190620001e19190620011a2565b62000658565b604051620001f69190620013da565b60405180910390f35b3480156200020c57600080fd5b5062000217620006a6565b604051620002269190620013da565b60405180910390f35b3480156200023c57600080fd5b5062000247620006ac565b60405162000256919062001302565b60405180910390f35b3480156200026c57600080fd5b506200028b6004803603810190620002859190620011a2565b6200070a565b6040516200029a91906200133c565b60405180910390f35b620002ad62000767565b005b348015620002bc57600080fd5b50620002c762000867565b604051620002d6919062001302565b60405180910390f35b348015620002ec57600080fd5b50620002f76200088f565b604051620003069190620013da565b60405180910390f35b3480156200031c57600080fd5b506200033b6004803603810190620003359190620011a2565b620008b3565b6040516200034a919062001302565b60405180910390f35b3480156200036057600080fd5b506200037f6004803603810190620003799190620011a2565b620008e6565b6040516200038e9190620013da565b60405180910390f35b348015620003a457600080fd5b50620003c36004803603810190620003bd91906200123a565b620008fe565b005b348015620003d257600080fd5b50620003f16004803603810190620003eb91906200123a565b62000a3e565b60405162000400919062001302565b60405180910390f35b3480156200041657600080fd5b506200042162000a9c565b6040516200043091906200131f565b60405180910390f35b3480156200044657600080fd5b506200045162000ac0565b604051620004609190620013da565b60405180910390f35b3480156200047657600080fd5b506200048162000ac8565b604051620004909190620013da565b60405180910390f35b348015620004a657600080fd5b50620004c56004803603810190620004bf9190620011d4565b62000af0565b604051620004d4919062001302565b60405180910390f35b348015620004ea57600080fd5b50620005096004803603810190620005039190620011a2565b62000e04565b60405162000518919062001302565b60405180910390f35b3480156200052e57600080fd5b506200054d6004803603810190620005479190620011a2565b62000e71565b6040516200055c9190620013da565b60405180910390f35b6200056f62000ebf565b005b3480156200057e57600080fd5b506200058962000eee565b60405162000599929190620013f7565b60405180910390f35b348015620005af57600080fd5b50620005ce6004803603810190620005c891906200123a565b62000f50565b005b348015620005dd57600080fd5b50620005fc6004803603810190620005f691906200123a565b62001090565b6040516200060b919062001359565b60405180910390f35b3480156200062157600080fd5b506200064060048036038101906200063a9190620011a2565b620010d0565b6040516200064f9190620013da565b60405180910390f35b600080600260008473ffffffffffffffffffffffffffffffffffffffff1673ffffffffffffffffffffffffffffffffffffffff16815260200190815260200160002054905080915050919050565b60035481565b60008060046002600354620006c29190620014fc565b81548110620006d657620006d56200167b565b5b9060005260206000200160009054906101000a900473ffffffffffffffffffffffffffffffffffffffff1690508091505090565b600080600260008473ffffffffffffffffffffffffffffffffffffffff1673ffffffffffffffffffffffffffffffffffffffff16815260200190815260200160002054146200075d576001905062000762565b600090505b919050565b7f000000000000000000000000000000000000000000000000000000000000000073ffffffffffffffffffffffffffffffffffffffff163373ffffffffffffffffffffffffffffffffffffffff1614620007ed576040517f4f227fdb00000000000000000000000000000000000000000000000000000000815260040160405180910390fd5b600047905060003373ffffffffffffffffffffffffffffffffffffffff166108fc839081150290604051600060405180830381858888f1935050505090508062000863576040517fb60ef3b700000000000000000000000000000000000000000000000000000000815260040160405180910390fd5b5050565b60007f0000000000000000000000000000000000000000000000000000000000000000905090565b7f000000000000000000000000000000000000000000000000000000000000000081565b60006020528060005260406000206000915054906101000a900473ffffffffffffffffffffffffffffffffffffffff1681565b60016020528060005260406000206000915090505481565b7f000000000000000000000000000000000000000000000000000000000000000073ffffffffffffffffffffffffffffffffffffffff163373ffffffffffffffffffffffffffffffffffffffff161462000984576040517f4f227fdb00000000000000000000000000000000000000000000000000000000815260040160405180910390fd5b60006004600183620009979190620014fc565b81548110620009ab57620009aa6200167b565b5b9060005260206000200160009054906101000a900473ffffffffffffffffffffffffffffffffffffffff1690508073ffffffffffffffffffffffffffffffffffffffff1663a69df4b56040518163ffffffff1660e01b8152600401600060405180830381600087803b15801562000a2157600080fd5b505af115801562000a36573d6000803e3d6000fd5b505050505050565b600080600460018462000a529190620014fc565b8154811062000a665762000a656200167b565b5b9060005260206000200160009054906101000a900473ffffffffffffffffffffffffffffffffffffffff16905080915050919050565b7f000000000000000000000000000000000000000000000000000000000000000081565b600047905090565b60007f0000000000000000000000000000000000000000000000000000000000000000905090565b600080600160003373ffffffffffffffffffffffffffffffffffffffff1673ffffffffffffffffffffffffffffffffffffffff168152602001908152602001600020541462000b6b576040517f66a7ac8000000000000000000000000000000000000000000000000000000000815260040160405180910390fd5b60008383337f000000000000000000000000000000000000000000000000000000000000000060035460405162000ba290620010e8565b62000bb295949392919062001376565b604051809103906000f08015801562000bcf573d6000803e3d6000fd5b5090508073ffffffffffffffffffffffffffffffffffffffff1663a69df4b56040518163ffffffff1660e01b8152600401600060405180830381600087803b15801562000c1b57600080fd5b505af115801562000c30573d6000803e3d6000fd5b505050506004819080600181540180825580915050600190039060005260206000200160009091909190916101000a81548173ffffffffffffffffffffffffffffffffffffffff021916908373ffffffffffffffffffffffffffffffffffffffff160217905550806000803373ffffffffffffffffffffffffffffffffffffffff1673ffffffffffffffffffffffffffffffffffffffff16815260200190815260200160002060006101000a81548173ffffffffffffffffffffffffffffffffffffffff021916908373ffffffffffffffffffffffffffffffffffffffff160217905550600354600160003373ffffffffffffffffffffffffffffffffffffffff1673ffffffffffffffffffffffffffffffffffffffff16815260200190815260200160002081905550600354600260008373ffffffffffffffffffffffffffffffffffffffff1673ffffffffffffffffffffffffffffffffffffffff16815260200190815260200160002081905550600160035462000db191906200149f565b6003819055508073ffffffffffffffffffffffffffffffffffffffff167f8d41e52c133717d879952d81e8b37582cb51f582d4cb7850e2db6d012141a11c60405160405180910390a28091505092915050565b6000806000808473ffffffffffffffffffffffffffffffffffffffff1673ffffffffffffffffffffffffffffffffffffffff16815260200190815260200160002060009054906101000a900473ffffffffffffffffffffffffffffffffffffffff16905080915050919050565b600080600160008473ffffffffffffffffffffffffffffffffffffffff1673ffffffffffffffffffffffffffffffffffffffff16815260200190815260200160002054905080915050919050565b347f9874a7967abbb8701e946ae29391c091f59962f042ba4b5d99b1ed7f2e2e3e5560405160405180910390a2565b600080600062000efe3362000e04565b90506000600160003373ffffffffffffffffffffffffffffffffffffffff1673ffffffffffffffffffffffffffffffffffffffff16815260200190815260200160002054905080829350935050509091565b7f000000000000000000000000000000000000000000000000000000000000000073ffffffffffffffffffffffffffffffffffffffff163373ffffffffffffffffffffffffffffffffffffffff161462000fd6576040517f4f227fdb00000000000000000000000000000000000000000000000000000000815260040160405180910390fd5b6000600460018362000fe99190620014fc565b8154811062000ffd5762000ffc6200167b565b5b9060005260206000200160009054906101000a900473ffffffffffffffffffffffffffffffffffffffff1690508073ffffffffffffffffffffffffffffffffffffffff1663f83d08ba6040518163ffffffff1660e01b8152600401600060405180830381600087803b1580156200107357600080fd5b505af115801562001088573d6000803e3d6000fd5b505050505050565b60048181548110620010a157600080fd5b906000526020600020016000915054906101000a900473ffffffffffffffffffffffffffffffffffffffff1681565b60026020528060005260406000206000915090505481565b612516806200173383390190565b60006200110d62001107846200144d565b62001424565b9050828152602081018484840111156200112c576200112b620016de565b5b62001139848285620015d1565b509392505050565b6000813590506200115281620016fe565b92915050565b600082601f83011262001170576200116f620016d9565b5b813562001182848260208601620010f6565b91505092915050565b6000813590506200119c8162001718565b92915050565b600060208284031215620011bb57620011ba620016e8565b5b6000620011cb8482850162001141565b91505092915050565b60008060408385031215620011ee57620011ed620016e8565b5b600083013567ffffffffffffffff8111156200120f576200120e620016e3565b5b6200121d8582860162001158565b925050602062001230858286016200118b565b9150509250929050565b600060208284031215620012535762001252620016e8565b5b600062001263848285016200118b565b91505092915050565b62001277816200154b565b82525050565b620012888162001537565b82525050565b62001299816200155f565b82525050565b620012aa8162001595565b82525050565b6000620012bd8262001483565b620012c981856200148e565b9350620012db818560208601620015e0565b620012e681620016ed565b840191505092915050565b620012fc816200158b565b82525050565b60006020820190506200131960008301846200127d565b92915050565b60006020820190506200133660008301846200126c565b92915050565b60006020820190506200135360008301846200128e565b92915050565b60006020820190506200137060008301846200129f565b92915050565b600060a0820190508181036000830152620013928188620012b0565b9050620013a36020830187620012f1565b620013b260408301866200126c565b620013c16060830185620012f1565b620013d06080830184620012f1565b9695505050505050565b6000602082019050620013f16000830184620012f1565b92915050565b60006040820190506200140e6000830185620012f1565b6200141d60208301846200127d565b9392505050565b60006200143062001443565b90506200143e828262001616565b919050565b6000604051905090565b600067ffffffffffffffff8211156200146b576200146a620016aa565b5b6200147682620016ed565b9050602081019050919050565b600081519050919050565b600082825260208201905092915050565b6000620014ac826200158b565b9150620014b9836200158b565b9250827fffffffffffffffffffffffffffffffffffffffffffffffffffffffffffffffff03821115620014f157620014f06200164c565b5b828201905092915050565b600062001509826200158b565b915062001516836200158b565b9250828210156200152c576200152b6200164c565b5b828203905092915050565b600062001544826200156b565b9050919050565b600062001558826200156b565b9050919050565b60008115159050919050565b600073ffffffffffffffffffffffffffffffffffffffff82169050919050565b6000819050919050565b6000620015a282620015a9565b9050919050565b6000620015b682620015bd565b9050919050565b6000620015ca826200156b565b9050919050565b82818337600083830152505050565b60005b8381101562001600578082015181840152602081019050620015e3565b8381111562001610576000848401525b50505050565b6200162182620016ed565b810181811067ffffffffffffffff82111715620016435762001642620016aa565b5b80604052505050565b7f4e487b7100000000000000000000000000000000000000000000000000000000600052601160045260246000fd5b7f4e487b7100000000000000000000000000000000000000000000000000000000600052603260045260246000fd5b7f4e487b7100000000000000000000000000000000000000000000000000000000600052604160045260246000fd5b600080fd5b600080fd5b600080fd5b600080fd5b6000601f19601f8301169050919050565b620017098162001537565b81146200171557600080fd5b50565b62001723816200158b565b81146200172f57600080fd5b5056fe60e06040523480156200001157600080fd5b506040516200251638038062002516833981810160405281019062000037919062000285565b33600260006101000a81548173ffffffffffffffffffffffffffffffffffffffff021916908373ffffffffffffffffffffffffffffffffffffffff16021790555084600390805190602001906200009092919062000129565b5082600160046101000a81548173ffffffffffffffffffffffffffffffffffffffff021916908373ffffffffffffffffffffffffffffffffffffffff160217905550836080818152505060018060016101000a81548160ff0219169083151502179055508160a081815250508060c0818152505060018060026101000a81548160ff021916908315150217905550505050505062000522565b8280546200013790620003ff565b90600052602060002090601f0160209004810192826200015b5760008555620001a7565b82601f106200017657805160ff1916838001178555620001a7565b82800160010185558215620001a7579182015b82811115620001a657825182559160200191906001019062000189565b5b509050620001b69190620001ba565b5090565b5b80821115620001d5576000816000905550600101620001bb565b5090565b6000620001f0620001ea8462000355565b6200032c565b9050828152602081018484840111156200020f576200020e620004ce565b5b6200021c848285620003c9565b509392505050565b6000815190506200023581620004ee565b92915050565b600082601f830112620002535762000252620004c9565b5b815162000265848260208601620001d9565b91505092915050565b6000815190506200027f8162000508565b92915050565b600080600080600060a08688031215620002a457620002a3620004d8565b5b600086015167ffffffffffffffff811115620002c557620002c4620004d3565b5b620002d3888289016200023b565b9550506020620002e6888289016200026e565b9450506040620002f98882890162000224565b93505060606200030c888289016200026e565b92505060806200031f888289016200026e565b9150509295509295909350565b6000620003386200034b565b905062000346828262000435565b919050565b6000604051905090565b600067ffffffffffffffff8211156200037357620003726200049a565b5b6200037e82620004dd565b9050602081019050919050565b600062000398826200039f565b9050919050565b600073ffffffffffffffffffffffffffffffffffffffff82169050919050565b6000819050919050565b60005b83811015620003e9578082015181840152602081019050620003cc565b83811115620003f9576000848401525b50505050565b600060028204905060018216806200041857607f821691505b602082108114156200042f576200042e6200046b565b5b50919050565b6200044082620004dd565b810181811067ffffffffffffffff821117156200046257620004616200049a565b5b80604052505050565b7f4e487b7100000000000000000000000000000000000000000000000000000000600052602260045260246000fd5b7f4e487b7100000000000000000000000000000000000000000000000000000000600052604160045260246000fd5b600080fd5b600080fd5b600080fd5b600080fd5b6000601f19601f8301169050919050565b620004f9816200038b565b81146200050557600080fd5b50565b6200051381620003bf565b81146200051f57600080fd5b50565b60805160a05160c051611fa86200056e600039600061089f015260008181610c490152610e120152600081816107f101528181610f69015281816110d201526113160152611fa86000f3fe6080604052600436106101c65760003560e01c8063787e3257116100f7578063c622bb2011610095578063dfcf7a8c11610064578063dfcf7a8c146105d5578063ed88c68e14610600578063f03232a31461060a578063f83d08ba14610635576101d5565b8063c622bb2014610560578063ca973f071461058b578063d4f2a4d514610595578063d9d25813146105ac576101d5565b8063a69df4b5116100d1578063a69df4b5146104c8578063af1aa9f9146104df578063b97a7d241461050a578063c38804a514610535576101d5565b8063787e32571461043557806380e1204f14610460578063a67e30cb1461049d576101d5565b806339d7e8a4116101645780635edd22671161013e5780635edd2267146103775780635eed3dcb146103a2578063643b2870146103df578063748ce70a1461040a576101d5565b806339d7e8a41461030a5780633ccfd60b146103355780634a0cf0fb1461034c576101d5565b80632af4c31e116101a05780632af4c31e146102605780632d3297b6146102895780632e6626e7146102b4578063306addc4146102df576101d5565b80630294d011146101df578063092dcb4c1461020a5780630cfc2fc514610235576101d5565b366101d5576101d361064c565b005b6101dd61064c565b005b3480156101eb57600080fd5b506101f461089d565b6040516102019190611b96565b60405180910390f35b34801561021657600080fd5b5061021f6108c1565b60405161022c9190611b37565b60405180910390f35b34801561024157600080fd5b5061024a6108d8565b6040516102579190611b37565b60405180910390f35b34801561026c57600080fd5b506102876004803603810190610282919061196a565b6108eb565b005b34801561029557600080fd5b5061029e610a40565b6040516102ab9190611b96565b60405180910390f35b3480156102c057600080fd5b506102c9610a49565b6040516102d69190611b52565b60405180910390f35b3480156102eb57600080fd5b506102f4610adb565b6040516103019190611b52565b60405180910390f35b34801561031657600080fd5b5061031f610b69565b60405161032c9190611b96565b60405180910390f35b34801561034157600080fd5b5061034a610b6f565b005b34801561035857600080fd5b50610361610e10565b60405161036e9190611b96565b60405180910390f35b34801561038357600080fd5b5061038c610e34565b6040516103999190611b52565b60405180910390f35b3480156103ae57600080fd5b506103c960048036038101906103c491906119e0565b610ec2565b6040516103d69190611af3565b60405180910390f35b3480156103eb57600080fd5b506103f4610f01565b6040516104019190611af3565b60405180910390f35b34801561041657600080fd5b5061041f610f27565b60405161042c9190611b37565b60405180910390f35b34801561044157600080fd5b5061044a610f3c565b6040516104579190611b37565b60405180910390f35b34801561046c57600080fd5b506104876004803603810190610482919061193d565b610f4f565b6040516104949190611b96565b60405180910390f35b3480156104a957600080fd5b506104b2610f67565b6040516104bf9190611b96565b60405180910390f35b3480156104d457600080fd5b506104dd610f8b565b005b3480156104eb57600080fd5b506104f46110bb565b6040516105019190611b37565b60405180910390f35b34801561051657600080fd5b5061051f6110ce565b60405161052c9190611b96565b60405180910390f35b34801561054157600080fd5b5061054a6110f6565b6040516105579190611af3565b60405180910390f35b34801561056c57600080fd5b5061057561111c565b6040516105829190611af3565b60405180910390f35b610593611146565b005b3480156105a157600080fd5b506105aa611397565b005b3480156105b857600080fd5b506105d360048036038101906105ce9190611997565b6114f8565b005b3480156105e157600080fd5b506105ea611618565b6040516105f79190611b37565b60405180910390f35b61060861064c565b005b34801561061657600080fd5b5061061f611629565b60405161062c9190611b52565b60405180910390f35b34801561064157600080fd5b5061064a6116bb565b005b600160009054906101000a900460ff1615610693576040517f7d6ebcc700000000000000000000000000000000000000000000000000000000815260040160405180910390fd5b60018054906101000a900460ff166106d7576040517f9f6f715500000000000000000000000000000000000000000000000000000000815260040160405180910390fd5b600160029054906101000a900460ff161561071e576040517fbabe63b900000000000000000000000000000000000000000000000000000000815260040160405180910390fd5b3460008082825461072f9190611c38565b925050819055506006339080600181540180825580915050600190039060005260206000200160009091909190916101000a81548173ffffffffffffffffffffffffffffffffffffffff021916908373ffffffffffffffffffffffffffffffffffffffff16021790555034600560003373ffffffffffffffffffffffffffffffffffffffff1673ffffffffffffffffffffffffffffffffffffffff16815260200190815260200160002060008282546107e89190611c38565b925050819055507f00000000000000000000000000000000000000000000000000000000000000006000541061084d5760018060006101000a81548160ff02191690831515021790555060006001806101000a81548160ff0219169083151502179055505b3373ffffffffffffffffffffffffffffffffffffffff167faa13962bc79c7a0bc42cb8169b1705f0a6b55cc404ffb8a589d771ca78675978346040516108939190611b96565b60405180910390a2565b7f000000000000000000000000000000000000000000000000000000000000000081565b6000600160009054906101000a900460ff16905090565b600160039054906101000a900460ff1681565b600160049054906101000a900473ffffffffffffffffffffffffffffffffffffffff1673ffffffffffffffffffffffffffffffffffffffff163373ffffffffffffffffffffffffffffffffffffffff1614610972576040517f18f09efd00000000000000000000000000000000000000000000000000000000815260040160405180910390fd5b600160029054906101000a900460ff16156109b9576040517fbabe63b900000000000000000000000000000000000000000000000000000000815260040160405180910390fd5b80600160046101000a81548173ffffffffffffffffffffffffffffffffffffffff021916908373ffffffffffffffffffffffffffffffffffffffff1602179055508073ffffffffffffffffffffffffffffffffffffffff167f595ee9ffef04d4d652b768860c56905a48f5ab79124bb3b2279df1885536991d60405160405180910390a250565b60008054905090565b606060048054610a5890611de9565b80601f0160208091040260200160405190810160405280929190818152602001828054610a8490611de9565b8015610ad15780601f10610aa657610100808354040283529160200191610ad1565b820191906000526020600020905b815481529060010190602001808311610ab457829003601f168201915b5050505050905090565b60048054610ae890611de9565b80601f0160208091040260200160405190810160405280929190818152602001828054610b1490611de9565b8015610b615780601f10610b3657610100808354040283529160200191610b61565b820191906000526020600020905b815481529060010190602001808311610b4457829003601f168201915b505050505081565b60005481565b600160049054906101000a900473ffffffffffffffffffffffffffffffffffffffff1673ffffffffffffffffffffffffffffffffffffffff163373ffffffffffffffffffffffffffffffffffffffff1614610bf6576040517f18f09efd00000000000000000000000000000000000000000000000000000000815260040160405180910390fd5b600160029054906101000a900460ff1615610c3d576040517fbabe63b900000000000000000000000000000000000000000000000000000000815260040160405180910390fd5b600047905060006127107f000000000000000000000000000000000000000000000000000000000000000083610c739190611cbf565b610c7d9190611c8e565b90506000600260009054906101000a900473ffffffffffffffffffffffffffffffffffffffff1673ffffffffffffffffffffffffffffffffffffffff166108fc839081150290604051600060405180830381858888f19350505050905080610d11576040517f7824242700000000000000000000000000000000000000000000000000000000815260040160405180910390fd5b60003373ffffffffffffffffffffffffffffffffffffffff166108fc479081150290604051600060405180830381858888f19350505050905080610d81576040517f7824242700000000000000000000000000000000000000000000000000000000815260040160405180910390fd5b60006001806101000a81548160ff0219169083151502179055506000808190555060018060036101000a81548160ff0219169083151502179055503373ffffffffffffffffffffffffffffffffffffffff167fbc158bb64f05d6383aea69bbb0b20c1bbf4b7a18f63359c5649b7c39e29d388485604051610e029190611b96565b60405180910390a250505050565b7f000000000000000000000000000000000000000000000000000000000000000081565b60038054610e4190611de9565b80601f0160208091040260200160405190810160405280929190818152602001828054610e6d90611de9565b8015610eba5780601f10610e8f57610100808354040283529160200191610eba565b820191906000526020600020905b815481529060010190602001808311610e9d57829003601f168201915b505050505081565b60068181548110610ed257600080fd5b906000526020600020016000915054906101000a900473ffffffffffffffffffffffffffffffffffffffff1681565b600160049054906101000a900473ffffffffffffffffffffffffffffffffffffffff1681565b600060018054906101000a900460ff16905090565b600160029054906101000a900460ff1681565b60056020528060005260406000206000915090505481565b7f000000000000000000000000000000000000000000000000000000000000000081565b600260009054906101000a900473ffffffffffffffffffffffffffffffffffffffff1673ffffffffffffffffffffffffffffffffffffffff163373ffffffffffffffffffffffffffffffffffffffff1614611012576040517f33e2a8ec00000000000000000000000000000000000000000000000000000000815260040160405180910390fd5b600160029054906101000a900460ff16611058576040517f9b6b472200000000000000000000000000000000000000000000000000000000815260040160405180910390fd5b6000600160026101000a81548160ff0219169083151502179055507fda3943f07eff121b37cf91d4288e4e85a5078bee9b6e9159a955bedb96836948600160029054906101000a900460ff166040516110b19190611b37565b60405180910390a1565b600160009054906101000a900460ff1681565b60007f0000000000000000000000000000000000000000000000000000000000000000905090565b600260009054906101000a900473ffffffffffffffffffffffffffffffffffffffff1681565b6000600160049054906101000a900473ffffffffffffffffffffffffffffffffffffffff16905090565b600160039054906101000a900460ff161561118d576040517fbdf238b400000000000000000000000000000000000000000000000000000000815260040160405180910390fd5b6000600560003373ffffffffffffffffffffffffffffffffffffffff1673ffffffffffffffffffffffffffffffffffffffff168152602001908152602001600020541415611207576040517f203c9ab100000000000000000000000000000000000000000000000000000000815260040160405180910390fd5b6000600560003373ffffffffffffffffffffffffffffffffffffffff1673ffffffffffffffffffffffffffffffffffffffff16815260200190815260200160002054905060003373ffffffffffffffffffffffffffffffffffffffff166108fc839081150290604051600060405180830381858888f193505050509050806112bb576040517f7824242700000000000000000000000000000000000000000000000000000000815260040160405180910390fd5b6000600560003373ffffffffffffffffffffffffffffffffffffffff1673ffffffffffffffffffffffffffffffffffffffff168152602001908152602001600020819055508160005461130e9190611d19565b6000819055507f0000000000000000000000000000000000000000000000000000000000000000600054101561135a576000600160006101000a81548160ff0219169083151502179055505b7fd7dee2702d63ad89917b6a4da9981c90c4d24f8c2bdfd64c604ecae57d8d0651338360405161138b929190611b0e565b60405180910390a15050565b600160049054906101000a900473ffffffffffffffffffffffffffffffffffffffff1673ffffffffffffffffffffffffffffffffffffffff163373ffffffffffffffffffffffffffffffffffffffff161461141e576040517f18f09efd00000000000000000000000000000000000000000000000000000000815260040160405180910390fd5b60018054906101000a900460ff16156114505760006001806101000a81548160ff0219169083151502179055506114b2565b600160039054906101000a900460ff1615611497576040517fb5608ae600000000000000000000000000000000000000000000000000000000815260040160405180910390fd5b60018060016101000a81548160ff0219169083151502179055505b7f6f5be26fb94646fadcdf16147ddd35138ad497ce000f92f12eadbaa19497c53360018054906101000a900460ff166040516114ee9190611b37565b60405180910390a1565b600160049054906101000a900473ffffffffffffffffffffffffffffffffffffffff1673ffffffffffffffffffffffffffffffffffffffff163373ffffffffffffffffffffffffffffffffffffffff161461157f576040517f18f09efd00000000000000000000000000000000000000000000000000000000815260040160405180910390fd5b600160029054906101000a900460ff16156115c6576040517fbabe63b900000000000000000000000000000000000000000000000000000000815260040160405180910390fd5b80600490805190602001906115dc9291906117eb565b507f0c9c2f86218c506a4f5a61d8550880041379a6c31155086325a859e19bfeaaf8600460405161160d9190611b74565b60405180910390a150565b60018054906101000a900460ff1681565b60606003805461163890611de9565b80601f016020809104026020016040519081016040528092919081815260200182805461166490611de9565b80156116b15780601f10611686576101008083540402835291602001916116b1565b820191906000526020600020905b81548152906001019060200180831161169457829003601f168201915b5050505050905090565b600260009054906101000a900473ffffffffffffffffffffffffffffffffffffffff1673ffffffffffffffffffffffffffffffffffffffff163373ffffffffffffffffffffffffffffffffffffffff1614611742576040517f33e2a8ec00000000000000000000000000000000000000000000000000000000815260040160405180910390fd5b600160029054906101000a900460ff1615611789576040517fe1c205bf00000000000000000000000000000000000000000000000000000000815260040160405180910390fd5b60018060026101000a81548160ff0219169083151502179055507fc20b8fc722655092cdbc0c19a12ad36bbf5f5e7da7c30409ecefea3880d8e8cc600160029054906101000a900460ff166040516117e19190611b37565b60405180910390a1565b8280546117f790611de9565b90600052602060002090601f0160209004810192826118195760008555611860565b82601f1061183257805160ff1916838001178555611860565b82800160010185558215611860579182015b8281111561185f578251825591602001919060010190611844565b5b50905061186d9190611871565b5090565b5b8082111561188a576000816000905550600101611872565b5090565b60006118a161189c84611bd6565b611bb1565b9050828152602081018484840111156118bd576118bc611f0d565b5b6118c8848285611da7565b509392505050565b6000813590506118df81611f2d565b92915050565b6000813590506118f481611f44565b92915050565b600082601f83011261190f5761190e611f08565b5b813561191f84826020860161188e565b91505092915050565b60008135905061193781611f5b565b92915050565b60006020828403121561195357611952611f17565b5b6000611961848285016118d0565b91505092915050565b6000602082840312156119805761197f611f17565b5b600061198e848285016118e5565b91505092915050565b6000602082840312156119ad576119ac611f17565b5b600082013567ffffffffffffffff8111156119cb576119ca611f12565b5b6119d7848285016118fa565b91505092915050565b6000602082840312156119f6576119f5611f17565b5b6000611a0484828501611928565b91505092915050565b611a1681611d4d565b82525050565b611a2581611d71565b82525050565b6000611a3682611c1c565b611a408185611c27565b9350611a50818560208601611db6565b611a5981611f1c565b840191505092915050565b60008154611a7181611de9565b611a7b8186611c27565b94506001821660008114611a965760018114611aa857611adb565b60ff1983168652602086019350611adb565b611ab185611c07565b60005b83811015611ad357815481890152600182019150602081019050611ab4565b808801955050505b50505092915050565b611aed81611d9d565b82525050565b6000602082019050611b086000830184611a0d565b92915050565b6000604082019050611b236000830185611a0d565b611b306020830184611ae4565b9392505050565b6000602082019050611b4c6000830184611a1c565b92915050565b60006020820190508181036000830152611b6c8184611a2b565b905092915050565b60006020820190508181036000830152611b8e8184611a64565b905092915050565b6000602082019050611bab6000830184611ae4565b92915050565b6000611bbb611bcc565b9050611bc78282611e1b565b919050565b6000604051905090565b600067ffffffffffffffff821115611bf157611bf0611ed9565b5b611bfa82611f1c565b9050602081019050919050565b60008190508160005260206000209050919050565b600081519050919050565b600082825260208201905092915050565b6000611c4382611d9d565b9150611c4e83611d9d565b9250827fffffffffffffffffffffffffffffffffffffffffffffffffffffffffffffffff03821115611c8357611c82611e4c565b5b828201905092915050565b6000611c9982611d9d565b9150611ca483611d9d565b925082611cb457611cb3611e7b565b5b828204905092915050565b6000611cca82611d9d565b9150611cd583611d9d565b9250817fffffffffffffffffffffffffffffffffffffffffffffffffffffffffffffffff0483118215151615611d0e57611d0d611e4c565b5b828202905092915050565b6000611d2482611d9d565b9150611d2f83611d9d565b925082821015611d4257611d41611e4c565b5b828203905092915050565b6000611d5882611d7d565b9050919050565b6000611d6a82611d7d565b9050919050565b60008115159050919050565b600073ffffffffffffffffffffffffffffffffffffffff82169050919050565b6000819050919050565b82818337600083830152505050565b60005b83811015611dd4578082015181840152602081019050611db9565b83811115611de3576000848401525b50505050565b60006002820490506001821680611e0157607f821691505b60208210811415611e1557611e14611eaa565b5b50919050565b611e2482611f1c565b810181811067ffffffffffffffff82111715611e4357611e42611ed9565b5b80604052505050565b7f4e487b7100000000000000000000000000000000000000000000000000000000600052601160045260246000fd5b7f4e487b7100000000000000000000000000000000000000000000000000000000600052601260045260246000fd5b7f4e487b7100000000000000000000000000000000000000000000000000000000600052602260045260246000fd5b7f4e487b7100000000000000000000000000000000000000000000000000000000600052604160045260246000fd5b600080fd5b600080fd5b600080fd5b600080fd5b6000601f19601f8301169050919050565b611f3681611d4d565b8114611f4157600080fd5b50565b611f4d81611d5f565b8114611f5857600080fd5b50565b611f6481611d9d565b8114611f6f57600080fd5b5056fea2646970667358221220202826ea23d84447e124d8ecc1087c35c320668aa208d8e5eed540f3781af35164736f6c63430008070033a26469706673582212207d2562920477dfece9c8a542b2a7e364deb11210cdf347f126eeba2301a6363e64736f6c63430008070033",
  "devdoc": {
    "kind": "dev",
    "methods": {},
    "version": 1
  },
  "userdoc": {
    "kind": "user",
    "methods": {},
    "version": 1
  },
  "storageLayout": {
    "storage": [
      {
        "astId": 584,
        "contract": "contracts/CrowdFunder.sol:CrowdFunder",
        "label": "walletToCauseOwned",
        "offset": 0,
        "slot": "0",
        "type": "t_mapping(t_address,t_address)"
      },
      {
        "astId": 588,
        "contract": "contracts/CrowdFunder.sol:CrowdFunder",
        "label": "hasCause",
        "offset": 0,
        "slot": "1",
        "type": "t_mapping(t_address,t_uint256)"
      },
      {
        "astId": 592,
        "contract": "contracts/CrowdFunder.sol:CrowdFunder",
        "label": "causeToId",
        "offset": 0,
        "slot": "2",
        "type": "t_mapping(t_address,t_uint256)"
      },
      {
        "astId": 596,
        "contract": "contracts/CrowdFunder.sol:CrowdFunder",
        "label": "s_nextCauseId",
        "offset": 0,
        "slot": "3",
        "type": "t_uint256"
      },
      {
        "astId": 600,
        "contract": "contracts/CrowdFunder.sol:CrowdFunder",
        "label": "s_causes",
        "offset": 0,
        "slot": "4",
        "type": "t_array(t_contract(Cause)575)dyn_storage"
      }
    ],
    "types": {
      "t_address": {
        "encoding": "inplace",
        "label": "address",
        "numberOfBytes": "20"
      },
      "t_array(t_contract(Cause)575)dyn_storage": {
        "base": "t_contract(Cause)575",
        "encoding": "dynamic_array",
        "label": "contract Cause[]",
        "numberOfBytes": "32"
      },
      "t_contract(Cause)575": {
        "encoding": "inplace",
        "label": "contract Cause",
        "numberOfBytes": "20"
      },
      "t_mapping(t_address,t_address)": {
        "encoding": "mapping",
        "key": "t_address",
        "label": "mapping(address => address)",
        "numberOfBytes": "32",
        "value": "t_address"
      },
      "t_mapping(t_address,t_uint256)": {
        "encoding": "mapping",
        "key": "t_address",
        "label": "mapping(address => uint256)",
        "numberOfBytes": "32",
        "value": "t_uint256"
      },
      "t_uint256": {
        "encoding": "inplace",
        "label": "uint256",
        "numberOfBytes": "32"
      }
    }
  }
}