{
  "address": "0x46bC76dE6058a32D1cc840a69BD755E4456cA8f6",
  "abi": [
    {
      "inputs": [
        {
          "internalType": "uint256",
          "name": "percentCut",
          "type": "uint256"
        }
      ],
      "stateMutability": "nonpayable",
      "type": "constructor"
    },
    {
      "inputs": [],
      "name": "CrowdFunder__AlreadyHasACause",
      "type": "error"
    },
    {
      "inputs": [],
      "name": "CrowdFunder__ErrorWithdrawing",
      "type": "error"
    },
    {
      "inputs": [],
      "name": "CrowdFunder__Unauthorised",
      "type": "error"
    },
    {
      "anonymous": false,
      "inputs": [
        {
          "indexed": true,
          "internalType": "address",
          "name": "causeAddress",
          "type": "address"
        }
      ],
      "name": "CauseCreated",
      "type": "event"
    },
    {
      "anonymous": false,
      "inputs": [
        {
          "indexed": true,
          "internalType": "uint256",
          "name": "amount",
          "type": "uint256"
        }
      ],
      "name": "DonationReceived",
      "type": "event"
    },
    {
      "anonymous": false,
      "inputs": [
        {
          "indexed": true,
          "internalType": "uint256",
          "name": "amount",
          "type": "uint256"
        }
      ],
      "name": "WithdrawalMade",
      "type": "event"
    },
    {
      "stateMutability": "payable",
      "type": "fallback"
    },
    {
      "inputs": [
        {
          "internalType": "address",
          "name": "",
          "type": "address"
        }
      ],
      "name": "causeToId",
      "outputs": [
        {
          "internalType": "uint256",
          "name": "",
          "type": "uint256"
        }
      ],
      "stateMutability": "view",
      "type": "function"
    },
    {
      "inputs": [
        {
          "internalType": "address",
          "name": "causeToCheck",
          "type": "address"
        }
      ],
      "name": "confirmCause",
      "outputs": [
        {
          "internalType": "bool",
          "name": "",
          "type": "bool"
        }
      ],
      "stateMutability": "view",
      "type": "function"
    },
    {
      "inputs": [
        {
          "internalType": "string",
          "name": "causeName",
          "type": "string"
        },
        {
          "internalType": "uint256",
          "name": "goal",
          "type": "uint256"
        }
      ],
      "name": "createCause",
      "outputs": [
        {
          "internalType": "address",
          "name": "",
          "type": "address"
        }
      ],
      "stateMutability": "nonpayable",
      "type": "function"
    },
    {
      "inputs": [
        {
          "internalType": "address",
          "name": "owner",
          "type": "address"
        }
      ],
      "name": "getCauseAddressByOwnerWallet",
      "outputs": [
        {
          "internalType": "address",
          "name": "",
          "type": "address"
        }
      ],
      "stateMutability": "view",
      "type": "function"
    },
    {
      "inputs": [
        {
          "internalType": "uint256",
          "name": "causeId",
          "type": "uint256"
        }
      ],
      "name": "getCauseById",
      "outputs": [
        {
          "internalType": "address",
          "name": "",
          "type": "address"
        }
      ],
      "stateMutability": "view",
      "type": "function"
    },
    {
      "inputs": [
        {
          "internalType": "address",
          "name": "causeAddress",
          "type": "address"
        }
      ],
      "name": "getCauseIdByCauseAddress",
      "outputs": [
        {
          "internalType": "uint256",
          "name": "",
          "type": "uint256"
        }
      ],
      "stateMutability": "view",
      "type": "function"
    },
    {
      "inputs": [
        {
          "internalType": "address",
          "name": "owner",
          "type": "address"
        }
      ],
      "name": "getCauseIdByOwnerAddress",
      "outputs": [
        {
          "internalType": "uint256",
          "name": "",
          "type": "uint256"
        }
      ],
      "stateMutability": "view",
      "type": "function"
    },
    {
      "inputs": [],
      "name": "getContractBalance",
      "outputs": [
        {
          "internalType": "uint256",
          "name": "",
          "type": "uint256"
        }
      ],
      "stateMutability": "view",
      "type": "function"
    },
    {
      "inputs": [],
      "name": "getContractOwner",
      "outputs": [
        {
          "internalType": "address",
          "name": "",
          "type": "address"
        }
      ],
      "stateMutability": "view",
      "type": "function"
    },
    {
      "inputs": [],
      "name": "getLatestCauseAddress",
      "outputs": [
        {
          "internalType": "address",
          "name": "",
          "type": "address"
        }
      ],
      "stateMutability": "view",
      "type": "function"
    },
    {
      "inputs": [],
      "name": "getLatestCauseId",
      "outputs": [
        {
          "internalType": "uint256",
          "name": "",
          "type": "uint256"
        }
      ],
      "stateMutability": "view",
      "type": "function"
    },
    {
      "inputs": [],
      "name": "getMyCauseId",
      "outputs": [
        {
          "internalType": "uint256",
          "name": "",
          "type": "uint256"
        }
      ],
      "stateMutability": "view",
      "type": "function"
    },
    {
      "inputs": [],
      "name": "getPercentCut",
      "outputs": [
        {
          "internalType": "uint256",
          "name": "",
          "type": "uint256"
        }
      ],
      "stateMutability": "view",
      "type": "function"
    },
    {
      "inputs": [
        {
          "internalType": "address",
          "name": "newOwner",
          "type": "address"
        }
      ],
      "name": "handover",
      "outputs": [],
      "stateMutability": "nonpayable",
      "type": "function"
    },
    {
      "inputs": [
        {
          "internalType": "address",
          "name": "",
          "type": "address"
        }
      ],
      "name": "hasCause",
      "outputs": [
        {
          "internalType": "uint256",
          "name": "",
          "type": "uint256"
        }
      ],
      "stateMutability": "view",
      "type": "function"
    },
    {
      "inputs": [],
      "name": "i_crowdFunderOwner",
      "outputs": [
        {
          "internalType": "address payable",
          "name": "",
          "type": "address"
        }
      ],
      "stateMutability": "view",
      "type": "function"
    },
    {
      "inputs": [],
      "name": "i_percentCut",
      "outputs": [
        {
          "internalType": "uint256",
          "name": "",
          "type": "uint256"
        }
      ],
      "stateMutability": "view",
      "type": "function"
    },
    {
      "inputs": [
        {
          "internalType": "uint256",
          "name": "causeId",
          "type": "uint256"
        }
      ],
      "name": "lock",
      "outputs": [],
      "stateMutability": "nonpayable",
      "type": "function"
    },
    {
      "inputs": [
        {
          "internalType": "uint256",
          "name": "",
          "type": "uint256"
        }
      ],
      "name": "s_causes",
      "outputs": [
        {
          "internalType": "contract Cause",
          "name": "",
          "type": "address"
        }
      ],
      "stateMutability": "view",
      "type": "function"
    },
    {
      "inputs": [],
      "name": "s_nextCauseId",
      "outputs": [
        {
          "internalType": "uint256",
          "name": "",
          "type": "uint256"
        }
      ],
      "stateMutability": "view",
      "type": "function"
    },
    {
      "inputs": [],
      "name": "sponsorSite",
      "outputs": [],
      "stateMutability": "payable",
      "type": "function"
    },
    {
      "inputs": [
        {
          "internalType": "uint256",
          "name": "causeId",
          "type": "uint256"
        }
      ],
      "name": "unlock",
      "outputs": [],
      "stateMutability": "nonpayable",
      "type": "function"
    },
    {
      "inputs": [
        {
          "internalType": "address",
          "name": "",
          "type": "address"
        }
      ],
      "name": "walletToCauseOwned",
      "outputs": [
        {
          "internalType": "address",
          "name": "",
          "type": "address"
        }
      ],
      "stateMutability": "view",
      "type": "function"
    },
    {
      "inputs": [],
      "name": "withdraw",
      "outputs": [],
      "stateMutability": "payable",
      "type": "function"
    },
    {
      "stateMutability": "payable",
      "type": "receive"
    }
  ],
  "transactionHash": "0x8a35fa11b9656d7095717d3110819a38a4c18d59e951c8bed1257461c4fed4d0",
  "args": [
    "300"
  ],
  "numDeployments": 1,
  "solcInputHash": "3e136933908c4ad2d7f48eafe70ca16a",
  "bytecode": "0x60c06040523480156200001157600080fd5b50604051620046093803806200460983398181016040528101906200003791906200009c565b3373ffffffffffffffffffffffffffffffffffffffff1660808173ffffffffffffffffffffffffffffffffffffffff1660601b815250508060a08181525050600160038190555050620000f7565b6000815190506200009681620000dd565b92915050565b600060208284031215620000b557620000b4620000d8565b5b6000620000c58482850162000085565b91505092915050565b6000819050919050565b600080fd5b620000e881620000ce565b8114620000f457600080fd5b50565b60805160601c60a0516144bf6200014a60003960008181610bad01528181610e510152610ef70152600081816107c701528181610b8701528181610c1c01528181610dba01526111f801526144bf6000f3fe6080604052600436106200016f5760003560e01c80636c7c3a5d11620000c7578063a9ccb0fe1162000079578063a9ccb0fe146200053d578063acc001431462000581578063dd467064146200058d578063e812500b14620005bb578063e8d95fec14620005ff578063f824ec5414620006435762000181565b80636c7c3a5d14620004095780636f9fb98a1462000439578063785d9c0314620004695780637f92ee9414620004995780638201650514620004c9578063930e4c8b14620004f95762000181565b8063442890d51162000121578063442890d514620002af5780634a0cf0fb14620002df57806351340f4f146200030f578063580ca24c14620003535780636198e339146200039757806364650eff14620003c55762000181565b8063179171e2146200018d57806330adbc7414620001d157806337c1220614620002015780633c0d12c614620002315780633ccfd60b14620002755780633ff4d08314620002815762000181565b3662000181576200017f62000687565b005b6200018b62000687565b005b3480156200019a57600080fd5b50620001b96004803603810190620001b3919062001496565b620006b6565b604051620001c89190620016ce565b60405180910390f35b348015620001de57600080fd5b50620001e962000704565b604051620001f89190620016ce565b60405180910390f35b3480156200020e57600080fd5b50620002196200070a565b604051620002289190620015f6565b60405180910390f35b3480156200023e57600080fd5b506200025d600480360381019062000257919062001496565b62000768565b6040516200026c919062001630565b60405180910390f35b6200027f620007c5565b005b3480156200028e57600080fd5b50620002ad6004803603810190620002a7919062001496565b620008c5565b005b348015620002bc57600080fd5b50620002c762000b83565b604051620002d69190620015f6565b60405180910390f35b348015620002ec57600080fd5b50620002f762000bab565b604051620003069190620016ce565b60405180910390f35b3480156200031c57600080fd5b506200033b600480360381019062000335919062001496565b62000bcf565b6040516200034a9190620015f6565b60405180910390f35b3480156200036057600080fd5b506200037f600480360381019062000379919062001496565b62000c02565b6040516200038e9190620016ce565b60405180910390f35b348015620003a457600080fd5b50620003c36004803603810190620003bd91906200152e565b62000c1a565b005b348015620003d257600080fd5b50620003f16004803603810190620003eb91906200152e565b62000d5a565b604051620004009190620015f6565b60405180910390f35b3480156200041657600080fd5b506200042162000db8565b60405162000430919062001613565b60405180910390f35b3480156200044657600080fd5b506200045162000ddc565b604051620004609190620016ce565b60405180910390f35b3480156200047657600080fd5b506200048162000de4565b604051620004909190620016ce565b60405180910390f35b348015620004a657600080fd5b50620004b162000e30565b604051620004c09190620016ce565b60405180910390f35b348015620004d657600080fd5b50620004e162000e4d565b604051620004f09190620016ce565b60405180910390f35b3480156200050657600080fd5b506200052560048036038101906200051f9190620014c8565b62000e75565b604051620005349190620015f6565b60405180910390f35b3480156200054a57600080fd5b5062000569600480360381019062000563919062001496565b62001189565b604051620005789190620015f6565b60405180910390f35b6200058b62000687565b005b3480156200059a57600080fd5b50620005b96004803603810190620005b391906200152e565b620011f6565b005b348015620005c857600080fd5b50620005e76004803603810190620005e191906200152e565b62001336565b604051620005f691906200164d565b60405180910390f35b3480156200060c57600080fd5b506200062b600480360381019062000625919062001496565b62001376565b6040516200063a9190620016ce565b60405180910390f35b3480156200065057600080fd5b506200066f600480360381019062000669919062001496565b620013c4565b6040516200067e9190620016ce565b60405180910390f35b347f9874a7967abbb8701e946ae29391c091f59962f042ba4b5d99b1ed7f2e2e3e5560405160405180910390a2565b600080600260008473ffffffffffffffffffffffffffffffffffffffff1673ffffffffffffffffffffffffffffffffffffffff16815260200190815260200160002054905080915050919050565b60035481565b60008060046002600354620007209190620017c3565b8154811062000734576200073362001942565b5b9060005260206000200160009054906101000a900473ffffffffffffffffffffffffffffffffffffffff1690508091505090565b600080600260008473ffffffffffffffffffffffffffffffffffffffff1673ffffffffffffffffffffffffffffffffffffffff1681526020019081526020016000205414620007bb5760019050620007c0565b600090505b919050565b7f000000000000000000000000000000000000000000000000000000000000000073ffffffffffffffffffffffffffffffffffffffff163373ffffffffffffffffffffffffffffffffffffffff16146200084b576040517f62de198600000000000000000000000000000000000000000000000000000000815260040160405180910390fd5b600047905060003373ffffffffffffffffffffffffffffffffffffffff166108fc839081150290604051600060405180830381858888f19350505050905080620008c1576040517fb60ef3b700000000000000000000000000000000000000000000000000000000815260040160405180910390fd5b5050565b6000600160003373ffffffffffffffffffffffffffffffffffffffff1673ffffffffffffffffffffffffffffffffffffffff16815260200190815260200160002054141580156200095557506000600160008373ffffffffffffffffffffffffffffffffffffffff1673ffffffffffffffffffffffffffffffffffffffff16815260200190815260200160002054145b6200095f57600080fd5b600160003373ffffffffffffffffffffffffffffffffffffffff1673ffffffffffffffffffffffffffffffffffffffff16815260200190815260200160002054600160008373ffffffffffffffffffffffffffffffffffffffff1673ffffffffffffffffffffffffffffffffffffffff168152602001908152602001600020819055506000600160003373ffffffffffffffffffffffffffffffffffffffff1673ffffffffffffffffffffffffffffffffffffffff168152602001908152602001600020819055506000803373ffffffffffffffffffffffffffffffffffffffff1673ffffffffffffffffffffffffffffffffffffffff16815260200190815260200160002060009054906101000a900473ffffffffffffffffffffffffffffffffffffffff166000808373ffffffffffffffffffffffffffffffffffffffff1673ffffffffffffffffffffffffffffffffffffffff16815260200190815260200160002060006101000a81548173ffffffffffffffffffffffffffffffffffffffff021916908373ffffffffffffffffffffffffffffffffffffffff16021790555060008060003373ffffffffffffffffffffffffffffffffffffffff1673ffffffffffffffffffffffffffffffffffffffff16815260200190815260200160002060006101000a81548173ffffffffffffffffffffffffffffffffffffffff021916908373ffffffffffffffffffffffffffffffffffffffff16021790555050565b60007f0000000000000000000000000000000000000000000000000000000000000000905090565b7f000000000000000000000000000000000000000000000000000000000000000081565b60006020528060005260406000206000915054906101000a900473ffffffffffffffffffffffffffffffffffffffff1681565b60016020528060005260406000206000915090505481565b7f000000000000000000000000000000000000000000000000000000000000000073ffffffffffffffffffffffffffffffffffffffff163373ffffffffffffffffffffffffffffffffffffffff161462000ca0576040517f62de198600000000000000000000000000000000000000000000000000000000815260040160405180910390fd5b6000600460018362000cb39190620017c3565b8154811062000cc75762000cc662001942565b5b9060005260206000200160009054906101000a900473ffffffffffffffffffffffffffffffffffffffff1690508073ffffffffffffffffffffffffffffffffffffffff1663a69df4b56040518163ffffffff1660e01b8152600401600060405180830381600087803b15801562000d3d57600080fd5b505af115801562000d52573d6000803e3d6000fd5b505050505050565b600080600460018462000d6e9190620017c3565b8154811062000d825762000d8162001942565b5b9060005260206000200160009054906101000a900473ffffffffffffffffffffffffffffffffffffffff16905080915050919050565b7f000000000000000000000000000000000000000000000000000000000000000081565b600047905090565b600080600160003373ffffffffffffffffffffffffffffffffffffffff1673ffffffffffffffffffffffffffffffffffffffff1681526020019081526020016000205490508091505090565b600080600160035462000e449190620017c3565b90508091505090565b60007f0000000000000000000000000000000000000000000000000000000000000000905090565b600080600160003373ffffffffffffffffffffffffffffffffffffffff1673ffffffffffffffffffffffffffffffffffffffff168152602001908152602001600020541462000ef0576040517fa4cd014c00000000000000000000000000000000000000000000000000000000815260040160405180910390fd5b60008383337f000000000000000000000000000000000000000000000000000000000000000060035460405162000f2790620013dc565b62000f379594939291906200166a565b604051809103906000f08015801562000f54573d6000803e3d6000fd5b5090508073ffffffffffffffffffffffffffffffffffffffff1663a69df4b56040518163ffffffff1660e01b8152600401600060405180830381600087803b15801562000fa057600080fd5b505af115801562000fb5573d6000803e3d6000fd5b505050506004819080600181540180825580915050600190039060005260206000200160009091909190916101000a81548173ffffffffffffffffffffffffffffffffffffffff021916908373ffffffffffffffffffffffffffffffffffffffff160217905550806000803373ffffffffffffffffffffffffffffffffffffffff1673ffffffffffffffffffffffffffffffffffffffff16815260200190815260200160002060006101000a81548173ffffffffffffffffffffffffffffffffffffffff021916908373ffffffffffffffffffffffffffffffffffffffff160217905550600354600160003373ffffffffffffffffffffffffffffffffffffffff1673ffffffffffffffffffffffffffffffffffffffff16815260200190815260200160002081905550600354600260008373ffffffffffffffffffffffffffffffffffffffff1673ffffffffffffffffffffffffffffffffffffffff16815260200190815260200160002081905550600160035462001136919062001766565b6003819055508073ffffffffffffffffffffffffffffffffffffffff167f8d41e52c133717d879952d81e8b37582cb51f582d4cb7850e2db6d012141a11c60405160405180910390a28091505092915050565b6000806000808473ffffffffffffffffffffffffffffffffffffffff1673ffffffffffffffffffffffffffffffffffffffff16815260200190815260200160002060009054906101000a900473ffffffffffffffffffffffffffffffffffffffff16905080915050919050565b7f000000000000000000000000000000000000000000000000000000000000000073ffffffffffffffffffffffffffffffffffffffff163373ffffffffffffffffffffffffffffffffffffffff16146200127c576040517f62de198600000000000000000000000000000000000000000000000000000000815260040160405180910390fd5b600060046001836200128f9190620017c3565b81548110620012a357620012a262001942565b5b9060005260206000200160009054906101000a900473ffffffffffffffffffffffffffffffffffffffff1690508073ffffffffffffffffffffffffffffffffffffffff1663f83d08ba6040518163ffffffff1660e01b8152600401600060405180830381600087803b1580156200131957600080fd5b505af11580156200132e573d6000803e3d6000fd5b505050505050565b600481815481106200134757600080fd5b906000526020600020016000915054906101000a900473ffffffffffffffffffffffffffffffffffffffff1681565b600080600160008473ffffffffffffffffffffffffffffffffffffffff1673ffffffffffffffffffffffffffffffffffffffff16815260200190815260200160002054905080915050919050565b60026020528060005260406000206000915090505481565b612a9080620019fa83390190565b600062001401620013fb8462001714565b620016eb565b90508281526020810184848401111562001420576200141f620019a5565b5b6200142d84828562001898565b509392505050565b6000813590506200144681620019c5565b92915050565b600082601f830112620014645762001463620019a0565b5b813562001476848260208601620013ea565b91505092915050565b6000813590506200149081620019df565b92915050565b600060208284031215620014af57620014ae620019af565b5b6000620014bf8482850162001435565b91505092915050565b60008060408385031215620014e257620014e1620019af565b5b600083013567ffffffffffffffff811115620015035762001502620019aa565b5b62001511858286016200144c565b925050602062001524858286016200147f565b9150509250929050565b600060208284031215620015475762001546620019af565b5b600062001557848285016200147f565b91505092915050565b6200156b8162001812565b82525050565b6200157c81620017fe565b82525050565b6200158d8162001826565b82525050565b6200159e816200185c565b82525050565b6000620015b1826200174a565b620015bd818562001755565b9350620015cf818560208601620018a7565b620015da81620019b4565b840191505092915050565b620015f08162001852565b82525050565b60006020820190506200160d600083018462001571565b92915050565b60006020820190506200162a600083018462001560565b92915050565b600060208201905062001647600083018462001582565b92915050565b600060208201905062001664600083018462001593565b92915050565b600060a0820190508181036000830152620016868188620015a4565b9050620016976020830187620015e5565b620016a6604083018662001560565b620016b56060830185620015e5565b620016c46080830184620015e5565b9695505050505050565b6000602082019050620016e56000830184620015e5565b92915050565b6000620016f76200170a565b9050620017058282620018dd565b919050565b6000604051905090565b600067ffffffffffffffff82111562001732576200173162001971565b5b6200173d82620019b4565b9050602081019050919050565b600081519050919050565b600082825260208201905092915050565b6000620017738262001852565b9150620017808362001852565b9250827fffffffffffffffffffffffffffffffffffffffffffffffffffffffffffffffff03821115620017b857620017b762001913565b5b828201905092915050565b6000620017d08262001852565b9150620017dd8362001852565b925082821015620017f357620017f262001913565b5b828203905092915050565b60006200180b8262001832565b9050919050565b60006200181f8262001832565b9050919050565b60008115159050919050565b600073ffffffffffffffffffffffffffffffffffffffff82169050919050565b6000819050919050565b6000620018698262001870565b9050919050565b60006200187d8262001884565b9050919050565b6000620018918262001832565b9050919050565b82818337600083830152505050565b60005b83811015620018c7578082015181840152602081019050620018aa565b83811115620018d7576000848401525b50505050565b620018e882620019b4565b810181811067ffffffffffffffff821117156200190a576200190962001971565b5b80604052505050565b7f4e487b7100000000000000000000000000000000000000000000000000000000600052601160045260246000fd5b7f4e487b7100000000000000000000000000000000000000000000000000000000600052603260045260246000fd5b7f4e487b7100000000000000000000000000000000000000000000000000000000600052604160045260246000fd5b600080fd5b600080fd5b600080fd5b600080fd5b6000601f19601f8301169050919050565b620019d081620017fe565b8114620019dc57600080fd5b50565b620019ea8162001852565b8114620019f657600080fd5b5056fe60e06040523480156200001157600080fd5b5060405162002a9038038062002a9083398181016040528101906200003791906200028e565b33600360006101000a81548173ffffffffffffffffffffffffffffffffffffffff021916908373ffffffffffffffffffffffffffffffffffffffff16021790555084600490805190602001906200009092919062000132565b5082600260046101000a81548173ffffffffffffffffffffffffffffffffffffffff021916908373ffffffffffffffffffffffffffffffffffffffff16021790555083608081815250506001600260016101000a81548160ff0219169083151502179055508160a081815250508060c0818152505060016002806101000a81548160ff021916908315150217905550600060018190555050505050506200052b565b828054620001409062000408565b90600052602060002090601f016020900481019282620001645760008555620001b0565b82601f106200017f57805160ff1916838001178555620001b0565b82800160010185558215620001b0579182015b82811115620001af57825182559160200191906001019062000192565b5b509050620001bf9190620001c3565b5090565b5b80821115620001de576000816000905550600101620001c4565b5090565b6000620001f9620001f3846200035e565b62000335565b905082815260208101848484011115620002185762000217620004d7565b5b62000225848285620003d2565b509392505050565b6000815190506200023e81620004f7565b92915050565b600082601f8301126200025c576200025b620004d2565b5b81516200026e848260208601620001e2565b91505092915050565b600081519050620002888162000511565b92915050565b600080600080600060a08688031215620002ad57620002ac620004e1565b5b600086015167ffffffffffffffff811115620002ce57620002cd620004dc565b5b620002dc8882890162000244565b9550506020620002ef8882890162000277565b945050604062000302888289016200022d565b9350506060620003158882890162000277565b9250506080620003288882890162000277565b9150509295509295909350565b60006200034162000354565b90506200034f82826200043e565b919050565b6000604051905090565b600067ffffffffffffffff8211156200037c576200037b620004a3565b5b6200038782620004e6565b9050602081019050919050565b6000620003a182620003a8565b9050919050565b600073ffffffffffffffffffffffffffffffffffffffff82169050919050565b6000819050919050565b60005b83811015620003f2578082015181840152602081019050620003d5565b8381111562000402576000848401525b50505050565b600060028204905060018216806200042157607f821691505b6020821081141562000438576200043762000474565b5b50919050565b6200044982620004e6565b810181811067ffffffffffffffff821117156200046b576200046a620004a3565b5b80604052505050565b7f4e487b7100000000000000000000000000000000000000000000000000000000600052602260045260246000fd5b7f4e487b7100000000000000000000000000000000000000000000000000000000600052604160045260246000fd5b600080fd5b600080fd5b600080fd5b600080fd5b6000601f19601f8301169050919050565b620005028162000394565b81146200050e57600080fd5b50565b6200051c81620003c8565b81146200052857600080fd5b50565b60805160a05160c051612519620005776000396000610ae8015260008181610f0301526111720152600081816109fe015281816112a90152818161140d015261171c01526125196000f3fe6080604052600436106102135760003560e01c80636c2f272a11610118578063c622bb20116100a0578063dad7003a1161006f578063dad7003a14610725578063dfcf7a8c14610750578063ed88c68e1461077b578063f03232a314610785578063f83d08ba146107b057610222565b8063c622bb20146106b0578063ca973f07146106db578063d4f2a4d5146106e5578063d9d25813146106fc57610222565b8063a67e30cb116100e7578063a67e30cb146105ed578063a69df4b514610618578063af1aa9f91461062f578063b97a7d241461065a578063c38804a51461068557610222565b80636c2f272a1461052f578063748ce70a1461055a578063787e32571461058557806380e1204f146105b057610222565b8063365fd9821161019b578063443910e01161016a578063443910e0146104585780634a0cf0fb14610483578063583b1896146104ae5780635edd2267146104d9578063643b28701461050457610222565b8063365fd982146103c057806339722fab146103eb57806339d7e8a4146104165780633ccfd60b1461044157610222565b806327ad7a5d116101e257806327ad7a5d146102eb5780632af4c31e146103165780632d3297b61461033f5780632e6626e71461036a578063306addc41461039557610222565b80630238cbdc1461022c5780630294d0111461026a578063092dcb4c146102955780630cfc2fc5146102c057610222565b36610222576102206107c7565b005b61022a6107c7565b005b34801561023857600080fd5b50610253600480360381019061024e9190611da8565b610a92565b604051610261929190611fa8565b60405180910390f35b34801561027657600080fd5b5061027f610ae6565b60405161028c919061207b565b60405180910390f35b3480156102a157600080fd5b506102aa610b0a565b6040516102b7919061201c565b60405180910390f35b3480156102cc57600080fd5b506102d5610b21565b6040516102e2919061201c565b60405180910390f35b3480156102f757600080fd5b50610300610b34565b60405161030d919061201c565b60405180910390f35b34801561032257600080fd5b5061033d60048036038101906103389190611d32565b610b4b565b005b34801561034b57600080fd5b50610354610c9e565b604051610361919061207b565b60405180910390f35b34801561037657600080fd5b5061037f610ca7565b60405161038c9190612037565b60405180910390f35b3480156103a157600080fd5b506103aa610d39565b6040516103b79190612037565b60405180910390f35b3480156103cc57600080fd5b506103d5610dc7565b6040516103e2919061207b565b60405180910390f35b3480156103f757600080fd5b50610400610e13565b60405161040d919061207b565b60405180910390f35b34801561042257600080fd5b5061042b610e25565b604051610438919061207b565b60405180910390f35b34801561044d57600080fd5b50610456610e2b565b005b34801561046457600080fd5b5061046d6110b1565b60405161047a9190611ffa565b60405180910390f35b34801561048f57600080fd5b50610498611170565b6040516104a5919061207b565b60405180910390f35b3480156104ba57600080fd5b506104c3611194565b6040516104d0919061201c565b60405180910390f35b3480156104e557600080fd5b506104ee6111a9565b6040516104fb9190612037565b60405180910390f35b34801561051057600080fd5b50610519611237565b6040516105269190611f8d565b60405180910390f35b34801561053b57600080fd5b5061054461125d565b604051610551919061207b565b60405180910390f35b34801561056657600080fd5b5061056f611267565b60405161057c919061201c565b60405180910390f35b34801561059157600080fd5b5061059a61127e565b6040516105a7919061201c565b60405180910390f35b3480156105bc57600080fd5b506105d760048036038101906105d29190611d05565b61128f565b6040516105e4919061207b565b60405180910390f35b3480156105f957600080fd5b506106026112a7565b60405161060f919061207b565b60405180910390f35b34801561062457600080fd5b5061062d6112cb565b005b34801561063b57600080fd5b506106446113f6565b604051610651919061201c565b60405180910390f35b34801561066657600080fd5b5061066f611409565b60405161067c919061207b565b60405180910390f35b34801561069157600080fd5b5061069a611431565b6040516106a79190611f8d565b60405180910390f35b3480156106bc57600080fd5b506106c5611457565b6040516106d29190611f8d565b60405180910390f35b6106e3611481565b005b3480156106f157600080fd5b506106fa61179e565b005b34801561070857600080fd5b50610723600480360381019061071e9190611d5f565b6118be565b005b34801561073157600080fd5b5061073a6119dc565b604051610747919061207b565b60405180910390f35b34801561075c57600080fd5b506107656119e2565b604051610772919061201c565b60405180910390f35b6107836107c7565b005b34801561079157600080fd5b5061079a6119f5565b6040516107a79190612037565b60405180910390f35b3480156107bc57600080fd5b506107c5611a87565b005b600260009054906101000a900460ff161561080e576040517fef233fa900000000000000000000000000000000000000000000000000000000815260040160405180910390fd5b600260019054906101000a900460ff16610854576040517fef233fa900000000000000000000000000000000000000000000000000000000815260040160405180910390fd5b60028054906101000a900460ff1615610899576040517fef233fa900000000000000000000000000000000000000000000000000000000815260040160405180910390fd5b600260039054906101000a900460ff16156108e0576040517fef233fa900000000000000000000000000000000000000000000000000000000815260040160405180910390fd5b346000808282546108f19190612156565b92505081905550600060405180604001604052803373ffffffffffffffffffffffffffffffffffffffff168152602001348152509050600781908060018154018082558091505060019003906000526020600020906002020160009091909190915060008201518160000160006101000a81548173ffffffffffffffffffffffffffffffffffffffff021916908373ffffffffffffffffffffffffffffffffffffffff16021790555060208201518160010155505034600660003373ffffffffffffffffffffffffffffffffffffffff1673ffffffffffffffffffffffffffffffffffffffff16815260200190815260200160002060008282546109f59190612156565b925050819055507f000000000000000000000000000000000000000000000000000000000000000060005410610a41576001600260006101000a81548160ff0219169083151502179055505b3373ffffffffffffffffffffffffffffffffffffffff167faa13962bc79c7a0bc42cb8169b1705f0a6b55cc404ffb8a589d771ca7867597834604051610a87919061207b565b60405180910390a250565b60078181548110610aa257600080fd5b90600052602060002090600202016000915090508060000160009054906101000a900473ffffffffffffffffffffffffffffffffffffffff16908060010154905082565b7f000000000000000000000000000000000000000000000000000000000000000081565b6000600260009054906101000a900460ff16905090565b600260039054906101000a900460ff1681565b6000600260039054906101000a900460ff16905090565b600260049054906101000a900473ffffffffffffffffffffffffffffffffffffffff1673ffffffffffffffffffffffffffffffffffffffff163373ffffffffffffffffffffffffffffffffffffffff1614610bd2576040517ff614c57700000000000000000000000000000000000000000000000000000000815260040160405180910390fd5b60028054906101000a900460ff1615610c17576040517fef233fa900000000000000000000000000000000000000000000000000000000815260040160405180910390fd5b80600260046101000a81548173ffffffffffffffffffffffffffffffffffffffff021916908373ffffffffffffffffffffffffffffffffffffffff1602179055508073ffffffffffffffffffffffffffffffffffffffff167f595ee9ffef04d4d652b768860c56905a48f5ab79124bb3b2279df1885536991d60405160405180910390a250565b60008054905090565b606060058054610cb690612311565b80601f0160208091040260200160405190810160405280929190818152602001828054610ce290612311565b8015610d2f5780601f10610d0457610100808354040283529160200191610d2f565b820191906000526020600020905b815481529060010190602001808311610d1257829003601f168201915b5050505050905090565b60058054610d4690612311565b80601f0160208091040260200160405190810160405280929190818152602001828054610d7290612311565b8015610dbf5780601f10610d9457610100808354040283529160200191610dbf565b820191906000526020600020905b815481529060010190602001808311610da257829003601f168201915b505050505081565b600080600660003373ffffffffffffffffffffffffffffffffffffffff1673ffffffffffffffffffffffffffffffffffffffff1681526020019081526020016000205490508091505090565b60008060078054905090508091505090565b60005481565b600260049054906101000a900473ffffffffffffffffffffffffffffffffffffffff1673ffffffffffffffffffffffffffffffffffffffff163373ffffffffffffffffffffffffffffffffffffffff1614610eb2576040517ff614c57700000000000000000000000000000000000000000000000000000000815260040160405180910390fd5b60028054906101000a900460ff1615610ef7576040517fef233fa900000000000000000000000000000000000000000000000000000000815260040160405180910390fd5b600047905060006127107f000000000000000000000000000000000000000000000000000000000000000083610f2d91906121dd565b610f3791906121ac565b90506000600360009054906101000a900473ffffffffffffffffffffffffffffffffffffffff1673ffffffffffffffffffffffffffffffffffffffff166108fc839081150290604051600060405180830381858888f19350505050905080610fcb576040517f7824242700000000000000000000000000000000000000000000000000000000815260040160405180910390fd5b60003373ffffffffffffffffffffffffffffffffffffffff166108fc479081150290604051600060405180830381858888f1935050505090508061103b576040517f7824242700000000000000000000000000000000000000000000000000000000815260040160405180910390fd5b600080819055506001600260036101000a81548160ff0219169083151502179055503373ffffffffffffffffffffffffffffffffffffffff167fbc158bb64f05d6383aea69bbb0b20c1bbf4b7a18f63359c5649b7c39e29d3884856040516110a3919061207b565b60405180910390a250505050565b60606007805480602002602001604051908101604052809291908181526020016000905b8282101561116757838290600052602060002090600202016040518060400160405290816000820160009054906101000a900473ffffffffffffffffffffffffffffffffffffffff1673ffffffffffffffffffffffffffffffffffffffff1673ffffffffffffffffffffffffffffffffffffffff168152602001600182015481525050815260200190600101906110d5565b50505050905090565b7f000000000000000000000000000000000000000000000000000000000000000081565b600060028054906101000a900460ff16905090565b600480546111b690612311565b80601f01602080910402602001604051908101604052809291908181526020018280546111e290612311565b801561122f5780601f106112045761010080835404028352916020019161122f565b820191906000526020600020905b81548152906001019060200180831161121257829003601f168201915b505050505081565b600260049054906101000a900473ffffffffffffffffffffffffffffffffffffffff1681565b6000600154905090565b6000600260019054906101000a900460ff16905090565b60028054906101000a900460ff1681565b60066020528060005260406000206000915090505481565b7f000000000000000000000000000000000000000000000000000000000000000081565b600360009054906101000a900473ffffffffffffffffffffffffffffffffffffffff1673ffffffffffffffffffffffffffffffffffffffff163373ffffffffffffffffffffffffffffffffffffffff1614611352576040517ff614c57700000000000000000000000000000000000000000000000000000000815260040160405180910390fd5b60028054906101000a900460ff16611396576040517f8933273b00000000000000000000000000000000000000000000000000000000815260040160405180910390fd5b60006002806101000a81548160ff0219169083151502179055507fda3943f07eff121b37cf91d4288e4e85a5078bee9b6e9159a955bedb9683694860028054906101000a900460ff166040516113ec919061201c565b60405180910390a1565b600260009054906101000a900460ff1681565b60007f0000000000000000000000000000000000000000000000000000000000000000905090565b600360009054906101000a900473ffffffffffffffffffffffffffffffffffffffff1681565b6000600260049054906101000a900473ffffffffffffffffffffffffffffffffffffffff16905090565b600260039054906101000a900460ff16156114c8576040517fef233fa900000000000000000000000000000000000000000000000000000000815260040160405180910390fd5b6000600660003373ffffffffffffffffffffffffffffffffffffffff1673ffffffffffffffffffffffffffffffffffffffff168152602001908152602001600020541415611542576040517f5673294800000000000000000000000000000000000000000000000000000000815260040160405180910390fd5b6000600660003373ffffffffffffffffffffffffffffffffffffffff1673ffffffffffffffffffffffffffffffffffffffff1681526020019081526020016000205490506000600660003373ffffffffffffffffffffffffffffffffffffffff1673ffffffffffffffffffffffffffffffffffffffff1681526020019081526020016000208190555060003373ffffffffffffffffffffffffffffffffffffffff166108fc839081150290604051600060405180830381858888f1935050505090508061163b576040517f7824242700000000000000000000000000000000000000000000000000000000815260040160405180910390fd5b600060405180604001604052803373ffffffffffffffffffffffffffffffffffffffff1681526020018461166e90612374565b8152509050600781908060018154018082558091505060019003906000526020600020906002020160009091909190915060008201518160000160006101000a81548173ffffffffffffffffffffffffffffffffffffffff021916908373ffffffffffffffffffffffffffffffffffffffff160217905550602082015181600101555050600180546117009190612156565b600181905550826000546117149190612237565b6000819055507f00000000000000000000000000000000000000000000000000000000000000006000541015611760576000600260006101000a81548160ff0219169083151502179055505b7fd7dee2702d63ad89917b6a4da9981c90c4d24f8c2bdfd64c604ecae57d8d06513384604051611791929190611fd1565b60405180910390a1505050565b600260049054906101000a900473ffffffffffffffffffffffffffffffffffffffff1673ffffffffffffffffffffffffffffffffffffffff163373ffffffffffffffffffffffffffffffffffffffff1614611825576040517ff614c57700000000000000000000000000000000000000000000000000000000815260040160405180910390fd5b600260019054906101000a900460ff161561185a576000600260016101000a81548160ff021916908315150217905550611876565b6001600260016101000a81548160ff0219169083151502179055505b7f6f5be26fb94646fadcdf16147ddd35138ad497ce000f92f12eadbaa19497c533600260019054906101000a900460ff166040516118b4919061201c565b60405180910390a1565b600260049054906101000a900473ffffffffffffffffffffffffffffffffffffffff1673ffffffffffffffffffffffffffffffffffffffff163373ffffffffffffffffffffffffffffffffffffffff1614611945576040517ff614c57700000000000000000000000000000000000000000000000000000000815260040160405180910390fd5b60028054906101000a900460ff161561198a576040517fef233fa900000000000000000000000000000000000000000000000000000000815260040160405180910390fd5b80600590805190602001906119a0929190611bb3565b507f0c9c2f86218c506a4f5a61d8550880041379a6c31155086325a859e19bfeaaf860056040516119d19190612059565b60405180910390a150565b60015481565b600260019054906101000a900460ff1681565b606060048054611a0490612311565b80601f0160208091040260200160405190810160405280929190818152602001828054611a3090612311565b8015611a7d5780601f10611a5257610100808354040283529160200191611a7d565b820191906000526020600020905b815481529060010190602001808311611a6057829003601f168201915b5050505050905090565b600360009054906101000a900473ffffffffffffffffffffffffffffffffffffffff1673ffffffffffffffffffffffffffffffffffffffff163373ffffffffffffffffffffffffffffffffffffffff1614611b0e576040517ff614c57700000000000000000000000000000000000000000000000000000000815260040160405180910390fd5b60028054906101000a900460ff1615611b53576040517f8933273b00000000000000000000000000000000000000000000000000000000815260040160405180910390fd5b60016002806101000a81548160ff0219169083151502179055507fc20b8fc722655092cdbc0c19a12ad36bbf5f5e7da7c30409ecefea3880d8e8cc60028054906101000a900460ff16604051611ba9919061201c565b60405180910390a1565b828054611bbf90612311565b90600052602060002090601f016020900481019282611be15760008555611c28565b82601f10611bfa57805160ff1916838001178555611c28565b82800160010185558215611c28579182015b82811115611c27578251825591602001919060010190611c0c565b5b509050611c359190611c39565b5090565b5b80821115611c52576000816000905550600101611c3a565b5090565b6000611c69611c64846120bb565b612096565b905082815260208101848484011115611c8557611c8461247e565b5b611c908482856122cf565b509392505050565b600081359050611ca78161249e565b92915050565b600081359050611cbc816124b5565b92915050565b600082601f830112611cd757611cd6612479565b5b8135611ce7848260208601611c56565b91505092915050565b600081359050611cff816124cc565b92915050565b600060208284031215611d1b57611d1a612488565b5b6000611d2984828501611c98565b91505092915050565b600060208284031215611d4857611d47612488565b5b6000611d5684828501611cad565b91505092915050565b600060208284031215611d7557611d74612488565b5b600082013567ffffffffffffffff811115611d9357611d92612483565b5b611d9f84828501611cc2565b91505092915050565b600060208284031215611dbe57611dbd612488565b5b6000611dcc84828501611cf0565b91505092915050565b6000611de18383611f4f565b60408301905092915050565b611df68161226b565b82525050565b611e058161226b565b82525050565b6000611e1682612111565b611e208185612134565b9350611e2b836120ec565b8060005b83811015611e5c578151611e438882611dd5565b9750611e4e83612127565b925050600181019050611e2f565b5085935050505092915050565b611e728161228f565b82525050565b611e818161229b565b82525050565b611e908161229b565b82525050565b6000611ea18261211c565b611eab8185612145565b9350611ebb8185602086016122de565b611ec48161248d565b840191505092915050565b60008154611edc81612311565b611ee68186612145565b94506001821660008114611f015760018114611f1357611f46565b60ff1983168652602086019350611f46565b611f1c856120fc565b60005b83811015611f3e57815481890152600182019150602081019050611f1f565b808801955050505b50505092915050565b604082016000820151611f656000850182611ded565b506020820151611f786020850182611e78565b50505050565b611f87816122c5565b82525050565b6000602082019050611fa26000830184611dfc565b92915050565b6000604082019050611fbd6000830185611dfc565b611fca6020830184611e87565b9392505050565b6000604082019050611fe66000830185611dfc565b611ff36020830184611f7e565b9392505050565b600060208201905081810360008301526120148184611e0b565b905092915050565b60006020820190506120316000830184611e69565b92915050565b600060208201905081810360008301526120518184611e96565b905092915050565b600060208201905081810360008301526120738184611ecf565b905092915050565b60006020820190506120906000830184611f7e565b92915050565b60006120a06120b1565b90506120ac8282612343565b919050565b6000604051905090565b600067ffffffffffffffff8211156120d6576120d561244a565b5b6120df8261248d565b9050602081019050919050565b6000819050602082019050919050565b60008190508160005260206000209050919050565b600081519050919050565b600081519050919050565b6000602082019050919050565b600082825260208201905092915050565b600082825260208201905092915050565b6000612161826122c5565b915061216c836122c5565b9250827fffffffffffffffffffffffffffffffffffffffffffffffffffffffffffffffff038211156121a1576121a06123bd565b5b828201905092915050565b60006121b7826122c5565b91506121c2836122c5565b9250826121d2576121d16123ec565b5b828204905092915050565b60006121e8826122c5565b91506121f3836122c5565b9250817fffffffffffffffffffffffffffffffffffffffffffffffffffffffffffffffff048311821515161561222c5761222b6123bd565b5b828202905092915050565b6000612242826122c5565b915061224d836122c5565b9250828210156122605761225f6123bd565b5b828203905092915050565b6000612276826122a5565b9050919050565b6000612288826122a5565b9050919050565b60008115159050919050565b6000819050919050565b600073ffffffffffffffffffffffffffffffffffffffff82169050919050565b6000819050919050565b82818337600083830152505050565b60005b838110156122fc5780820151818401526020810190506122e1565b8381111561230b576000848401525b50505050565b6000600282049050600182168061232957607f821691505b6020821081141561233d5761233c61241b565b5b50919050565b61234c8261248d565b810181811067ffffffffffffffff8211171561236b5761236a61244a565b5b80604052505050565b600061237f8261229b565b91507f80000000000000000000000000000000000000000000000000000000000000008214156123b2576123b16123bd565b5b816000039050919050565b7f4e487b7100000000000000000000000000000000000000000000000000000000600052601160045260246000fd5b7f4e487b7100000000000000000000000000000000000000000000000000000000600052601260045260246000fd5b7f4e487b7100000000000000000000000000000000000000000000000000000000600052602260045260246000fd5b7f4e487b7100000000000000000000000000000000000000000000000000000000600052604160045260246000fd5b600080fd5b600080fd5b600080fd5b600080fd5b6000601f19601f8301169050919050565b6124a78161226b565b81146124b257600080fd5b50565b6124be8161227d565b81146124c957600080fd5b50565b6124d5816122c5565b81146124e057600080fd5b5056fea264697066735822122032035bbd5033a84a207ac4c5f0678dcca0dd7fd7de990b56bb10195b9bedd5be64736f6c63430008070033a2646970667358221220d2d63de4858fdc1713b4a966a3789355357da0e1d852d90ec0e3772fc25704b464736f6c63430008070033",
  "devdoc": {
    "kind": "dev",
    "methods": {},
    "version": 1
  },
  "userdoc": {
    "kind": "user",
    "methods": {},
    "version": 1
  },
  "storageLayout": {
    "storage": [
      {
        "astId": 676,
        "contract": "contracts/CrowdFunder.sol:CrowdFunder",
        "label": "walletToCauseOwned",
        "offset": 0,
        "slot": "0",
        "type": "t_mapping(t_address,t_address)"
      },
      {
        "astId": 680,
        "contract": "contracts/CrowdFunder.sol:CrowdFunder",
        "label": "hasCause",
        "offset": 0,
        "slot": "1",
        "type": "t_mapping(t_address,t_uint256)"
      },
      {
        "astId": 684,
        "contract": "contracts/CrowdFunder.sol:CrowdFunder",
        "label": "causeToId",
        "offset": 0,
        "slot": "2",
        "type": "t_mapping(t_address,t_uint256)"
      },
      {
        "astId": 688,
        "contract": "contracts/CrowdFunder.sol:CrowdFunder",
        "label": "s_nextCauseId",
        "offset": 0,
        "slot": "3",
        "type": "t_uint256"
      },
      {
        "astId": 692,
        "contract": "contracts/CrowdFunder.sol:CrowdFunder",
        "label": "s_causes",
        "offset": 0,
        "slot": "4",
        "type": "t_array(t_contract(Cause)667)dyn_storage"
      }
    ],
    "types": {
      "t_address": {
        "encoding": "inplace",
        "label": "address",
        "numberOfBytes": "20"
      },
      "t_array(t_contract(Cause)667)dyn_storage": {
        "base": "t_contract(Cause)667",
        "encoding": "dynamic_array",
        "label": "contract Cause[]",
        "numberOfBytes": "32"
      },
      "t_contract(Cause)667": {
        "encoding": "inplace",
        "label": "contract Cause",
        "numberOfBytes": "20"
      },
      "t_mapping(t_address,t_address)": {
        "encoding": "mapping",
        "key": "t_address",
        "label": "mapping(address => address)",
        "numberOfBytes": "32",
        "value": "t_address"
      },
      "t_mapping(t_address,t_uint256)": {
        "encoding": "mapping",
        "key": "t_address",
        "label": "mapping(address => uint256)",
        "numberOfBytes": "32",
        "value": "t_uint256"
      },
      "t_uint256": {
        "encoding": "inplace",
        "label": "uint256",
        "numberOfBytes": "32"
      }
    }
  }
}